:020000040800F2
:1000000000400020E912000875330008773300082B
:10001000793300087B3300087D33000800000000BE
:100020000000000000000000000000007F33000816
:100030000000000000000000813300088333000846
:1000400031130008E93300083113000831130008A8
:1000500031130008311300088933000831130008F8
:100060003113000831130008311300083113000860
:100070003113000831130008311300083113000850
:100080003113000831130008311300083113000840
:1000900031130008E533000831130008311300085C
:1000A0003113000831130008311300083113000820
:1000B0003113000831130008311300083113000810
:1000C000311300083113000885330008311300088C
:0400D00031130008E0
:1001000010B5054C237833B9044B13B10448AFF351
:1001100000800123237010BD480A00200000000069
:10012000A816010808B5034B1BB103490348AFF3F8
:10013000008008BD000000004C0A0020A81601083D
:1001400090B589B000AFF8607B600B46FB72134638
:10015000BB723A4B07F110040FCB84E80F00FB7A17
:10016000102B07D0FB7A182B04D0FB7A202B01D060
:1001700006235EE0324B5B68314A43F0090353606B
:100180002F4B32221A60BB7A43F01003DAB22C4BA9
:100190009A61FB7A202B0ED0202B10DC102B02D082
:1001A000182B04D00BE0264B0022DA6008E0244B29
:1001B0000422DA6004E0224B0822DA6000E000BF8B
:1001C00000BF1F4B5B6803F00103002BF9D1FB7AE2
:1001D0001A46F9681B4800F0F5FE194BDB68184A0F
:1001E00043F08203D36000BF154BDB6803F080034C
:1001F000002BF9D1124BDB68114A23F00303D360C3
:10020000BB7A012B05D0BB7A022B02D0BB7A032B21
:1002100004D1102279680C4800F0D4FEBB7A032B7D
:1002200006D10A4B1C4607F110030FCB84E80F00E0
:10023000002318462437BD4690BD00BF041B0108AB
:1002400000200340401603401016034000160340F0
:1002500080B584B000AFF8607B600B467B811346AD
:100260007B727B7A002B0CD01F4BDB681E4A23F07D
:100270000303D3601C4BDB681B4A43F00103D360CC
:100280002AE0194BDB68184A23F00303D360164BAE
:10029000154ADB68D3601FE01022F968134800F0AC
:1002A00091FE114BDB68104A43F08003D36000BF1E
:1002B0000D4BDB6803F08003002BF9D110220C49B1
:1002C000786800F07FFE7B89103B7B81FB681033F0
:1002D000FB607B6810337B607B89002BDCD10023C3
:1002E00018461037BD4680BD002003400010034073
:1002F0002010034080B400AF0B4B5B680A4A43F008
:100300000103536000BF084B5B6803F00103002B3F
:10031000F9D1054B5B68044A23F0080353600023BE
:100320001846BD4680BC70470020034081F0004164
:1003300002E000BF83F0004330B54FEA41044FEACA
:10034000430594EA050F08BF90EA020F1FBF54EA65
:10035000000C55EA020C7FEA645C7FEA655C00F001
:10036000E2804FEA5454D4EB5555B8BF6D420CDDD2
:100370002C4480EA020281EA030382EA000083EA55
:10038000010180EA020281EA0303362D88BF30BDF5
:1003900011F0004F4FEA01314FF4801C4CEA11314B
:1003A00002D0404261EB410113F0004F4FEA0333AA
:1003B0004CEA133302D0524263EB430394EA050F35
:1003C00000F0A780A4F10104D5F1200E0DDB02FAA4
:1003D0000EFC22FA05F2801841F1000103FA0EF238
:1003E000801843FA05F359410EE0A5F120050EF1FE
:1003F000200E012A03FA0EFC28BF4CF0020C43FA2F
:1004000005F3C01851EBE37101F0004507D54FF03B
:10041000000EDCF1000C7EEB00006EEB0101B1F58B
:10042000801F1BD3B1F5001F0CD349085FEA3000D1
:100430004FEA3C0C04F101044FEA445212F5800FDC
:1004400080F09A80BCF1004F08BF5FEA500C50F179
:10045000000041EB045141EA050130BD5FEA4C0C5C
:10046000404141EB0101013C28BFB1F5801FE9D2B9
:1004700091F0000F04BF01460020B1FA81F308BFDC
:100480002033A3F10B03B3F120020CDA0C3208DDA8
:1004900002F1140CC2F10C0201FA0CF021FA02F183
:1004A0000CE002F11402D8BFC2F1200C01FA02F1F3
:1004B00020FA0CFCDCBF41EA0C019040E41AA2BF18
:1004C00001EB0451294330BD6FEA04041F3C1CDAE0
:1004D0000C340EDC04F11404C4F1200220FA04F000
:1004E00001FA02F340EA030021FA04F345EA0301AA
:1004F00030BDC4F10C04C4F1200220FA02F001FA6C
:1005000004F340EA0300294630BD21FA04F02946ED
:1005100030BD94F0000F83F4801306BF81F4801186
:100520000134013D4EE77FEA645C18BF7FEA655CF9
:1005300029D094EA050F08BF90EA020F05D054EACB
:10054000000C04BF1946104630BD91EA030F1EBFD0
:100550000021002030BD5FEA545C05D140004941D4
:1005600028BF41F0004130BD14F580043CBF01F5C7
:10057000801130BD01F0004545F0FE4141F47001AD
:100580004FF0000030BD7FEA645C1ABF1946104688
:100590007FEA655C1CBF0B46024650EA013406BF89
:1005A00052EA033591EA030F41F4002130BD00BF48
:1005B00090F0000F04BF0021704730B54FF4806405
:1005C00004F132044FF000054FF0000150E700BF86
:1005D00090F0000F04BF0021704730B54FF48064E5
:1005E00004F1320410F0004548BF40424FF00001D2
:1005F0003EE700BF42004FEAE2014FEA31014FEA15
:1006000002701FBF12F07F4393F07F4F81F0605163
:10061000704732F07F4208BF704793F07F4F04BFAE
:1006200041F40021704730B54FF4607401F000458B
:1006300021F000411CE700BF50EA010208BF7047EB
:1006400030B54FF000050AE050EA010208BF7047DC
:1006500030B511F0004502D5404261EB41014FF445
:10066000806404F132045FEA915C3FF4D8AE4FF04D
:1006700003025FEADC0C18BF03325FEADC0C18BF30
:10068000033202EBDC02C2F1200300FA03FC20FA81
:1006900002F001FA03FE40EA0E0021FA02F11444CE
:1006A000BDE600BF70B54FF0FF0C4CF4E06C1CEAE7
:1006B00011541DBF1CEA135594EA0C0F95EA0C0F58
:1006C00000F0DEF82C4481EA030621EA4C5123EACB
:1006D0004C5350EA013518BF52EA033541F48011FA
:1006E00043F4801338D0A0FB02CE4FF00005E1FBAD
:1006F00002E506F00042E0FB03E54FF00006E1FBF7
:1007000003569CF0000F18BF4EF0010EA4F1FF0439
:10071000B6F5007F64F5407404D25FEA4E0E6D4179
:1007200046EB060642EAC62141EA55514FEAC5208A
:1007300040EA5E504FEACE2EB4F1FD0C88BFBCF506
:10074000E06F1ED8BEF1004F08BF5FEA500E50F1B7
:10075000000041EB045170BD06F0004646EA01017D
:1007600040EA020081EA0301B4EB5C04C2BFD4EBAF
:100770000C0541EA045170BD41F480114FF0000EA8
:10078000013C00F3AB8014F1360FDEBF002001F016
:10079000004170BDC4F10004203C35DA0C341BDC90
:1007A00004F11404C4F1200500FA05F320FA04F062
:1007B00001FA05F240EA020001F0004221F0004196
:1007C00010EBD37021FA04F642EB06015EEA430E09
:1007D00008BF20EAD37070BDC4F10C04C4F1200539
:1007E00000FA04F320FA05F001FA04F240EA0200EC
:1007F00001F0004110EBD37041F100015EEA430EBD
:1008000008BF20EAD37070BDC4F1200500FA05F2DC
:100810004EEA020E20FA04F301FA05F243EA02035B
:1008200021FA04F001F0004121FA04F220EA02006A
:1008300000EBD3705EEA430E08BF20EAD37070BDB0
:1008400094F0000F0FD101F00046400041EB010190
:1008500011F4801F08BF013CF7D041EA060195F072
:10086000000F18BF704703F00046520043EB03032C
:1008700013F4801F08BF013DF7D043EA0603704719
:1008800094EA0C0F0CEA135518BF95EA0C0F0CD024
:1008900050EA410618BF52EA4306D1D181EA03016A
:1008A00001F000414FF0000070BD50EA410606BF64
:1008B0001046194652EA430619D094EA0C0F02D1A9
:1008C00050EA013613D195EA0C0F05D152EA0336EE
:1008D0001CBF104619460AD181EA030101F000410C
:1008E00041F0FE4141F470014FF0000070BD41F055
:1008F000FE4141F4780170BD70B54FF0FF0C4CF42F
:10090000E06C1CEA11541DBF1CEA135594EA0C0F4D
:1009100095EA0C0F00F0A7F8A4EB050481EA030E9A
:1009200052EA03354FEA013100F088804FEA033381
:100930004FF0805545EA131343EA12634FEA02224F
:1009400045EA111545EA10654FEA00260EF0004110
:100950009D4208BF964244F1FD0404F5407402D262
:100960005B084FEA3202B61A65EB03055B084FEAF3
:1009700032024FF480104FF4002CB6EB020E75EBF0
:10098000030E22BFB61A754640EA0C005B084FEA18
:100990003202B6EB020E75EB030E22BFB61A754695
:1009A00040EA5C005B084FEA3202B6EB020E75EBE0
:1009B000030E22BFB61A754640EA9C005B084FEA58
:1009C0003202B6EB020E75EB030E22BFB61A754665
:1009D00040EADC0055EA060E18D04FEA051545EA54
:1009E00016754FEA06164FEAC30343EA52734FEAFD
:1009F000C2025FEA1C1CC0D111F4801F0BD141EA76
:100A000000014FF000004FF0004CB6E711F4801FDA
:100A100004BF01430020B4F1FD0C88BFBCF5E06FBA
:100A20003FF6AFAEB5EB030C04BFB6EB020C5FEACA
:100A3000500C50F1000041EB045170BD0EF0004E1F
:100A40004EEA113114EB5C04C2BFD4EB0C0541EA51
:100A5000045170BD41F480114FF0000E013C90E64E
:100A600045EA060E8DE60CEA135594EA0C0F08BF12
:100A700095EA0C0F3FF43BAF94EA0C0F0AD150EA11
:100A800001347FF434AF95EA0C0F7FF425AF1046A4
:100A900019462CE795EA0C0F06D152EA03353FF4CC
:100AA000FDAE1046194622E750EA410618BF52EA49
:100AB00043067FF4C5AE50EA41047FF40DAF52EA1D
:100AC00043057FF4EBAE12E74FF0FF3C06E000BFBA
:100AD0004FF0010C02E000BF4FF0010C4DF804CDC7
:100AE0004FEA410C7FEA6C5C4FEA430C18BF7FEA87
:100AF0006C5C1BD001B050EA410C0CBF52EA430CB5
:100B000091EA030F02BF90EA020F0020704710F134
:100B1000000F91EA030F58BF994208BF90422CBFC3
:100B2000D8176FEAE37040F0010070474FEA410CBC
:100B30007FEA6C5C02D150EA013C07D14FEA430CDA
:100B40007FEA6C5CD6D152EA033CD3D05DF8040B4B
:100B5000704700BF8446104662468C46194663467D
:100B600000E000BF01B5FFF7B7FF002848BF10F154
:100B7000000F01BD4DF808EDFFF7F4FF0CBF012099
:100B800000205DF808FB00BF4DF808EDFFF7EAFF15
:100B900034BF012000205DF808FB00BF4DF808EDD0
:100BA000FFF7E0FF94BF012000205DF808FB00BFC5
:100BB0004DF808EDFFF7CEFF94BF012000205DF84F
:100BC00008FB00BF4DF808EDFFF7C4FF34BF01205C
:100BD00000205DF808FB00BF4FEA410C7FEA6C5C27
:100BE00002D150EA013C0AD14FEA430C7FEA6C5C27
:100BF00002D152EA033C02D14FF0000070474FF09F
:100C0000010070474FEA410212F5001215D211D5CA
:100C10006FF47873B3EB625212D94FEAC12343F0F9
:100C2000004343EA505311F0004F23FA02F018BF7B
:100C3000404270474FF00000704750EA013005D144
:100C400011F0004008BF6FF0004070474FF0000007
:100C5000704700BF4A0011D212F5001211D20DD513
:100C60006FF47873B3EB62520ED44FEAC12343F0B2
:100C7000004343EA505323FA02F070474FF000005C
:100C8000704750EA013002D14FF0FF3070474FF00B
:100C90000000704753B94AB9002908BF00281CBF9B
:100CA0004FF0FF314FF0FF3000F08AB9ADF1080C82
:100CB0006DE904CE00F024F8DDF804E0DDE902235C
:100CC00004B07047D0B50C4B002206460F46FFF724
:100CD000E9FCFFF7BFFF0446FFF76AFC074B002261
:100CE000FFF7E0FC02460B4630463946FFF722FB91
:100CF000FFF7B0FF2146D0BD0000F03D0000F041FD
:100D00002DE9F047089E0D4604468E46002B40F024
:100D100082808A42174646D9B2FA82F24AB1C2F1BB
:100D2000200105FA02F320FA01F1974041EA030E8F
:100D300094404FEA1748230CBEFBF8FCB9B208FBFD
:100D40001CEE43EA0E430CFB01F098420AD9FB1853
:100D50000CF1FF3580F01681984240F21381ACF11E
:100D6000020C3B441B1AA4B2B3FBF8F008FB10338F
:100D700044EA034400FB01F1A14209D93C1900F106
:100D8000FF3380F00181A14240F2FE8002383C44F2
:100D9000641A40EA0C4000211EB1D4400023C6E989
:100DA0000043BDE8F08702B9FFDEB2FA82F2002A02
:100DB0004FD1CB1B4FEA174E1FFA87F80121B3FB27
:100DC000FEFC250C0EFB1C3345EA034508FB0CF327
:100DD000AB4207D97D190CF1FF3002D2AB4200F2D1
:100DE000E7808446ED1AA3B2B5FBFEF00EFB10556A
:100DF00043EA054408FB00F8A04507D93C1900F177
:100E0000FF3302D2A04500F2D7801846A4EB0804B5
:100E100040EA0C40C0E78B4208D9002E00F0AF80BA
:100E20000021C6E900050846BDE8F087B3FA83F162
:100E300000294BD1AB4202D3824200F2B780841A20
:100E400065EB030301209E46002EAAD0C6E9004EA2
:100E5000A7E7C2F1200C01FA02F3974020FA0CF048
:100E60004FEA174E21FA0CFC1843BCFBFEF1050CAF
:100E70000EFB11CC1FFA87F845EA0C4501FB08F37D
:100E8000AB4204FA02F409D97D1901F1FF3C80F06C
:100E90008B80AB4240F2888002393D44EB1A85B228
:100EA000B3FBFEF00EFB103345EA034500FB08F3ED
:100EB000AB4207D97D1900F1FF3C71D2AB426FD92B
:100EC00002383D44EB1A40EA014178E7C1F1200CB9
:100ED0008B4022FA0CF71F4320FA0CF405FA01F3B9
:100EE0004FEA174E25FA0CF51C43230CB5FBFEF90F
:100EF0001FFA87F80EFB195543EA054509FB08FA66
:100F0000AA4502FA01F200FA01F308D97D1909F1A4
:100F1000FF3047D2AA4545D9A9F102093D44A5EBC6
:100F20000A05A4B2B5FBFEF00EFB105544EA0544D9
:100F300000FB08F8A04507D93C1900F1FF352DD278
:100F4000A0452BD902383C4440EA0940A4EB0804F0
:100F5000A0FB02894C45C6464D4619D316D05EB15A
:100F6000B3EB0E0264EB050404FA0CFCCA404CEA35
:100F70000202CC40C6E900240021BDE8F0873146DA
:100F800030460EE7AC46EDE6184601E74345E6D2AB
:100F9000B8EB020E69EB07050138E0E72846D3E716
:100FA00060468FE78146BAE7614677E708464BE738
:100FB000ACF1020C3D4415E702383C4426E700BF83
:100FC000704700BF844641EA000313F003036DD16C
:100FD000403A41D351F8043B40F8043B51F8043BFC
:100FE00040F8043B51F8043B40F8043B51F8043B03
:100FF00040F8043B51F8043B40F8043B51F8043BF3
:1010000040F8043B51F8043B40F8043B51F8043BE2
:1010100040F8043B51F8043B40F8043B51F8043BD2
:1010200040F8043B51F8043B40F8043B51F8043BC2
:1010300040F8043B51F8043B40F8043B51F8043BB2
:1010400040F8043B51F8043B40F8043B51F8043BA2
:1010500040F8043B403ABDD2303211D351F8043B42
:1010600040F8043B51F8043B40F8043B51F8043B82
:1010700040F8043B51F8043B40F8043B103AEDD2F1
:101080000C3205D351F8043B40F8043B043AF9D242
:10109000043208D0D2071CBF11F8013B00F8013B15
:1010A00001D30B8803806046704700BF082A13D322
:1010B0008B078DD010F003038AD0C3F10403D21A3A
:1010C000DB071CBF11F8013B00F8013B80D331F86E
:1010D000023B20F8023B7BE7043AD9D3013A11F8EE
:1010E000013B00F8013BF9D20B7803704B78437059
:1010F0008B7883706046704700000000000000009D
:1011000090F800F06DE9024520F007016FF0000C47
:1011100010F0070491F820F040F049804FF00004EF
:101120006FF00700D1E9002391F840F000F10800CA
:1011300082FA4CF2A4FA8CF283FA4CF3A2FA8CF302
:101140004BBBD1E9022382FA4CF200F10800A4FA69
:101150008CF283FA4CF3A2FA8CF3E3B9D1E90423BD
:1011600082FA4CF200F10800A4FA8CF283FA4CF3F4
:10117000A2FA8CF37BB9D1E9062301F1200182FAAE
:101180004CF200F10800A4FA8CF283FA4CF3A2FAB4
:101190008CF3002BC6D0002A04BF04301A4612BAC2
:1011A000B2FA82F2FDE8024500EBD2007047D1E9C5
:1011B000002304F00305C4F100004FEAC50514F054
:1011C000040F91F840F00CFA05F562EA05021CBF25
:1011D00063EA050362464FF00004A9E7000000003F
:1011E00001F0FF01102A2BDB10F0070F08D010F8D8
:1011F000013B013A8B422DD010F0070F42B3F6D1DC
:10120000F0B441EA012141EA014122F007047FF0F4
:1012100000070023F0E80256083C85EA010586EA4B
:10122000010685FA47F5A3FA87F586FA47F6A5FA87
:1012300087F68EB9EED1F0BC01F0FF0102F0070293
:1012400032B110F8013B013A83EA010313B1F8D13E
:101250000020704701387047002D06BF354603381F
:10126000073815F0010F07D1013015F4807F02BF58
:10127000013015F4C03F0130F0BC0138704700BFA9
:10128000064B0748E02283F82220C0210023C21821
:101290000133252B82F80013F9D1704700ED00E0EF
:1012A00000E100E00E4A08B5D2F8883043F470033C
:1012B000C2F888304FF08042D36843F08003D36097
:1012C000084B5A6922F4702242F480325A619A68BB
:1012D0009207FCD5FFF7D4FFBDE8084000F0E0BF5F
:1012E00000ED00E000000240002103E00B4B5B58E2
:1012F000435004310A480B4B42189A42F6D30A4A2B
:1013000002E0002342F8043B084B9A42F9D3FFF76E
:10131000C9FF0AF03DFA01F04DFFFEE7C4230108C2
:1013200000000020480A0020480A0020681700201A
:10133000FEE79A4238BF8854704770472DE9F74F4F
:10134000DDF83C9019F0030FDDE90D4607468B46AA
:10135000154628D00C9901EB04081444A24226D16A
:1013600019F0020F0AD0A4EB0508C1464E4505EB63
:10137000090226D83544464528BF2C46204603B0EE
:10138000BDE8F08F594620200193B847019B08F132
:101390000108B0450AEB0802F4D3321BB44288BFFF
:1013A00000222A44D6E7A046A2EB040AF1E702F1A4
:1013B000010A18F8010D01935946B847019B52469E
:1013C000CCE759462020019309F10109B847019B58
:1013D000CCE72DE9F047DDE90D7616F0020FDDE9E7
:1013E0000854DDE90BC89DF828E01FD106F001097B
:1013F0004FB1B9F1000F06D0BEF1000F02D116F0C7
:101400000C0F00D0013F4FF0300A02E005F804A0B5
:101410000134444501D2202CF8D14FF0300AB9F103
:10142000000F03D0BC4201D21F2C34D916F0100F8C
:101430001FD016F4806F33D194B3444501D0BC4221
:101440002ED1B4F101082AD0BCF1100F33D1023CE7
:1014500016F0200F31D11F2C15D84FF0780C05F85D
:1014600004C001341F2C0ED84FF0300C05F804C016
:1014700001341F2C07D8BEF1000F23D04FF02D0CE4
:1014800005F804C00134CDE90A76CDE90854BDE879
:10149000F047FFF753BF05F804A00134BFE7444607
:1014A000BCF1100FD4D0BCF1020FDBD11F2CEAD855
:1014B0004FF0620CD3E74446F5E71F2CE3D84FF01A
:1014C000580CCCE716F0040F02D04FF02B0CD7E7E6
:1014D00016F0080FD7D04FF0200CD1E72DE9F043DC
:1014E00091B0189D1A9E1D9F0DB927F010077C051D
:1014F00000D50DB317F0200FAC460DF1200E4FF0C4
:10150000000514BF4FF037084FF05708BCFBF6F941
:1015100006FB19C95FFA89F4B9F1090F94BF303499
:101520004444E4B2B4450EF8014BBCFBF6F405F1BB
:10153000010501D3202D10D11C9C05941B9C0697FE
:10154000CDE903649DF86440CDE9015408AC0094F2
:10155000FFF73FFF11B0BDE8F083A446D6E72DE9C1
:10156000F04F93B0DDE91CAB249D99465AEA0B037A
:1015700008BF25F010056B0506460F46904602D5BC
:101580005AEA0B033CD00AAB15F0200F089314BFA6
:101590003723572300240993DDE920235046594679
:1015A000FFF778FBD2B2092A8ABF099B3032D218E2
:1015B000089BD2B203F8012B0893DDE920239B4559
:1015C00008BF924504F1010401D3202C15D1239BBF
:1015D0000593229B0493209B03939DF878300695F6
:1015E000CDE901430AAB009342464B4639463046AB
:1015F000FFF7EFFE13B0BDE8F08F82468B46CBE7D6
:101600000024E4E7014610B1014801F0AFBC704787
:1016100000300040000000002DE9F04F2DED068B5A
:1016200091B0DDE9206708EE100A08EE901A9246A4
:101630009B4632463B4630463946229DFFF79AFA92
:1016400080B9249B0393239B029303230193B64BFE
:10165000009318EE901A18EE100A5B465246FFF7F8
:101660006DFE47E04FF0FF326FF48013304639468D
:10167000FFF78AFA38B1249B0393239B0293042338
:101680000193AA4BE4E7AA4B4FF0FF3230463946AC
:10169000FFF798FA78B1249BA64A2499039103F0A6
:1016A0000403002B2399A44B0EBF032213460422EC
:1016B000CDE90121CCE798A3D3E900233046394690
:1016C000FFF780FA38B996A3D3E9002330463946AC
:1016D000FFF75AFA98B1249B0493239BCDE9006746
:1016E000CDE9025318EE901A18EE100A5B465246E6
:1016F00000F02AF911B0BDEC068BBDE8F08F002296
:10170000002330463946FFF73FFA002800F0828078
:101710003B46324600200021FEF70CFE0123064620
:101720000F460793249B13F4806F08BF062508AB70
:10173000A5F12002A9463021B9F1090FA5EB090452
:1017400006D909F1FF394A4503F8011BF4D12024D9
:1017500039463046FFF756FA784B03EBC90393ED51
:10176000007B0546B0EE479AF0EE679AFEF730FF31
:1017700002460B4630463946FEF7DCFD53EC192B8A
:10178000FEF790FF02460B4643EC1A2BFFF762FA76
:101790008046FEF70DFF02460B4651EC1A0BFEF792
:1017A000C9FD02460B4643EC1A2B654B0022FFF79E
:1017B00009FA88B308F101084046FEF7F9FE02462F
:1017C0000B4651EC190BFFF7E9F910B101354FF059
:1017D0000008B9F1000F4ED12846FEF7F9FE024687
:1017E0000B4630463946FEF7A5FD554B0022804694
:1017F0008946FFF7C9F930B1514B002240464946AE
:10180000FFF7E0F910B1E80700D5013508AB234434
:101810000A2258E0079085E7494B51EC1A0B002249
:10182000FFF7B2F90028D4D1B8F1000F02D018F0B8
:10183000010FCED008F10108CBE7B8FBF1F001FBB6
:1018400010823032B8F1090F03F8012B09F1FF398A
:1018500004F1010427D8A14408AA3021202C0FD07C
:101860004C4504F1010320D110AA14442E2204F89F
:10187000202C1C46CAE708AB23440A21202CDCD1CB
:10188000249B03F00303012B08AB2CD1239A52B302
:10189000079A1AB9249A12F00C0F02D0239A013A2F
:1018A0002392302214E08046E8E7A1541C46D5E795
:1018B00095FBF2F102FB1155303503F8015B013461
:1018C0000D460029DCD0202CF2D1D9E71A5501347D
:1018D0002399A14207D9202CF8D1249A0392239A64
:1018E000CDE90142B4E6202CF7D0079A32B110AA14
:1018F00022442D2102F8201C0134EEE7249A5107DE
:1019000003D510AA22442B21F4E7249A1207E4D528
:1019100010AA22442021EDE70000000065CDCD4152
:101920000000000065CDCDC11D1B0108211B010871
:10193000FFFFEF7F181B0108141B0108C0160108E8
:101940000000E03F000000002DE9F04F2DED088B76
:101950008DB01D46DDE920B39DED1E7B0793229BD4
:101960000A9208EE900AB0EE479AF0EE679A0C469B
:10197000069351EC170B53EC172BFFF7FBF880B1D4
:10198000CF4B51EC190B4FF0FF32FFF71BF940B969
:1019900051EC190B4FF0FF326FF48013FFF7F4F89E
:1019A00090B1069B2293079B0A9A18EE900ACDE904
:1019B00020B321462B468DED1E9B0DB0BDEC088B50
:1019C000BDE8F04FFFF728BE51EC190B00220023B1
:1019D000FFF7DAF8002800F04E8119EE903A19EE80
:1019E000108A03F10049069B9FEDB67A9FEDB68AF7
:1019F00013F480630B93C9F30A53A3F2FF3307EE8A
:101A0000903AC9F31302F8EEE77A42F07F51AF4BF8
:101A10004FF00002404641F4401108BF4FF0060B62
:101A2000A7EE878AFEF786FC9FA3D3E90023FEF783
:101A300039FE064618EE100A0F46FEF7DBFD024699
:101A40000B4630463946FEF777FCFFF7DBF807EE2A
:101A5000900AB8EEE77ADFED9E7AB6EE008AA7EE3E
:101A6000278A8246DFED9B7ABDEEC88AF8EEC86A07
:101A700067EEE67ADFED986AE7EE267A17EE900ACF
:101A8000FEF7B8FD02460B4606460F46FEF70AFE75
:101A9000324641EC1A0B3B4630463946FEF74CFCC9
:101AA0008E4B41EC1B0B002251EC1A0BFEF724FF6E
:101AB0008B4B0022FEF740FC02460B4651EC1A0B02
:101AC000FEF71AFF874B0022FEF736FC02460B4654
:101AD00051EC1A0BFEF710FF324641EC1A0B3B4655
:101AE00000204FF08041FEF725FC02460B4651ECEA
:101AF0001A0BFEF721FC02460B4651EC1B0BFEF7BE
:101B0000FBFE794B0022FEF717FC18EE103A03F2A9
:101B1000FF3633050022FEF7C5FD06460F46024696
:101B20000B4640464946FFF72FF8002840F0A680B4
:101B3000CDE908670AF16303C72B069B34BF04266F
:101B40000526190523D55AA3D3E900234046494663
:101B5000FFF72EF8002800F09C8057A3D3E900235C
:101B600040464946FFF710F8002800F09280069B97
:101B7000DA45B8BFABEB0A0B43F480634FF00006C5
:101B8000B4BF0BF1FF3B4FF0000B0693B246079B2F
:101B9000B34288BF9F1B069B98BF002713F0020328
:101BA0000B9302D0002E18BF0027BAF1000F07D008
:101BB00040464946DDE90823FEF79EFE80468946F9
:101BC00051EC190B00220023FEF7DEFF10B109F1E2
:101BD00000439946069B0A9ACDF808B023F40063A7
:101BE000CDE90373CDE9008918EE900A2B46214612
:101BF000FFF712FD0746002E37D0069B13F0200F8B
:101C000000F10109024618EE907A14BF45206520C4
:101C10002B462146B8470523059300220A238AEA6A
:101C2000EA70CDE90232A0EBEA704FEADA73013EC6
:101C3000019300902B4618EE900A04964A462146DE
:101C4000FFF74CFC0B9B07467BB10A9BA0EB0309FB
:101C5000C8460A9B03EB0802079B434546D80799F1
:101C60000A9B0B44494528BF1F4638460DB0BDECC2
:101C7000088BBDE8F08F59EC198BB4E6184B0022A5
:101C800030463946FEF738FE0AF1FF3ACDE9080141
:101C900050E7BBF1000F3FF47AAF0B9B002B3FF4F2
:101CA00076AF0BF1FF3B72E700000060A787D23FE1
:101CB000000000E0E2361A3F0000000080842E4160
:101CC000FFFFEF7F9B209A3E4451343E0000F83FD7
:101CD000789A54401872313F8E5D134000002C40BA
:101CE00000002440000018400000F03F18EE906A09
:101CF0002B4621462020B04708F10108A9E700BF84
:101D00002DE9F04F91B000290A93C74B1A9E9046D7
:101D100014BF8146994600250A9B187858B9454555
:101D20002CBF08F1FF322A4643460020C847284608
:101D300011B0BDE8F08F0A9B252803F101030A9337
:101D400006D02A466C1C43460B91C8472546B7E18E
:101D5000002206E02D2B14D0302B0CD142F00102D2
:101D60000A900A9810F8013B2B2B0DD0F2D8202BAB
:101D70000DD0232B0ED0A3F13004092C28D8002736
:101D800010E042F00202EBE742F00402E8E742F022
:101D90000802E5E742F01002E2E70A2404FB0737F5
:101DA000303F0A900A9810F8013BA3F13004092C47
:101DB000F3D90A9B1B782E2B67D10A9B581C5B78A2
:101DC000A3F13004092C42F4806255D8002411E0BC
:101DD0002A2B08D156F8047B0A90002FBCBF42F092
:101DE00002027F42E5E70027E3E70A2000FB043414
:101DF000303C604684461CF8013BA3F1300EBEF136
:101E0000090FF2D9034613F801CBBCF16C0F48D08F
:101E10003ED8BCF1680F4DD0BCF16A0F55D00346D7
:101E200013F8010B0A9378288BD8572850D84528E7
:101E300005D086D9462800F03081472881D100F0AE
:101E4000DF03472B04BF00F0FD0042F40062452889
:101E500008BF42F02002CDE90372073626F00706DC
:101E60000294F6E802234846CDE9002343462A4679
:101E70000B91FFF769FD22E12A2B07D156F8044B9D
:101E80000A9824EAE4740230BCE70A980024B9E70F
:101E9000BCF1740F02D0BCF17A0FC0D142F4807251
:101EA000BEE790F801C0BCF16C0FF7D142F440726C
:101EB000831CB5E790F801C0BCF1680F02D042F076
:101EC0008002ADE742F0C002F2E742F40072A7E7F9
:101ED000A0F15803202B3FF634AF0FF2080C5CF84A
:101EE00023F000BF691F0008431D0008431D0008C0
:101EF000431D0008431D0008431D0008431D000842
:101F0000431D0008431D0008431D0008691F000809
:101F1000C5200008691F00083F1E00089F20000818
:101F20003F1E0008431D0008691F0008431D0008EC
:101F3000431D0008431D0008431D0008431D000801
:101F4000691F000815220008431D0008431D0008F2
:101F500041210008431D0008691F0008431D0008B7
:101F6000431D0008691F0008782800F0698158287F
:101F700000F064816F2800F06581622800F06481C0
:101F8000692822F010024FF00A0303D0642801D020
:101F900022F00C0212F4806F18BF22F001026928AF
:101FA00002F4007C01D0642844D1BCF1000F23D09E
:101FB000073626F00700824640685AF8086B0493FB
:101FC00000230593C30F0293002E034673F1000014
:101FD000CDE907720694324602DA724263EB43039C
:101FE000CDE90023484643462A460B91FFF7B7FA4E
:101FF0000B99054656468FE6D00506F1040A0CD526
:102000003068CDE90472CDE9023400284FEAD0737C
:102010000193B8BF4042009028E012F0400F3068B2
:1020200004D0C0B2EDE700BF3B130008160648BF5E
:1020300000B2E6E7BCF1000F0CD0CDE90772002238
:10204000CDE90432073626F0070A06940292FAE830
:102050000223C5E7D00506F1040A0ED5CDE90472C6
:10206000CDE90234CDF804C03368009343462A46D4
:1020700048460B91FFF732FABAE712F0400F30688A
:1020800007D0C0B2CDE902340023CDE90472019338
:10209000C1E7160648BF80B2F4E742F02002CDE95E
:1020A0000372073626F007060294F6E80223484634
:1020B000CDE9002343462A460B91FFF7ADFA0546CA
:1020C0000B9929E612F0020426D04FF0010A56F8C7
:1020D000040B0B9143462A46C0B2C84705F1010BD9
:1020E0000B995CB354465A4620E00B91434620209E
:1020F000C8470B990AEB05020AF1010A5745F4D8C3
:10210000002F07F1FF3308BF002307F1010A1D4428
:1021100008BF4FF0020ADAE7A246EBE70B9143460D
:102120002020551CC8470B9901342A46BC42F5D3E0
:10213000A7EB0A03574538BF00239B445D46EBE5F8
:10214000334653F8046B0B93404B002E08BF1E46DA
:10215000002C14BF23464FF0FF333344B3469BF8A3
:10216000000008B19B4511D112F48063ABEB060B64
:102170000C9302D0A34528BFA34612F002030D938F
:102180001CD1ABEB05032A460E930AE00BF1010BC1
:10219000E5E70F914346202002F1010AC8470F9955
:1021A00052460E9B1344BB42F3D3A7EB0B035F4590
:1021B00038BF00230BF1010B1D449B44A5EB060A1D
:1021C00005E01C460E9143462A46C8470E990AEB85
:1021D000060516F8010B28B10C9B002BF2D0631EEC
:1021E000002CEED10D9B9BB12A46ABEB050406E01B
:1021F0000C9143462020561CC8470C9932461319AF
:10220000BB42F5D3A7EB0B035F4538BF00231D444A
:102210000B9E81E542F021020823CDE9034305929C
:1022200000231022CDE9013256F8043B00932A46E0
:10223000434648460B91FFF751F940E742F0200230
:102240001023A5E60823A3E60223A1E6261B010826
:102250000FB41FB506AA02A952F8043B03920092DC
:1022600004484FF0FF32FFF74BFD05B05DF804EB7B
:1022700004B07047051600080EB40FB505AA014654
:1022800052F8043B0392009204484FF0FF32FFF7EC
:1022900037FD04B05DF804EB03B07047331300085A
:1022A00008B5012000F0C4F90B4B984213D90B4A32
:1022B0000133B0FBF3F31370094A4FF47A73B0FBA8
:1022C000F3F0084B0138E021586082F82310002217
:1022D0009A6007221A6008BD3F420F00640A00207E
:1022E00000ED00E010E000E030B5094B09491B7833
:1022F0004D6863B18A685843002314468A68944243
:10230000FBD098BF5B1923449B1A8342F5D330BDA1
:10231000640A002010E000E04FF47A735843FFF79E
:10232000E3BF0000012310B58B40062A00F2828033
:10233000DFE802F0040F1B293849630002681A43E2
:10234000026082681A438260C26822EA0303C360A3
:1023500038E002681A43026082681A438260C268E9
:102360001A43C260026913430BE002681A43026019
:1023700082681A438260C2681A43C260026922EA14
:10238000030303611EE0026822EA0302026082681E
:1023900022EA03028260426822EA03024260826902
:1023A00013430EE0026822EA03020260826822EA16
:1023B00003028260426822EA03024260826922EAE2
:1023C0000303836110BD1F4CA0426FEA03020BD1CF
:1023D000072909D981691140816181680A408260B9
:1023E00002681A430260BDE701681140016081681C
:1023F0000A40826042681A43D0E7124CA0426FEA5A
:1024000003020AD1072908D98169114081618168D5
:102410001140816001680A40E4E7016811400160F1
:1024200081681140816041680B43436083691A40B1
:102430008261C7E702681A430260826822EA0302E7
:1024400081E700BF00FC014010B52B4C0123A042E6
:1024500003FA01F346D1072944D98169194219D1F8
:102460008168194216D10168194213D001691942D5
:1024700010D072B9826922EA03028261826822EA7C
:1024800003028260026822EA0302026002691343C7
:10249000036110BD18498869184219D1886818422B
:1024A00016D10868184213D10869184210D0002AC2
:1024B000EFD08A6922EA03028A618A6822EA03026B
:1024C0008A600A681A430A600A6913430B61E0E7ED
:1024D00009491AB10A6A13430B62DAE7CA6913435E
:1024E000CB61D6E71AB1026A13430362D1E7C2692E
:1024F0001343C361CDE700BF00FC014042690123E3
:1025000003FA01F1114214BF184600207047000081
:10251000072910B510D90D4B083998420BBF01EBB4
:102520004101890007230F238B408A40C16B21EAB8
:1025300003031A43C26310BD836B89000F248C40D0
:1025400023EA04038A401A438263F4E700FC014053
:10255000274B1B6810B59C0706D1264A536823F405
:10256000700343F480135360234A136943F0040358
:102570001361204B1A6881B122F0200202281A60F0
:102580000ED81A6822F003021043186000292BD0DD
:102590001A4B04225A6030BF10BD42F02002EDE712
:1025A000174B1A6892060AD5164C174A9C619A6115
:1025B0001A6822F020021A6000229C619A61134A74
:1025C00013685C045CBF43F480431360094B1A68D2
:1025D00042F003021A605A6803280CBF42F080726E
:1025E00022F080725A60D1E740BF20BF20BFD3E7FE
:1025F000102000100018004000ED00E000E100E0B5
:1026000000000240BFAE9D8C1615141330800040B0
:102610000121FFF79DBF0000044A136818B143F081
:1026200080031360704723F08003FAE70C800040BA
:102630004FF0804301461A6802F4E042B2F5A04F21
:1026400020D015D8B2F5805F1ED0B2F5005F1B48D0
:1026500008BF4FF4004002291BD0032923D00129D1
:1026600005D14FF080431B68C3F30323D840704764
:10267000B2F5C04F0BD0114B1148B2F5E04F18BF67
:102680001846E8E70F48E6E74FF4FA40E3E70E485C
:10269000E1E74FF080421368C3F30323D840136887
:1026A000C3F34213E2E74FF080421368C3F30323FE
:1026B000D8401368C3F3C233D8E700BF00366E01B9
:1026C000006CDC020048E80100093D004FF0804347
:1026D000DA6A910406D5DA6822F48072DA60DA6A7E
:1026E0009204FCD44FF08042936823F060031843B7
:1026F000906070474FF08043986800F4C030704796
:102700004FF08043986800F4C04070474FF080431A
:10271000986800F4C05070474FF08043986800F408
:10272000C06070474FF08043586800F00200704767
:1027300041284AD8DFE810F011020702FD01E40148
:10274000D201B901710167015D01530149013F01E6
:1027500035010D010301D600EA00E000CC0049007C
:10276000C200B800AE00A30099008F0085006B0086
:10277000610057004D004200170121012B01490063
:102780004900490049004900490049004900490001
:1027900049004900490049002E0225021B02380267
:1027A0009501490049004900490049004900490094
:1027B000490049004900490042024C024FF0804361
:1027C000DA6819B142F48012DA60704722F480129C
:1027D000FAE74FF08043DA6811B142F40022F3E7E0
:1027E00022F40022F0E74FF08043DA6811B142F49E
:1027F0008022E9E722F48022E6E74FF08043DA689E
:1028000011B142F40032DFE722F40032DCE74FF08E
:102810008043DA6879B142F48032DA604FF0804365
:102820009A6A02F03F023F2AFAD15A6931B142F066
:1028300004025A61704722F48032EEE722F004026B
:10284000F7E74FF08043DA6811B142F40042BBE78A
:1028500022F40042B8E74FF08043DA6811B142F445
:102860008042B1E722F48042AEE74FF08043DA685D
:1028700011B142F40052A7E722F40052A4E74FF04E
:1028800080431A6919B142F020021A61704722F0A0
:102890002002FAE74FF08043DA6811B142F4805227
:1028A00092E722F480528FE74FF08043DA6811B14B
:1028B00042F4006288E722F4006285E74FF080432B
:1028C000DA6811B142F480627EE722F480627BE72D
:1028D0004FF08043DA6811B142F4807274E722F459
:1028E000807271E74FF08043DA6811B142F0200244
:1028F0006AE722F0200267E74FF08043DA6811B1FF
:1029000042F0800260E722F080025DE74FF08043F2
:10291000DA6871B142F04002DA604FF080439A6A9F
:1029200002F03F023F2AFAD15A6929B142F0080267
:102930007FE722F04002EFE722F0080279E74FF04C
:102940008043DA6811B142F010023DE722F0100234
:102950003AE74FF08043DA6811B142F0007233E792
:1029600022F0007230E74FF08043DA6811B142F094
:10297000807229E722F0807226E74FF08043DA6800
:1029800011B142F400021FE722F400021CE74FF0ED
:102990008043DA6811B142F4800215E722F4800224
:1029A00012E74FF08043DA6811B142F008020BE7FA
:1029B00022F0080208E74FF08043DA6811B142F0D4
:1029C000040201E722F00402FEE64FF08043DA68D9
:1029D00011B142F00202F7E622F00202F4E64FF0F3
:1029E0008043DA6811B142F00102EDE622F0010203
:1029F000EAE64FF08043DA6811B142F00062E3E6A4
:102A000022F00062E0E64FF08043DA6811B142F054
:102A10008062D9E622F08062D6E64FF080431A69E0
:102A200079B142F400721A619A6A02F03F023F2AB9
:102A3000FAD15A6942F010025A611A6942F0100242
:102A400023E722F010021A619A6A02F03F023F2A3D
:102A5000FAD15A6922F010025A611A6922F40072FE
:102A600013E74FF080431A6979B142F480521A613A
:102A70009A6A02F03F023F2AFAD15A6942F02002D4
:102A80005A611A6942F40062FFE622F400621A6198
:102A90009A6A02F03F023F2AFAD15A6922F02002D4
:102AA0005A611A6922F48052EFE64FF080431A69A6
:102AB00071B142F008021A614FF080439A6A02F045
:102AC0003F023F2AFAD15A6929B142F00102B0E629
:102AD00022F00802EFE722F00102AAE64FF080435D
:102AE0001A6931B142F004021A611A6942F04002D7
:102AF000CBE622F004021A611A6922F04002C4E611
:102B00004FF080431A6971B142F002021A614FF02E
:102B100080439A6A02F03F023F2AFAD15A6929B1EA
:102B200042F0020285E622F00202EFE722F0020202
:102B30007FE64FF08043DA6811B142F0805243E6FD
:102B400022F0805240E64FF080431A6911B142F002
:102B500001029AE622F0010297E64FF080431A69DB
:102B600011B142F0800290E622F080028DE64FF033
:102B700080431A6911B142F4807286E622F48072B1
:102B800083E64FF08043DA6809B11A431CE622F06D
:102B9000804219E64FF08043DA6811B142F00052EA
:102BA00012E622F000520FE64FF080431A6911B18D
:102BB00042F4806269E622F4806266E64FF0804368
:102BC000DA6811B142F40012FEE522F40012FBE5CE
:102BD0004FF08043DA6811B142F00042F4E522F090
:102BE0000042F1E510B50C4605280ED8DFE800F0EC
:102BF00003151F28335E364A3649136834B123F073
:102C0000200313608B685B07FCD510BD43F02003E5
:102C100013608B685C07FCD4F7E72F4A136819B17F
:102C200023F400431360F0E743F40043FAE72A4A31
:102C3000136811B123F4C043F4E743F4C043F1E750
:102C4000234A136823F0180311B143F00803E9E79E
:102C500043F01003E6E701210E20FFF769FD1F4B4B
:102C6000D3F80421CCB190060BD4D3F8042142F060
:102C70002002C3F80421D3F8042122F08002C3F813
:102C80000421164BD3F8042142F00402C3F80421B6
:102C9000D3F808219107FBD5B7E722F00402C3F867
:102CA0000421D3F808219207FBD4AEE7084A09496A
:102CB000136834B123F0400313608B68002BFCDAF7
:102CC000A3E743F0400313608B68002BFCDB9CE719
:102CD00018800040008200400880004000900040C2
:102CE0003F281ED82F280DD90123303803FA00F0D1
:102CF0004FF08043DA6911B91043D861704722EA76
:102D00000000FAE7A0F12003DBB2022B98BF0D20F0
:102D1000012303FA00F04FF080439A6911B9104380
:102D20009861704722EA0000FAE708B50021032005
:102D3000FFF7FEFC01210320FFF7D2FFBDE80840AA
:102D400000210320FFF7CCBF034940F6FF53CA6AB6
:102D500033EA0202FBD1704700E0004008B5FFF7FC
:102D6000F3FF054B1A6818B142F080521A6008BD93
:102D700022F08052FAE700BF00E0004008B5FFF7FC
:102D8000E3FF054B1A6818B142F080721A6008BD63
:102D900022F08072FAE700BF00E00040012808B589
:102DA0000AD8FFF7D1FF054B1A6801280CBF42F083
:102DB000007222F000721A6008BD00BF00E00040FF
:102DC000F8B5054600285FD031480346476BB9B2D5
:102DD0005E6C5A6CB242FBD19C6C9A6CA242FBD1E5
:102DE0005A6B92B29142F1D10029EFD0FFF79AFCD1
:102DF000BFB207EE907AB8EEE77AF6EE007A0028D6
:102E000043D1DFED246AC6F3021306F00F0203EB91
:102E1000830302EB4303EB71C6F3C223C6F3C31271
:102E200003EB830302EB4303AB71C6F3814303EB74
:102E30008303C6F3833606EB4306C4F3011304F0A1
:102E40000F0203EB830302EB43032B71C4F38023D4
:102E50009A001344C4F3831202EB4303E7EE267A8D
:102E6000EB70C4F3C223AB70C4F3834303EB83035F
:102E7000C4F38334FCEEE77A04EB430404F5FA640C
:102E8000C5ED027A6E712C80F8BDDFED036ABAE7FA
:102E900000E000400024F4410000FA41402810B551
:102EA0000C4608D0431EDBB21F2B09D8054A22FA74
:102EB00003F3DB0704D5FFF747FF0CB9024BD861DA
:102EC00010BD00BF8B80008000E00040402808B5A6
:102ED00008D0431EDBB21F2B0ED8084A22FA03F398
:102EE000DB0709D5FFF730FF054BDB6930EA030349
:102EF0000CBF0120002008BD0020FCE78B80008073
:102F000000E0004080280AD0402808D0431EDBB2F1
:102F10001F2B0DD8074A22FA03F3DB0708D5012936
:102F200006D8054B9A6A0CBF104322EA000098624B
:102F3000704700BF8B80008000E0004008B518B1EA
:102F4000FFF702FF014B986108BD00BF00E00040A1
:102F500030B1054BDA6A02601B6B4360002070479A
:102F60004FF0FF30704700BF0000024083699B06AE
:102F7000FCD4016070478369DB06FCD40068C0B2F2
:102F80007047836B1AB923EA0101816370471943C3
:102F9000FBE74FF4E13303606023838000238371F8
:102FA0004FF4401383607047036B19B143F0010382
:102FB0000363704723F00103FAE70000036B23F07B
:102FC000010370B50363C36A23F01003C3620023D7
:102FD0008363464B984204460D463ED1FFF78AFB79
:102FE000C00B0138022850D8414B53F820002B6801
:102FF000B0EB031F4FEA031175D36BB1B0FBF1F6D1
:1030000001FB1600C200B2FBF3F202F0010303EB76
:1030100052039BB243EA06431A0C03F03F03626279
:10302000A362E36A2A7923F060031343E362E36A4D
:10303000AA7923F008031343E362EB7A8BB3E36AC4
:1030400043F01003E3626B79012B2ED0022B42D0A8
:103050009BBBE36A23F002032EE0B0F1402F04D1C2
:10306000FFF74EFBC0F34F30BBE7224B984204D131
:10307000FFF74CFBC0F3CF20B3E71F4B98420ED1B4
:10308000FFF74AFBC0F34F20ABE7184B9C4202D03E
:10309000B4F1402F03D10220FFF7CAFAA7E70320BB
:1030A000FAE7E36A23F01003CCE7E36A43F0020394
:1030B000E362E36A23F00403E362236BAA7A23F05A
:1030C000300313432363236B2A8923F440431343C0
:1030D0002363002070BDE36A43F00203E362E36A06
:1030E00043F00403E8E74FF0FF30F3E7003000401F
:1030F00010170108000001400010014008B501212F
:103100000220FFF76FFD6020FFF7E0FA01210D209C
:10311000FFF70EFB01212020FFF70AFB01212120F0
:10312000FFF706FB01212220FFF702FB01214120CE
:10313000FFF7FEFA01210320FFF7FAFA0121002030
:10314000FFF7F6FA01210E20FFF7F2FA01211F2006
:10315000FFF7EEFA01211220FFF7EAFA012116200B
:10316000FFF7E6FA6420FFF7D7F8BDE80840012032
:10317000FFF752BA1FB50D480D4C01220021FFF791
:10318000C7F9012211460948FFF7C2F901A8FFF764
:1031900000FF4FF4E13301A920460193FFF70EFF32
:1031A00001212046FFF700FF04B010BD00F40140EC
:1031B0000030004010B59EB0FFF7A0FFFFF7DAFF28
:1031C00000F04CFD03F00EF95E485F4C0122102127
:1031D000FFF7D7FE5D4B402283F8062316A91A603D
:1031E00015A81AAA01F0FEFC59480290552001903A
:1031F000584B594A59490094012000F0EDFC1598AC
:103200000390574802905620CDE90040514B524A56
:103210005249012000F0E0FC9DF8670012909DF8F3
:10322000660011909DF8650010909DF864000F9065
:103230009DF863000E909DF862000D909DF861006E
:103240000C909DF860000B909DF85F000A909DF82F
:103250005E0009909DF85D0008909DF85C00079065
:103260009DF85B0006909DF85A0005909DF8590066
:1032700004909DF8580003903A4802905720CDE9F9
:103280000040344B344A3549012000F0A5FC9DF83C
:10329000770012909DF8760011909DF875001090BF
:1032A0009DF874000F909DF873000E909DF87200C9
:1032B0000D909DF871000C909DF870000B909DF89A
:1032C0006F000A909DF86E0009909DF86D000890BF
:1032D0009DF86C0007909DF86B0006909DF86A00C1
:1032E00005909DF8690004909DF8680003901E48C1
:1032F00002905B20CDE90040164B174A1749012088
:1033000000F06AFC194802906020124B124A1349DF
:10331000CDE90040012000F05FFC01F05BF901F015
:10332000C9F8134802906320CDE90040094B0A4ACE
:103330000A49012000F050FC00F078F900201EB08E
:1033400010BD00BF003000401C17010800E100E084
:10335000771B01082D1B0108621B01086B1B01086C
:10336000921B0108A01B0108EA1B0108341C01087C
:103370006D1C01087047FEE7FEE7FEE7FEE77047B9
:10338000704770477047000038B51348134CFFF77B
:10339000F2FD0A282378014616D0E2180133DBB289
:1033A000172B507023700AD92046002500F8015BC6
:1033B0001922294608F010FAA576E57638BDBDE851
:1033C00038400748FEF744BF0022E254013BE37651
:1033D0000123A3762270F1E700300040650A002047
:1033E000871C010802F01CBC03F022B9014B01222A
:1033F0001A707047000000200020704730B5057833
:103400008BB085B940781A4B1A4C88B91A4A029287
:103410004FF4DE72CDE900321849194B194A00F019
:10342000DBFB02232370184B01221A700BB030BD56
:10343000164A02924FF4E272CDE900320F49104B66
:10344000104A284600F0C8FB114B06930833621C53
:10345000089305A808238DF824308DF8145007929E
:1034600005F06EFD00280CBF04230323DAE700BF3C
:1034700021170108840A0020971C01086B1B010812
:103480008A1C0108621B0108000000209E1C010824
:103490000100002030B5134C89B004F10C0001F09C
:1034A000BFFC012568468DF8005005F0B7FA30B929
:1034B0009DF804302BB1022323700B4B1D7009B013
:1034C00030BD8DF80C30094B0493621C083303A8FF
:1034D0000693059205F034FD00280CBF0423032356
:1034E0002370ECE7840A0020000000200100002087
:1034F0000378042B01D1FFF7CDBF7047F0B54378B7
:1035000087B00446002B78D10379059390F91030E9
:103510000493B0F90E300393394B0293394E3A4A73
:103520003A49009640F2651301930120384B00F0B0
:1035300053FB6379012B01D1FFF7ACFF637B002BB9
:1035400036D0344B029340F28F13CDE900632E4AFC
:103550002F4B2E49304F012000F03EFB0025237BEE
:103560009D423CDB2D4D2E48FEF772FE63692A6AB0
:1035700093421DD9A7682B6205F12400BB787A78A5
:103580003978039005F1250C26480290CDF804C047
:10359000FF780097043800F089FA002185F835009B
:1035A00005F10C0001F06CFC05F10C0001F0C8FB0A
:1035B0001D4B02934FF4D373CDE90063124A144BB1
:1035C0001249154E012000F007FB0025237B9D4288
:1035D0000CDB134807B0BDE8F040FEF739BEA36826
:1035E0003846595DFEF734FE0135B8E7A36830462A
:1035F000595DFEF72DFE0135E8E707B0F0BD00BFCD
:10360000AA1C01082D170108621B01086B1B010889
:103610008A1C0108DB1C0108EC1C0108840A00203C
:10362000211D010820000020E11C010880B5604C2C
:10363000604D614F0023B8B0237000262378042B1F
:1036400000F2D981DFE813F0050042007700BA01EB
:10365000D1015A4B2B935A4B2C935A4B2D935A4BC7
:103660002E930222594B239323A92BA804F0EEFF9B
:103670005749584801F05CFB4FF00108022325A888
:103680008DF894308DF8988005F0B2FA072325A8BC
:103690008DF894308DF8988005F0AAFAFF22002367
:1036A000CDE92F2331930D238DF8A03028A82FAB1F
:1036B000299305F09DFA0C222FAB28A88DF8A020A5
:1036C000299305F095FA84F80080B7E7DFF81C81AC
:1036D00008F110094246494608F1230001F082FA38
:1036E00003238DF8943025A80023269305F080FA53
:1036F00004238DF8943025A86B6C269305F078FA96
:10370000052325A88DF89430CDF8989005F070FA2F
:10371000062325A88DF89430CDF8988005F068FA36
:10372000012325A88DF894308DF8983005F060FAC3
:103730000223237082E72B7863B394F824300DF1D1
:10374000BC08002B54D0002384F8243095F82000C6
:1037500028A905F0F5F8002800F01F8100238DF856
:10376000BC303193ADF8C8308DF8CA30404605F012
:10377000F3FC194B0293003840F2722318BF01206A
:103780000193164B28700093154A164B16490020DA
:1037900000F022FA94F8350038B94FF47A7103F04A
:1037A0000BF900F5EA403030E8610323C1E700BFC0
:1037B000840A00200000002000002440ED330008AF
:1037C000FD340008FD330008F1340008F933000827
:1037D00095340008900A00209E1D01084B1701082F
:1037E000621B01088A1C01086B1B010821000020D4
:1037F000102285F820200F228DF8572084F82530DC
:103800001CAA1EAB1AA918A800F01EFC1CAA1AA913
:1038100018A800F0C1FC17A916A800F00DFF00F0D1
:1038200075FE28A908EE100A20A800F0CFFFDFF8E7
:103830000892002800F09E80704B0293C823CDE9C7
:1038400000936F4A6F4B7049032000F0C5F9DDE922
:103850001801FDF7D7F96D4902464046FEF70CFD09
:10386000DDE91A01FDF7CEF96849024630A8FEF7F6
:1038700003FDDDE91C01FDF7C5F96449024631A8E5
:10388000FEF7FAFC169A614932A8FEF7F5FC3B46B2
:103890003246DDE92001FCF705FFFDF7B3F95B498E
:1038A000024633A8FEF7E8FC3B463246DDE9280134
:1038B000FCF7F8FEFDF7A6F95449024634A8FEF7D6
:1038C000DBFCDFED537A534928EE278A35A8FCEE5E
:1038D000C87A17EE902AFEF7CFFCD123CDE90093EA
:1038E000474A484B4849CDF80880002000F074F959
:1038F0000DF157024849404600F0A0F894F83430E2
:10390000129394F83330119394F83230109394F862
:1039100031300F9394F830300E9394F82F300D938C
:1039200094F82E300C9394F82D300B9394F82C309F
:103930000A9394F82B30099394F82A30089394F85A
:103940002930079394F82830069394F8273005938C
:1039500094F82630049394F8253003932F4B029368
:10396000D323CDE90093264A264B2749002000F0B7
:1039700033F9EBE6DDE92823CDE90623DDE9202351
:10398000CDE90423264B0293C923CDE900931C4AB9
:103990001C4B1D4900F020F959E701238DF8BC307C
:1039A00002238DF8C0301F4B319395F82030ADF8CD
:1039B000C8304FF40063ADF8CA30D7E6E9691A4859
:1039C0000423237001F05CFA174801F0B9F9174B92
:1039D000029340F282230193154B0093084A094B4E
:1039E0000949002000F0F8F828E601F07DFA114BB3
:1039F0001B6E984722E600239BE600BFF41C0108DB
:103A0000621B01088A1C01086B1B0108241D0108A8
:103A10000000C842291D0108AA0A00202E1D010825
:103A2000021D0108A90A0020900A0020A31D010818
:103A30004B170108341A01083C170108F8B5054670
:103A40000F461646FDF75CFB00244210691CA2429B
:103A500010D110F0010009D015F81430A3F13A028A
:103A60002C2A94BF373B303BDBB23B55204406B198
:103A70003070F8BD15F81430A3F13A0CBCF12C0FDE
:103A800094BF373B303B5FFA83FC11F81430A3F14D
:103A90003A0EBEF12C0F94BF373B303BDBB203F044
:103AA0000F0343EA0C133B550134D0E7F0B585B062
:103AB0001E299DF828400B9F05460E465FD1FF2A20
:103AC0003AD12340FF2B5AD1036803932D4B029325
:103AD000172301932C4B2D4A2D49009301202D4B88
:103AE000102400F079F822460021384607F074FED1
:103AF0003E703C2228684FF47A71B0FBF1F0B0FBC5
:103B0000F2F602FB1600B8714FF461602B68B3FB4C
:103B1000F1F1B1FBF0F300FB1313B3FBF2F33B71D4
:103B20002B681D4AB3FBF2F3BB700C9B1C700D9B02
:103B30000120187005B0F0BD1AB923B92CB9204680
:103B4000F8E7172A1BD83B2B19D83B2C17D84FF472
:103B50007A7060434EF6602404FB03030E4C0C495C
:103B600004FB02332B6003930C4B02932B23019332
:103B7000054B0093054A074B012000F02DF801206A
:103B8000D8E700BFD11D010855170108C81D01085D
:103B90006B1B0108AB1D010880EE3600DE1D01081D
:103BA00050B101280AD002280AD0064B064A032841
:103BB0000CBF1846104670470448704704487047C9
:103BC00004487047EF1D0108001E0108FA1D010896
:103BD000F51D0108EA1D01082DE9F04F87B004AF7B
:103BE0000D46D7F838A0002104461646084652462E
:103BF000984607F13C037B6007F076FE00F101096F
:103C0000083020F00700ADEB000D0DF1100B4A4617
:103C10000021584607F0E0FD7B6852464946584669
:103C200007F062FE002C0FDD2046FFF7B9FF7B6B2B
:103C300002933B6BCDF80CB0CDE9008301463346CF
:103C400003482A46FEF704FB0C37BD46BDE8F08F5B
:103C5000081E01080420FEF747BB000008B501213B
:103C60000D20FEF765FD064803220B21FEF75AFBE7
:103C7000BDE80840024803220821FEF753BB00BFFD
:103C800000F0014008B50F4803220B21FEF74AFB64
:103C90000C4801220821FEF7D7FB0A4801220B211C
:103CA000FEF7D2FBFFF7D6FF064800220B21FEF7F6
:103CB000CBFBFFF7CFFFBDE80840024800220821F8
:103CC000FEF7C2BB00F0014008B5104803220B21EB
:103CD000FEF728FB0D4800220821FEF7B5FB0B4834
:103CE00000220B21FEF7B0FBFFF7B4FF07480122CB
:103CF0000821FEF7A9FBFFF7ADFF044801220B21C5
:103D0000FEF7A2FBBDE80840FFF7A4BF00F00140AA
:103D100030B51B4885B001220B21FEF703FB184884
:103D200001220B21FEF790FBFFF794FF14480122BC
:103D30000821FEF789FBFFF78DFFFB2510480B21BB
:103D4000FEF7DCFB044628B9024608210C48FEF7C2
:103D50007BFB12E0013D15F0FF05EFD1FFF7B4FF4B
:103D6000084B02933D230193074B0093074A084BEE
:103D700008490320FFF730FF0124204605B030BD7D
:103D800000F001402F1E010877170108C81D010827
:103D9000251E01086B1B010808B50F4800220821E9
:103DA000FEF752FB0C4803220B21FEF7BBFA0A4830
:103DB00000220B21FEF748FBFFF74CFF06480122CB
:103DC0000821FEF741FBFFF745FFBDE80840024828
:103DD00000220821FEF738BB00F0014008B50F486B
:103DE00000220821FEF730FB0C4803220B21FEF7CE
:103DF00099FA0A4801220B21FEF726FBFFF72AFF5A
:103E0000064801220821FEF71FFBFFF723FFBDE84C
:103E10000840024800220821FEF716BB00F00140CE
:103E200070B5032204460B211048104EFEF77AFAB3
:103E30000825E20908BF00220B213046FEF704FBEB
:103E4000012208213046FEF7FFFA013DFFF702FF8D
:103E5000002208213046FEF7F7FA6400FFF7FAFE69
:103E600015F0FF05E4B2E4D170BD00BF00F00140E1
:103E7000F8B5012206460B211448144FFEF752FAFA
:103E800008250024002208213846FEF7DDFAFFF756
:103E9000E1FE082138460122FEF7D6FA64000B2124
:103EA0003846E4B2FEF72AFB08B10134E4B2013D22
:103EB000FFF7D0FE15F0FF05E4D11EB9FFF78EFF26
:103EC0002046F8BDFFF768FFFAE700BF00F00140A9
:103ED0002DE9F04186B04FF4C873ADF814308DF879
:103EE00016008DF81710FFF7CDFE104E104FDFF8BB
:103EF0004C8005AD042415F8010BFFF791FFFFF787
:103F000007FF48B11423CDE900730A4A0A49029613
:103F100043460320FFF760FE013C14F0FF04EAD1A2
:103F2000FFF7D2FE204606B0BDE8F0814C1E010826
:103F300083170108C81D01086B1B01083E1E0108FC
:103F400010B586B0FFF79EFE9020FFF769FFFFF7E0
:103F5000DFFE58B1224B029325230193214B00939E
:103F6000214A224B22490320FFF736FE0020FFF7AB
:103F700057FFFFF7CDFE58B1194B02932A23019347
:103F8000184B0093184A194B19490320FFF724FED8
:103F9000FFF79AFEFFF776FE9120FFF741FFFFF74C
:103FA000B7FE58B10E4B0293332301930D4B009390
:103FB0000D4A0E4B0E490320FFF70EFE0120FFF7BE
:103FC00057FF000200F47F440120FFF751FF204318
:103FD00080B20590FFF778FE059806B010BD00BFCF
:103FE0005D1E010891170108C81D01083E1E010849
:103FF0006B1B01081FB5FFF76BFF4FF4FA70FEF75C
:104000008BF9FFF79DFFA0F5FF437F3B9BB2012B90
:1040100004460BD8074B029346230193064B0093AB
:10402000064A074B07490020FFF7D6FD204604B09B
:1040300010BD00BF6E1E0108A3170108C81D0108AE
:104040003E1E01086B1B01082DE9F04F2DED048B7E
:104050008FB007468846C1208321144683250D93DF
:10406000FFF7C8FFC123CDE90335DFF820B1DFF842
:1040700020A1DFF82091424B424E02935323524637
:1040800008EE100A019349465B4600960020FFF7B0
:10409000A3FD2946D120FFF7ADFF294608EE900A7F
:1040A000E120FFF7A7FF294609EE100AF120FFF7EC
:1040B000A1FF054618EE100AFCF77AFA2CA3D3E903
:1040C0000023FCF7EFFA2CA3D3E90023FCF714FC40
:1040D000C7E9000118EE900AFCF76AFA24A3D3E9B5
:1040E0000023FCF7DFFA24A3D3E90023FCF704FC48
:1040F000C8E9000119EE100AFCF75AFA1CA3D3E92B
:104100000023FCF7CFFA1CA3D3E90023FCF7F4FB50
:10411000C4E900012846FCF74BFA15A3D3E90023B4
:10412000FCF7C0FA14A3D3E90023FCF7E5FB0D9BD1
:10413000C3E90001D4E90023CDE90823D8E900232D
:10414000CDE90623D7E90023CDE904230E4B0293E2
:104150006123CDE90A01CDE9006352465B46494639
:104160000020FFF739FD0FB0BDEC048BBDE8F08FE8
:1041700000000000007067400000000080842E41B5
:104180007F1E0108A9170108851E01083E1E0108AF
:10419000C81D01086B1B01082DE9F04F2DED068BA2
:1041A000D0E900AB8DB092ED007BD1E90089B0EE93
:1041B00047AAF0EE67AA04460D460B92B44B0022C4
:1041C0005046594606F04EFBB24B06460F460022BB
:1041D0005046594606F046FBAF4B41EC180B002207
:1041E0005046594606F03EFB87A3D3E9002341EC35
:1041F000190B30463946FCF755FA85A3D3E900235D
:1042000006460F4651EC180BFCF74CFA02460B46DB
:1042100030463946FCF78EF87FA3D3E900230646E3
:104220000F4651EC190BFCF73DFA02460B4630469F
:104230003946FCF781F8524606460F465B46504623
:104240005946FCF72FFA76A3D3E90023FCF72AFAA4
:1042500002460B4630463946FCF76CF872A3D3E9A8
:10426000002306460F4650465946FCF71BFA024605
:104270000B4630463946FCF75FF86DA3D3E90023BF
:10428000FCF758F8824BC4E9000100224046494639
:1042900006F0E8FA7F4B06460F46002240464946A4
:1042A00006F0E0FA7C4B41EC180B002240464946F0
:1042B00006F0D8FA60A3D3E9002382468B46304645
:1042C0003946FCF7EFF95EA3D3E9002306460F4613
:1042D00051EC180BFCF7E6F902460B46304639461E
:1042E000FCF728F858A3D3E9002306460F465046AA
:1042F0005946FCF7D7F902460B4630463946FCF7DB
:104300001BF8424606460F464B4640464946FCF7D8
:10431000C9F94FA3D3E90023FCF7C4F902460B46C1
:1043200030463946FCF706F84BA3D3E9002306468E
:104330000F4640464946FCF7B5F902460B46304663
:104340003946FBF7F9FF46A3D3E90023FBF7F2FF59
:1043500045A3D3E90023C5E9000151EC1A0BFBF793
:10436000EBFF4E4B0022FCF79DF9FCF74BFCFCF7F2
:104370002FF94A4B0022FCF7BFFA06460F460246C9
:104380000B4600204249FBF7D5FF32463B46FCF77F
:10439000B3FA37A3D3E90023FCF784F936A3D3E9B2
:1043A000002306460F46FCF7A7FA02460B463046A6
:1043B0003946FCF7A1FA32A3D3E9002306F052FAFA
:1043C00031A3D3E90023FCF76DF90B9BC3E900018E
:1043D000D5E90023CDE90623D4E90023CDE9042360
:1043E0002F4B0293742301932E4B0093CDE90801C8
:1043F0002D4B2E4A2E490020FFF7EEFB0DB0BDECF1
:10440000068BBDE8F08F00BF00000000D7AB7940FD
:1044100000000000003DA540000000A09967BB40DF
:1044200000000040F315C14000000040B397B440C5
:10443000000000C0CC3293400000000000247C400B
:10444000000000C0CCD2A740000000C04C98BF4084
:1044500000000000005BC440000000A0197CB940CF
:104460000000006066C8984000000040E17A743F98
:10447000000000C0CCCC1240DF81FD5D17D9144094
:10448000000000408D9700C000000040332F8340A3
:104490000000144000001040000008400000594097
:1044A000A71E0108B91701083E1E0108C81D010812
:1044B0006B1B01081FB5FFF7E5FB4620FFF7B0FCBB
:1044C000FFF726FC044678B10B4B029309230193B6
:1044D0000A4B00930A4A0B4B0B490320FFF77CFB66
:1044E0000124204604B010BD0120FFF799FCFFF71E
:1044F0000FFCFFF7E9FBF4E7E61E0108C617010809
:10450000C81D0108D91E01086B1B010830B587B012
:10451000FFF7B8FB4620FFF783FCFFF7F9FB072006
:10452000FFF77EFCFFF7F4FBFFF7CEFBFFF7AAFBDC
:104530004620FFF775FCFFF7EBFB1020FFF770FC40
:10454000FFF7E6FBFFF7C0FBC820FDF7E5FEFFF72E
:1045500099FB4720FFF764FCFFF7DAFB0120FFF728
:1045600087FC05460020FFF783FC0446FFF7ACFB01
:104570000520FDF7D1FE44EA052084B207EE904AFB
:104580009FED0E7AF8EE677AC7EE877A17EE900AFB
:1045900017EE904AFCF72EF8094B02933223019351
:1045A000084B0093CDE90401074B084A0849002055
:1045B000FFF712FB204607B030BD00BF9A99993F24
:1045C000F71E0108D3170108D91E0108C81D0108EC
:1045D0006B1B01081FB5FFF755FBB020FFF720FC50
:1045E000FFF796FB58B10F4B0293092301930E4B33
:1045F00000930E4A0E4B0F490320FFF7EDFA2020DF
:10460000FFF70EFCFFF784FB0320FFF709FCFFF721
:104610007FFBFFF759FB43F6982005B05DF804EBEC
:10462000FDF77ABE1D1F0108DE170108C81D01082D
:10463000111F01086B1B0108F0B587B00F46054636
:10464000FFF720FBB020FFF7EBFBFFF761FB2E4EDF
:1046500050B12E4B02931E23CDE900632C4A2D4B03
:104660002D490320FFF7B8FA2020FFF7D9FBFFF709
:104670004FFB0820FFF7D4FBFFF74AFBFFF724FBB3
:104680004FF47A70FDF748FEFFF7FCFAB120FFF710
:10469000C7FBFFF73DFB50B11C4B02932F23CDE925
:1046A00000631B4A1B4B1C490320FFF795FA0120AE
:1046B000FFF7DEFB04020120FFF7DAFB04430120D1
:1046C000FFF7D6FB0120FFF7D3FB240204430020B1
:1046D000FFF7CEFB24020443FFF7F6FA230CA4B243
:1046E0002B603C602B6803930C4B02933D23CDE978
:1046F0000063074A074B084904940020FFF76CFA4F
:10470000002007B0F0BD00BFE91701081D1F010818
:10471000C81D0108111F01086B1B01082D1F01088E
:1047200008B501210D20FEF703F8BDE80840024856
:1047300003220921FDF7F6BD00F0014008B5012173
:104740000D20FDF7F5FFBDE80840024800220921D1
:10475000FDF7E8BD00F001402DE9F0411A4F0826B1
:104760000024652502E00120FDF7BEFD0921384641
:10477000FDF7C4FE18B9013D15F0FF05F3D11E2069
:10478000FDF7B2FD09213846FDF7B8FE431ED3F10F
:10479000000848EB0308652509213846FDF7AEFE01
:1047A000012803D1013D15F0FF050AD16400013E47
:1047B000E4B216F0FF0648EA0404D2D12046BDE870
:1047C000F081FDF791FDE7E700F001402DE9F047AA
:1047D0008AB007460D46FFF7A3FF00220921504883
:1047E000FDF732FE1220FDF797FD012209214C480A
:1047F000FDF72AFE2820FDF777FDFFF79FFF142025
:10480000FDF772FD46480921FDF778FE04460028B1
:104810005CD09DF820A09DF821809DF822409DF855
:1048200023609DF824200AEB080323443344DBB2C1
:104830009A423C4B67D13C4A02925A22CDE900325F
:10484000CDE90546394B3A4A3A49CDE903A800205B
:10485000FFF7C2F94046FBF7ABFE374B0022FCF7EF
:104860004BF8804650468946FBF7B2FE02460B469F
:1048700040464946FBF760FDC7E900013046FBF7BB
:1048800097FE2D4B0022FCF737F8064620460F46D0
:10489000FBF79EFE02460B4630463946FBF74CFDC1
:1048A000C5E9000100200AB0BDE8F0870120FDF74E
:1048B0001BFD09214046FDF721FE18B9013E16F007
:1048C000FF06F3D1DFF85880652605E0DFF8508059
:1048D0006526EEE7FDF708FD09214046FDF70EFECF
:1048E000012803D1013E16F0FF06F3D108AEFFF711
:1048F00033FF0134E4B2052C06F8010BF7D1322066
:10490000FDF7F2FC85E70D4A02926122CDE9003203
:104910000320064B064A0749FFF75EF90120C2E76C
:1049200000F00140F3170108531F0108471F010859
:10493000C81D01086B1B010800002440771F0108F7
:104940002DE9F04F8DB0036C0193436C0293836C9F
:104950000393C36C0493036D0593436D0693836DBA
:104960000793C36D0893424B0B93089B0A93DDE9B1
:104970000434DDE9068EDDE90276019D09930146E6
:104980004FF00009B9F10F0F5CD84B780A781B047F
:1049900043EA0263CA7813438A7843EA02220B9BF4
:1049A0000A6753F804AB0B934FEAF42304EA080BAD
:1049B00083EAB4132EEA040C83EA74638CEA0B0CCA
:1049C0009C44D4440A9B62441A444FEA753C87EAEB
:1049D00006038CEAB50C2B4007EA060A83EA0A03B1
:1049E0008CEAB55C9C44099B09F101091344B9F1B7
:1049F000400FCDE9096E9B46624401F104011AD1D2
:104A0000019B13440364029B2B444364039B3B447C
:104A10008364049B3344C364059B5B440365069B2A
:104A200023444365079B43448365089B7344C365E4
:104A30000DB0BDE8F08FC6463E46A0462F465C4608
:104A400015469FE78B6ED1F834B04FEAF34C8CEAF1
:104A5000734C8CEA932C4B6D1A460B6B4FEABB4A96
:104A60001A448AEAFB1A94448AEADB02624496E713
:104A700000180108C8B10023C0E919330B4A0366C6
:104A80000B4B0C49DFF83CC0C0E910230A4BC0E9CE
:104A900012130A4BC0E914C3094B836503F1745325
:104AA000A3F52303A3F69243C365704767E6096A3B
:104AB00085AE67BB72F36E3C3AF54FA58C68059BDB
:104AC000ABD9831F7F520E5170B540B139B1836E9F
:104AD0003F2B04D80C468D180026AC4200D170BD87
:104AE000826E531C836614F8011B8154402BF4D151
:104AF000FFF726FF036E866613F5007F28BF426E20
:104B000003F5007324BF013242660366E5E710B582
:104B10000C4600283DD0826E02F03F038021C15434
:104B200001330021402B35D1372A36D8826E016EF1
:104B3000D3006FEAC20291423AD80B4403661BBA13
:104B4000C363436E1BBA8363FFF7FAFE0CB3611EA7
:104B50001822046C02F01F03DC4001F8014F446C82
:104B6000DC400C71846CDC400C72C46CDC400C7357
:104B7000046DDC400C74446DDC400C75846DDC40CD
:104B80000C76C46D083A24FA03F312F1080F0B7780
:104B9000DFD110BDC1540133C4E7FFF7D1FE0021BE
:104BA000431E00F13F0203F8011F9A42FBD1BDE70B
:104BB000426E01324266C0E770B5DCB00E46054673
:104BC00068461446FFF756FF324629466846FFF707
:104BD0007BFF21466846FFF79AFF5CB070BD10600E
:104BE000516070472DE9F04192B00026074606A8B3
:104BF0000D461446CDE90666FEF7AAF9079B049315
:104C0000069B0393254BDFF8A88002930723244AD1
:104C1000244901933046244BCDF80080FEF7DCFF99
:104C2000DDE9060108AAFFF7DAFF0AAA082108A8A9
:104C3000FFF7C2FF0A9B1A4A1A491BBA3B6003934B
:104C40001A4B02931723CDE900833046164BFEF72B
:104C5000C3FFDDE9061008AAFFF7C1FF0AAA082171
:104C600008A8FFF7A9FF0AAB0EAA1E4603CE96427C
:104C700028606960334605F10805F6D1134612AD88
:104C800022461C4603CCAC4210605160234602F120
:104C90000802F6D112B0BDE8F08100BF981F0108EC
:104CA000C81D01086B1B0108871F0108921B010822
:104CB0000A190108FDF730BB10B501F0FBFB0446F3
:104CC00001F08EFC064B1B68011B201A03B910BDB6
:104CD0001A688A428CBF121800221A601B69F5E715
:104CE000C00A0020054B1A680AB100211172186031
:104CF000012302610372006801F08CBBC00A00202E
:104D000073B502AB03E9030001F0DAFBBDF904203F
:104D1000009E064C4FF47A75D317E5FB0623101A54
:104D200063EB0101C4E9020102B070BDC00A0020BA
:104D30000023C0E90033C0E9031303727047000089
:104D400070B5044601F08DFC64B11A4D29680B461C
:104D500063B962682260237261B901F041FC2046A8
:104D6000FFF7C0FFBDE8704001F07DBC9C42F9D068
:104D70001B69EDE701F040FC22682B6802442260C9
:104D800019688A42064605D2FFF796FF2068801B05
:104D90002060E4E71969186910B91C612061E1E736
:104DA0000868824202D90B460969F4E71C61216157
:104DB000D8E700BFC00A0020D0B5FFF77DFF174A33
:104DC000136814462BB11969DB68116003B9FEE75B
:104DD0009847236823B9FFF76FFF23689BB9D0BDBD
:104DE0001E6801F009FC00278F4208BF864203D3EA
:104DF00023681B68002BEED123681A69DB682260E8
:104E0000002BE5D1FEE71A7A002AE8D10122BDE89D
:104E1000D04018681A7201F0FDBA00BFC00A002025
:104E200070B5164D044601F01CFC2B6803B11CB98B
:104E3000BDE8704001F017BCA34215D1237A266962
:104E400083B16EB1002323722E60FFF735FF2B680C
:104E5000012218681A7201F0DDFA00232372E7E7D5
:104E600001F01EFB2E60F8E71A461B69002BF4D0F8
:104E70009C42F9D123691361EFE700BFC00A00200B
:104E800038B504460D46FFF7CBFFC4E9005538BDE1
:104E900008B501F015FB034AD2E90232C01842EB13
:104EA000010108BDC00A002070B50446FFF7F0FFFD
:104EB0004FF47A72002306460D46FBF7EBFE2946B7
:104EC00020604FF47A7230460023FBF7E3FE204661
:104ED000A28070BD38B504460D46FFF7D9FF001B10
:104EE00061EB050138BD0000064A137C042B04D891
:104EF000137C0133DBB2137470470023137401F089
:104F000087BB00BFC00A002010B510220446002154
:104F1000043001F072FD0023236010BD0023084619
:104F20001A461021FBF70CB92DE9F0430746054658
:104F300057F8140B85B00E46144620B3C0F1100983
:104F40009145C84628BF90461FFA88F2384401F0C0
:104F500040FD2B6843440F2B2B601CD9A1451AD26E
:104F60002A1D134612F8011BD07BBA4281EA0001C8
:104F700002F8011CF6D1002210211846FBF768F94F
:104F80004644A4EB0804102C08D8A2B23146384697
:104F900001F01FFD2C6005B0BDE8F0832B1D711ED4
:104FA00098461A7811F8010F424003F8012BBB42D2
:104FB000F7D110224146684601F00BFD6B460022F6
:104FC00010216846FBF744F910226946404601F07B
:104FD00000FD1036103CD6E770B588B010220546AB
:104FE0000C466846002101F008FD6B4600221021A6
:104FF0006846FBF72DF99DF90030002B6A464FF00B
:10500000000140DA137812F8010F01315B0043EA26
:10501000D0130F2902F8013CF4D19DF80F305B004A
:1050200083F087038DF80F302368102B3AD104F1F9
:105030001403694604F124001A7811F8016B7240D8
:1050400003F8012B9842F7D1231D1946143413F8A5
:10505000012BD87B9C4282EA000203F8012CF6D196
:1050600010220DEB020001F0B4FC10212B460DEBD9
:1050700001000022FBF7ECF810220021684601F045
:10508000BCFC08B070BD137812F8010F01315B0051
:1050900043EAD0130F2902F8013CF4D19DF80F30F8
:1050A0005B00BFE79DF90020002A69464FF0000031
:1050B0002FDA0A7811F8016F0130520042EAD61255
:1050C0000F2801F8012CF4D19DF80F20520082F036
:1050D00087028DF80F20E2188021581C11750026D8
:1050E000014604F114020F2922D91028C3F10F033D
:1050F000214688BF0023034441F8243B68461346F9
:105100001A7810F8016B724003F8012B9942F7D11D
:105110009AE70A7811F8016F0130520042EAD6127C
:105120000F2801F8012CF4D19DF80F205200D0E790
:1051300056540131D7E7012070470000034B1B682C
:1051400013B15B6803B11847704700BFD40A002051
:10515000034B1B6813B1DB6803B11847704700BFEE
:10516000D40A0020002000F0EBBD000010B5134C65
:10517000206000F013FF002000F0E2FD012000F0AD
:105180008CFE0021084601F089F80421002000F07F
:1051900057FF0023194618461A4600F0CFFE08496B
:1051A0000848FFF7C5FD08490848FFF7C1FD084951
:1051B0000848FFF7BDFD0020207110BDD40A002073
:1051C0003D5100084C150020515100088816002060
:1051D000415300086016002008B500F033FDC31EDF
:1051E000DBB2022B9ABFC0F10600C0B2002008BD9E
:1051F00000F0EABE08B501F05EF800B208BD01F0AB
:1052000053BB01F01DBB000038B50C46002340F233
:1052100001211A460546084600F090FE00F00AFFFC
:105220000B4B01280A480CBFDC731C7200F0C2FF54
:1052300021462846002200F0AFFD064B064899683B
:10524000FFF71EFEBDE838400348FFF779BD00BFF9
:1052500010150020D40A00204C15002008B54FF08E
:10526000040000F05BFDBDE808400220FFF722BD0E
:1052700000F0CEBD37B5184B93F838500F2805F124
:105280000D05EDB222D8072822D8032822D80128FC
:1052900094BF0024012400234FF4C0711A4608462D
:1052A00000F04CFE002300930A222946204600F01D
:1052B000D7FF00F0C9FD09484FF4FA61FFF7E0FDA0
:1052C000064803B0BDE83040FFF73ABD0424E2E7EA
:1052D0000324E0E70224DEE710150020601600201A
:1052E00010B50C462DED028B08EE102A00F06CFE76
:1052F000204601F031FB00F0B3FDDFED0A7A0A48E9
:10530000B8EEC88A28EE278AFCEEC87A17EE901A03
:10531000FFF7B6FDBDEC028B0348BDE81040FFF778
:105320000FBD00BF00007A448816002001F064BA67
:1053300001F092BA08B501F0D3F9033008BD0000BE
:1053400010B5002000F084FC044B1B682BB19B6956
:105350001BB1BDE810400020184710BDD40A002042
:1053600010B590B10A4B012219461C68A04206D321
:105370009C68A04203D201EBC202107910BD013239
:10538000162A03F10803F0D1FEE71F20F6E700BF5D
:10539000181901080128074804D1074BC173197077
:1053A00000F008BFC379012B03D1034B01721970C0
:1053B000F6E770471015002048000020002340F257
:1053C000422110B51A460446084600F0B7FD34B134
:1053D00009482146FFF754FD0748FFF7B1FC074B8A
:1053E0001A7B2AB16FF07F40BDE8104000F0DEBCB0
:1053F00018698001F8E700BF88160020D40A002051
:105400000023022110B51A460446084600F096FD16
:1054100034B109482146FFF733FD0748FFF790FCF8
:10542000064B1A7B2AB16FF07F40BDE8104000F0B8
:10543000D3BC18698001F8E788160020D40A002040
:10544000F7B5504C2379002B00F08A804E4D01F0C7
:1054500008F90023237101F006F92B88D9070AD532
:105460004A48FFF7DDFC012000F0F2FB236813B18E
:105470001B6803B198472B889A0731D54448FFF73A
:10548000CFFC267B96B9012000F0E2FB314640F6C6
:10549000021001F0D5F940F6441001F005FA40F091
:1054A0000200C1B240F6441001F0CAF9394E3A4840
:1054B000FF220DF1070100F02FFF304600F046FFFC
:1054C00023686BB19F685FB12B885B0608D496F99F
:1054D0000D3096F90C209DF807102F481A44B84754
:1054E0002B88580609D5237B13B9012000F0B0FBA7
:1054F000236813B11B6903B198472B8819060DD592
:105500002648FFF78DFC012000F0A2FB23682BB199
:105510009B691BB12888C0F3002098472B889A0507
:105520000ED500F08FFB04281CD11848FFF778FC3B
:10553000012000F08DFB236813B15B6803B198472D
:105540002B889B060CD51248FFF76AFC237B13B906
:10555000012000F07DFB236813B1DB6803B198479D
:1055600003B0F0BD00F06EFB0528E9D10848FFF755
:1055700057FC012000F06CFB2368002BE0D0DB68B7
:10558000DCE700BFD40A00200C1500204C150020D9
:105590008816002074160020601500206016002078
:1055A0000D4B10B504461875587500F017F85CB12E
:1055B00034214FF4E86001F043F94421BDE8104084
:1055C00040F2417001F03CB914214FF4E86001F061
:1055D00037F92421F2E700BFD40A002008B50120E2
:1055E00000F018FD054B187D5A7D824204D0587595
:1055F000BDE80840FFF7D4BF08BD00BFD40A0020B3
:10560000012808B506D0002000F004FD034B00225D
:105610005A7508BDBDE80840FFF7E0BFD40A002076
:10562000F8B50D4617461C46FFF7EAFF284600F07E
:10563000CBFC0020FFF7C2FE0120FFF73BFBFFF78A
:1056400027FC0025064630460021FFF743FCA9420F
:1056500008BFA04204D30124FFF700FE2046F8BD96
:1056600000F029FE00B28742EDDA0024F4E737B5F6
:10567000FFF7B4FF002000F099FB0024254601202D
:10568000FFF718FB00F017FE00F00103A340013400
:10569000202C45EA0305F2D101F074F92844019069
:1056A000FFF7DCFD019803B030BD00000A2838B5D3
:1056B0000DD8084B03EBC000D0E92C4501208840F1
:1056C000FAF786FF22462B46FBF716F938BD002471
:1056D0000025F3E7181901082DE9F04F85B01546AC
:1056E0009DF84C2000929DF85C209DF84470DFF8F6
:1056F0000092BDF8404089F80C20002A18BF002411
:10570000734ABDF83C80002F0E469DF8481008BF34
:10571000FF2111708246934620B101286DD005B05B
:10572000BDE8F08FDFF8C0B100F09FFB0B233046DF
:105730008BF834308BF828A0CBF82C50FFF710FEF4
:10574000634A8BF8350041F60403ABF80430137854
:105750008BF80830009B8BF800A0002B14BFF223BD
:10576000012387F001078BF809304FEAC8080123AD
:105770008BF80A308BF80770ABF802808BF806A024
:10578000FFF7F0FC9BF82800003818BF0120FFF756
:1057900037FF0BF1280000F0B3FC584600F00AFD7B
:1057A0004C4A1068516802AB03C302A800F06DFABE
:1057B00040F2FF1000F096FA2846FAF7F9FE02468A
:1057C0000B4600204449FBF797F8444B0022FAF7B8
:1057D00069FF064620460F46FAF7FAFE02460B46D8
:1057E00030463946FAF75EFF3D4B0022FAF75AFF82
:1057F000FBF730FAC9F8100091E70020019300F0A0
:1058000034FBE0B200F03DFB364A374C019B84F894
:1058100028A032445FFA85F992F8100184F8389094
:1058200084F8390084F83A3096BB0B3D012D33D80B
:105830000123A9F10509994584F83BA0237039D8C3
:10584000B8F10B0F36D80C23A3819BF80030E3731B
:10585000009B23749DF858306374A773FFF7BEFE56
:10586000224800F04DFC204800F0A4FC637C012B92
:1058700040F2367021D101F017F800F0FB0140F240
:10588000367000F0DDFF1A4A4FF6FF73136146E7EA
:10589000012E01D10C2DCBD04946FFF707FF0AA3FB
:1058A000D3E90023FBF784F9B0F1000A18BF4FF0E9
:1058B000010ABDE7A4F80C80C7E700F0F5FF40F04F
:1058C0000400C1B2DBE700BF000000A04761304028
:1058D00048000020201A01080000F03F000020408E
:1058E00000408F40181901081015002038150020BD
:1058F000D40A0020000000002DE9F74F0C9EBDF8EF
:1059000038709DF83C809DF840A089469346054636
:1059100048B1012845D040F6890000F0C5FF40F0AD
:105920000400C1B283E0544C0B2284F828001846CE
:1059300084F83420E662FFF713FD41F60403BAF160
:10594000000FA38014BFF22301236372FF00012321
:1059500088F00108A37284F83500C4F830B02570CF
:105960006780A57184F80780FFF7FCFB94F8280096
:10597000003818BF0120FFF743FE04F1280000F0B3
:10598000BFFB204600F016FC3C4A106851686B468D
:1059900003C3684600F079F940F2FF1000F0A2F965
:1059A000B9E7374A344C1A4484F828005FFA86FB7A
:1059B00092F810019DF8342084F838B084F839004A
:1059C00084F83A20002B3FD10B3E012E40D8012312
:1059D000ABF1050B9B4584F83B50237044D80B2F4B
:1059E00042D80C23A381274B84F80E801B78E373E5
:1059F0009DF84C30637484F810A0FFF7B3FB94F863
:105A00002800003818BF0120FFF7FAFD1E4800F0FB
:105A100077FB194800F0CEFB94F83930062B7FF461
:105A20007AAF40F6890000F03FFF00F0FB0140F63E
:105A3000890000F005FF484600F08EFF149A134BD2
:105A40009A6003B0BDE8F08F012B01D10C2EBED0BF
:105A50005946FFF72BFE06A3D3E90023FBF7A8F86E
:105A6000051E18BF0125B2E7A781BCE7AFF3008090
:105A7000000000A04761304010150020201A0108E6
:105A8000181901084800002038150020D40A002009
:105A90002DE9F74F884628B101283DD0002003B0FA
:105AA000BDE8F08F5A4A9FED5B6A5179538803EB4A
:105AB000D10307EE903AD379F8EEE77A002B07EEA0
:105AC000108AF7EE006A08BFF0EE466A77EEA67A13
:105AD000B8EEC77A537A77EE877A022BB0EE007A67
:105AE00018BFB0EE467A77EE877AB2EE007A67EEAC
:105AF000877A92ED0B7AB8EE477AC7EE876ADFEDC8
