:020000040800F2
:100000000040002049200008758900087789000811
:10001000798900087B8900087D89000800000000BC
:100020000000000000000000000000007F890008C0
:10003000000000000000000081890008838900089A
:10004000912000088B890008912000089120000869
:1000500091200008912000089120000891200008BC
:1000600091200008912000089120000891200008AC
:10007000912000089120000891200008912000089C
:10008000912000089120000891200008912000088C
:10009000912000088789000891200008912000081D
:1000A000912000089120000891200008912000086C
:1000B000912000089120000891200008912000085C
:1000C00091200008912000088589000891200008EF
:0400D0009120000873
:1000D80010B5054C237833B9044B13B10448AFF37A
:1000E80000800123237010BDA00400200000000040
:1000F800FC8E000808B5034B1BB103490348AFF356
:10010800008008BD00000000A4040020FC8E000848
:1001180090B589B000AFF8607B600B46FB72134660
:10012800BB723A4B07F110040FCB84E80F00FB7A3F
:10013800102B07D0FB7A182B04D0FB7A202B01D088
:1001480006235EE0324B5B68314A43F00903536093
:100158002F4B32221A60BB7A43F01003DAB22C4BD1
:100168009A61FB7A202B0ED0202B10DC102B02D0AA
:10017800182B04D00BE0264B0022DA6008E0244B51
:100188000422DA6004E0224B0822DA6000E000BFB3
:1001980000BF1F4B5B6803F00103002BF9D1FB7A0A
:1001A8001A46F9681B4800F0DFFE194BDB68184A4D
:1001B80043F08203D36000BF154BDB6803F0800374
:1001C800002BF9D1124BDB68114A23F00303D360EB
:1001D800BB7A012B05D0BB7A022B02D0BB7A032B4A
:1001E80004D1102279680C4800F0BEFEBB7A032BBC
:1001F80006D10A4B1C4607F110030FCB84E80F0009
:10020800002318462437BD4690BD00BF64910008FE
:100218000020034040160340101603400016034018
:1002280080B584B000AFF8607B600B467B811346D5
:100238007B727B7A002B0CD01F4BDB681E4A23F0A5
:100248000303D3601C4BDB681B4A43F00103D360F4
:100258002AE0194BDB68184A23F00303D360164BD6
:10026800154ADB68D3601FE01022F968134800F0D4
:100278007BFE114BDB68104A43F08003D36000BF5C
:100288000D4BDB6803F08003002BF9D110220C49D9
:10029800786800F069FE7B89103B7B81FB6810332E
:1002A800FB607B6810337B607B89002BDCD10023EB
:1002B80018461037BD4680BD00200340001003409B
:1002C8002010034080B400AF0B4B5B680A4A43F030
:1002D8000103536000BF084B5B6803F00103002B68
:1002E800F9D1054B5B68044A23F0080353600023E7
:1002F8001846BD4680BC70470020034081F000418D
:1003080002E000BF83F0004330B54FEA41044FEAF2
:10031800430594EA050F08BF90EA020F1FBF54EA8D
:10032800000C55EA020C7FEA645C7FEA655C00F029
:10033800E2804FEA5454D4EB5555B8BF6D420CDDFA
:100348002C4480EA020281EA030382EA000083EA7D
:10035800010180EA020281EA0303362D88BF30BD1D
:1003680011F0004F4FEA01314FF4801C4CEA113173
:1003780002D0404261EB410113F0004F4FEA0333D2
:100388004CEA133302D0524263EB430394EA050F5D
:1003980000F0A780A4F10104D5F1200E0DDB02FACC
:1003A8000EFC22FA05F2801841F1000103FA0EF260
:1003B800801843FA05F359410EE0A5F120050EF126
:1003C800200E012A03FA0EFC28BF4CF0020C43FA57
:1003D80005F3C01851EBE37101F0004507D54FF064
:1003E800000EDCF1000C7EEB00006EEB0101B1F5B4
:1003F800801F1BD3B1F5001F0CD349085FEA3000FA
:100408004FEA3C0C04F101044FEA445212F5800F04
:1004180080F09A80BCF1004F08BF5FEA500C50F1A1
:10042800000041EB045141EA050130BD5FEA4C0C84
:10043800404141EB0101013C28BFB1F5801FE9D2E1
:1004480091F0000F04BF01460020B1FA81F308BF04
:100458002033A3F10B03B3F120020CDA0C3208DDD0
:1004680002F1140CC2F10C0201FA0CF021FA02F1AB
:100478000CE002F11402D8BFC2F1200C01FA02F11B
:1004880020FA0CFCDCBF41EA0C019040E41AA2BF40
:1004980001EB0451294330BD6FEA04041F3C1CDA08
:1004A8000C340EDC04F11404C4F1200220FA04F028
:1004B80001FA02F340EA030021FA04F345EA0301D2
:1004C80030BDC4F10C04C4F1200220FA02F001FA94
:1004D80004F340EA0300294630BD21FA04F0294616
:1004E80030BD94F0000F83F4801306BF81F48011AF
:1004F8000134013D4EE77FEA645C18BF7FEA655C22
:1005080029D094EA050F08BF90EA020F05D054EAF3
:10051800000C04BF1946104630BD91EA030F1EBFF8
:100528000021002030BD5FEA545C05D140004941FC
:1005380028BF41F0004130BD14F580043CBF01F5EF
:10054800801130BD01F0004545F0FE4141F47001D5
:100558004FF0000030BD7FEA645C1ABF19461046B0
:100568007FEA655C1CBF0B46024650EA013406BFB1
:1005780052EA033591EA030F41F4002130BD00BF70
:1005880090F0000F04BF0021704730B54FF480642D
:1005980004F132044FF000054FF0000150E700BFAE
:1005A80090F0000F04BF0021704730B54FF480640D
:1005B80004F1320410F0004548BF40424FF00001FA
:1005C8003EE700BF42004FEAE2014FEA31014FEA3D
:1005D80002701FBF12F07F4393F07F4F81F060518C
:1005E800704732F07F4208BF704793F07F4F04BFD7
:1005F80041F40021704730B54FF4607401F00045B4
:1006080021F000411CE700BF50EA010208BF704713
:1006180030B54FF000050AE050EA010208BF704704
:1006280030B511F0004502D5404261EB41014FF46D
:10063800806404F132045FEA915C3FF4D8AE4FF075
:1006480003025FEADC0C18BF03325FEADC0C18BF58
:10065800033202EBDC02C2F1200300FA03FC20FAA9
:1006680002F001FA03FE40EA0E0021FA02F11444F6
:10067800BDE600BF70B54FF0FF0C4CF4E06C1CEA0F
:1006880011541DBF1CEA135594EA0C0F95EA0C0F80
:1006980000F0DEF82C4481EA030621EA4C5123EAF3
:1006A8004C5350EA013518BF52EA033541F4801122
:1006B80043F4801338D0A0FB02CE4FF00005E1FBD5
:1006C80002E506F00042E0FB03E54FF00006E1FB1F
:1006D80003569CF0000F18BF4EF0010EA4F1FF0462
:1006E800B6F5007F64F5407404D25FEA4E0E6D41A2
:1006F80046EB060642EAC62141EA55514FEAC520B3
:1007080040EA5E504FEACE2EB4F1FD0C88BFBCF52E
:10071800E06F1ED8BEF1004F08BF5FEA500E50F1DF
:10072800000041EB045170BD06F0004646EA0101A5
:1007380040EA020081EA0301B4EB5C04C2BFD4EBD7
:100748000C0541EA045170BD41F480114FF0000ED0
:10075800013C00F3AB8014F1360FDEBF002001F03E
:10076800004170BDC4F10004203C35DA0C341BDCB8
:1007780004F11404C4F1200500FA05F320FA04F08A
:1007880001FA05F240EA020001F0004221F00041BE
:1007980010EBD37021FA04F642EB06015EEA430E31
:1007A80008BF20EAD37070BDC4F10C04C4F1200561
:1007B80000FA04F320FA05F001FA04F240EA020014
:1007C80001F0004110EBD37041F100015EEA430EE5
:1007D80008BF20EAD37070BDC4F1200500FA05F205
:1007E8004EEA020E20FA04F301FA05F243EA020384
:1007F80021FA04F001F0004121FA04F220EA020093
:1008080000EBD3705EEA430E08BF20EAD37070BDD8
:1008180094F0000F0FD101F00046400041EB0101B8
:1008280011F4801F08BF013CF7D041EA060195F09A
:10083800000F18BF704703F00046520043EB030354
:1008480013F4801F08BF013DF7D043EA0603704741
:1008580094EA0C0F0CEA135518BF95EA0C0F0CD04C
:1008680050EA410618BF52EA4306D1D181EA030192
:1008780001F000414FF0000070BD50EA410606BF8C
:100888001046194652EA430619D094EA0C0F02D1D1
:1008980050EA013613D195EA0C0F05D152EA033616
:1008A8001CBF104619460AD181EA030101F0004134
:1008B80041F0FE4141F470014FF0000070BD41F07D
:1008C800FE4141F4780170BD70B54FF0FF0C4CF457
:1008D800E06C1CEA11541DBF1CEA135594EA0C0F76
:1008E80095EA0C0F00F0A7F8A4EB050481EA030EC3
:1008F80052EA03354FEA013100F088804FEA0333AA
:100908004FF0805545EA131343EA12634FEA022277
:1009180045EA111545EA10654FEA00260EF0004138
:100928009D4208BF964244F1FD0404F5407402D28A
:100938005B084FEA3202B61A65EB03055B084FEA1B
:1009480032024FF480104FF4002CB6EB020E75EB18
:10095800030E22BFB61A754640EA0C005B084FEA40
:100968003202B6EB020E75EB030E22BFB61A7546BD
:1009780040EA5C005B084FEA3202B6EB020E75EB08
:10098800030E22BFB61A754640EA9C005B084FEA80
:100998003202B6EB020E75EB030E22BFB61A75468D
:1009A80040EADC0055EA060E18D04FEA051545EA7C
:1009B80016754FEA06164FEAC30343EA52734FEA25
:1009C800C2025FEA1C1CC0D111F4801F0BD141EA9E
:1009D80000014FF000004FF0004CB6E711F4801F03
:1009E80004BF01430020B4F1FD0C88BFBCF5E06FE3
:1009F8003FF6AFAEB5EB030C04BFB6EB020C5FEAF3
:100A0800500C50F1000041EB045170BD0EF0004E47
:100A18004EEA113114EB5C04C2BFD4EB0C0541EA79
:100A2800045170BD41F480114FF0000E013C90E676
:100A380045EA060E8DE60CEA135594EA0C0F08BF3A
:100A480095EA0C0F3FF43BAF94EA0C0F0AD150EA39
:100A580001347FF434AF95EA0C0F7FF425AF1046CC
:100A680019462CE795EA0C0F06D152EA03353FF4F4
:100A7800FDAE1046194622E750EA410618BF52EA71
:100A880043067FF4C5AE50EA41047FF40DAF52EA45
:100A980043057FF4EBAE12E74FF0FF3C06E000BFE2
:100AA8004FF0010C02E000BF4FF0010C4DF804CDEF
:100AB8004FEA410C7FEA6C5C4FEA430C18BF7FEAAF
:100AC8006C5C1BD001B050EA410C0CBF52EA430CDD
:100AD80091EA030F02BF90EA020F0020704710F15D
:100AE800000F91EA030F58BF994208BF90422CBFEC
:100AF800D8176FEAE37040F0010070474FEA410CE5
:100B08007FEA6C5C02D150EA013C07D14FEA430C02
:100B18007FEA6C5CD6D152EA033CD3D05DF8040B73
:100B2800704700BF8446104662468C4619466346A5
:100B380000E000BF01B5FFF7B7FF002848BF10F17C
:100B4800000F01BD4DF808EDFFF7F4FF0CBF0120C1
:100B580000205DF808FB00BF4DF808EDFFF7EAFF3D
:100B680034BF012000205DF808FB00BF4DF808EDF8
:100B7800FFF7E0FF94BF012000205DF808FB00BFED
:100B88004DF808EDFFF7CEFF94BF012000205DF877
:100B980008FB00BF4DF808EDFFF7C4FF34BF012084
:100BA80000205DF808FB00BF4FEA410212F5001271
:100BB80015D211D56FF47873B3EB625212D94FEA9C
:100BC800C12343F0004343EA505311F0004F23FA86
:100BD80002F018BF404270474FF00000704750EADB
:100BE800013005D111F0004008BF6FF00040704798
:100BF8004FF00000704700BF4A0011D212F50012F2
:100C080011D20DD56FF47873B3EB62520ED44FEA5C
:100C1800C12343F0004343EA505323FA02F07047DC
:100C28004FF00000704750EA013002D14FF0FF301A
:100C380070474FF00000704753B94AB9002908BF00
:100C480000281CBF4FF0FF314FF0FF3000F08AB989
:100C5800ADF1080C6DE904CE00F024F8DDF804E0ED
:100C6800DDE9022304B07047D0B50C4B00220646DC
:100C78000F46FFF7FFFCFFF7BFFF0446FFF780FCB6
:100C8800074B0022FFF7F6FC02460B463046394672
:100C9800FFF738FBFFF7B0FF2146D0BD0000F03D5D
:100CA8000000F0412DE9F047089E0D4604468E46A7
:100CB800002B40F082808A42174646D9B2FA82F267
:100CC8004AB1C2F1200105FA02F320FA01F1974076
:100CD80041EA030E94404FEA1748230CBEFBF8FC88
:100CE800B9B208FB1CEE43EA0E430CFB01F0984234
:100CF8000AD9FB180CF1FF3580F01681984240F2B2
:100D08001381ACF1020C3B441B1AA4B2B3FBF8F0FC
:100D180008FB103344EA034400FB01F1A14209D95E
:100D28003C1900F1FF3380F00181A14240F2FE80BE
:100D380002383C44641A40EA0C4000211EB1D440F9
:100D48000023C6E90043BDE8F08702B9FFDEB2FA26
:100D580082F2002A4FD1CB1B4FEA174E1FFA87F8B1
:100D68000121B3FBFEFC250C0EFB1C3345EA0345B1
:100D780008FB0CF3AB4207D97D190CF1FF3002D206
:100D8800AB4200F2E7808446ED1AA3B2B5FBFEF051
:100D98000EFB105543EA054408FB00F8A04507D9A7
:100DA8003C1900F1FF3302D2A04500F2D780184663
:100DB800A4EB080440EA0C40C0E78B4208D9002E97
:100DC80000F0AF800021C6E900050846BDE8F087BD
:100DD800B3FA83F100294BD1AB4202D3824200F22D
:100DE800B780841A65EB030301209E46002EAAD023
:100DF800C6E9004EA7E7C2F1200C01FA02F39740BA
:100E080020FA0CF04FEA174E21FA0CFC1843BCFBF1
:100E1800FEF1050C0EFB11CC1FFA87F845EA0C45CC
:100E280001FB08F3AB4204FA02F409D97D1901F178
:100E3800FF3C80F08B80AB4240F2888002393D4411
:100E4800EB1A85B2B3FBFEF00EFB103345EA0345FF
:100E580000FB08F3AB4207D97D1900F1FF3C71D2C2
:100E6800AB426FD902383D44EB1A40EA014178E7BA
:100E7800C1F1200C8B4022FA0CF71F4320FA0CF426
:100E880005FA01F34FEA174E25FA0CF51C43230C1B
:100E9800B5FBFEF91FFA87F80EFB195543EA05451D
:100EA80009FB08FAAA4502FA01F200FA01F308D987
:100EB8007D1909F1FF3047D2AA4545D9A9F10209A0
:100EC8003D44A5EB0A05A4B2B5FBFEF00EFB105598
:100ED80044EA054400FB08F8A04507D93C1900F18D
:100EE800FF352DD2A0452BD902383C4440EA0940B1
:100EF800A4EB0804A0FB02894C45C6464D4619D30D
:100F080016D05EB1B3EB0E0264EB050404FA0CFCD8
:100F1800CA404CEA0202CC40C6E900240021BDE8E0
:100F2800F087314630460EE7AC46EDE6184601E755
:100F38004345E6D2B8EB020E69EB07050138E0E756
:100F48002846D3E760468FE78146BAE7614677E7E8
:100F580008464BE7ACF1020C3D4415E702383C4427
:100F680026E700BF704700BF844641EA000313F03C
:100F780003036DD1403A41D351F8043B40F8043B98
:100F880051F8043B40F8043B51F8043B40F8043B5B
:100F980051F8043B40F8043B51F8043B40F8043B4B
:100FA80051F8043B40F8043B51F8043B40F8043B3B
:100FB80051F8043B40F8043B51F8043B40F8043B2B
:100FC80051F8043B40F8043B51F8043B40F8043B1B
:100FD80051F8043B40F8043B51F8043B40F8043B0B
:100FE80051F8043B40F8043B51F8043B40F8043BFB
:100FF80051F8043B40F8043B403ABDD2303211D39B
:1010080051F8043B40F8043B51F8043B40F8043BDA
:1010180051F8043B40F8043B51F8043B40F8043BCA
:10102800103AEDD20C3205D351F8043B40F8043B9A
:10103800043AF9D2043208D0D2071CBF11F8013B98
:1010480000F8013B01D30B8803806046704700BF5E
:10105800082A13D38B078DD010F003038AD0C3F16D
:101068000403D21ADB071CBF11F8013B00F8013B4F
:1010780080D331F8023B20F8023B7BE7043AD9D30E
:10108800013A11F8013B00F8013BF9D20B780370E3
:101098004B7843708B7883706046704770472DE9B2
:1010A800F74FDDF83C9019F0030FDDE90D460746D0
:1010B8008B46154628D00C9901EB04081444A2422B
:1010C80026D119F0020F0AD0A4EB0508C1464E45F7
:1010D80005EB090226D83544464528BF2C4620464C
:1010E80003B0BDE8F08F594620200193B847019B13
:1010F80008F10108B0450AEB0802F4D3321BB442E8
:1011080088BF00222A44D6E7A046A2EB040AF1E7EA
:1011180002F1010A18F8010D01935946B847019BDD
:101128005246CCE759462020019309F10109B847F6
:10113800019BCCE72DE9F047DDE90D7616F0020FAB
:10114800DDE90854DDE90BC89DF828E01FD106F059
:1011580001094FB1B9F1000F06D0BEF1000F02D15D
:1011680016F00C0F00D0013F4FF0300A02E005F8EE
:1011780004A00134444501D2202CF8D14FF0300AA4
:10118800B9F1000F03D0BC4201D21F2C34D916F09C
:10119800100F1FD016F4806F33D194B3444501D09B
:1011A800BC422ED1B4F101082AD0BCF1100F33D1C2
:1011B800023C16F0200F31D11F2C15D84FF0780CB7
:1011C80005F804C001341F2C0ED84FF0300C05F878
:1011D80004C001341F2C07D8BEF1000F23D04FF0F4
:1011E8002D0C05F804C00134CDE90A76CDE9085480
:1011F800BDE8F047FFF753BF05F804A00134BFE787
:101208004446BCF1100FD4D0BCF1020FDBD11F2C27
:10121800EAD84FF0620CD3E74446F5E71F2CE3D831
:101228004FF0580CCCE716F0040F02D04FF02B0CFF
:10123800D7E716F0080FD7D04FF0200CD1E72DE9EB
:10124800F04391B0189D1A9E1D9F0DB927F0100705
:101258007C0500D50DB317F0200FAC460DF1200E1C
:101268004FF0000514BF4FF037084FF05708BCFB8C
:10127800F6F906FB19C95FFA89F4B9F1090F94BFA9
:1012880030344444E4B2B4450EF8014BBCFBF6F4E8
:1012980005F1010501D3202D10D11C9C05941B9C40
:1012A8000697CDE903649DF86440CDE9015408AC84
:1012B8000094FFF73FFF11B0BDE8F083A446D6E7DE
:1012C8002DE9F04F93B0DDE91CAB249D99465AEA0D
:1012D8000B0308BF25F010056B0506460F46904620
:1012E80002D55AEA0B033CD00AAB15F0200F08933D
:1012F80014BF3723572300240993DDE920235046E0
:101308005946FFF799FCD2B2092A8ABF099B3032A5
:10131800D218089BD2B203F8012B0893DDE92023E9
:101328009B4508BF924504F1010401D3202C15D137
:10133800239B0593229B0493209B03939DF878306D
:101348000695CDE901430AAB009342464B46394620
:101358003046FFF7EFFE13B0BDE8F08F82468B46AC
:10136800CBE70024E4E70000014610B1014801F092
:101378006DBC7047003000402DE9F04F2DED068B15
:1013880091B0DDE9206708EE100A08EE901A92463F
:101398009B4632463B4630463946229DFFF7D2FBF4
:1013A80080B9249B0393239B029303230193B64B99
:1013B800009318EE901A18EE100A5B465246FFF793
:1013C8006EFE47E04FF0FF326FF480133046394627
:1013D800FFF7C2FB38B1249B0393239B029304239A
:1013E8000193AA4BE4E7AA4B4FF0FF323046394647
:1013F800FFF7D0FB78B1249BA64A2499039103F008
:101408000403002B2399A44B0EBF03221346042286
:10141800CDE90121CCE798A3D3E90023304639462A
:10142800FFF7B8FB38B996A3D3E90023304639460D
:10143800FFF792FB98B1249B0493239BCDE90067A7
:10144800CDE9025318EE901A18EE100A5B46524680
:1014580000F02AF911B0BDEC068BBDE8F08F002230
:10146800002330463946FFF777FB002800F08280DA
:101478003B46324600200021FEF744FF0123064682
:101488000F460793249B13F4806F08BF062508AB0B
:10149800A5F12002A9463021B9F1090FA5EB0904ED
:1014A80006D909F1FF394A4503F8011BF4D1202474
:1014B80039463046FFF778FB784B03EBC90393EDC9
:1014C800007B0546B0EE479AF0EE679AFFF768F89A
:1014D80002460B4630463946FEF714FF53EC192BEB
:1014E800FFF7C8F802460B4643EC1A2BFFF784FBBC
:1014F8008046FFF745F802460B4651EC1A0BFEF7FB
:1015080001FF02460B4643EC1A2B654B0022FFF7FE
:1015180041FB88B308F101084046FFF731F802465D
:101528000B4651EC190BFFF721FB10B101354FF0B9
:101538000008B9F1000F4ED12846FFF731F80246EE
:101548000B4630463946FEF7DDFE554B00228046F5
:101558008946FFF701FB30B1514B0022404649460E
:10156800FFF718FB10B1E80700D5013508AB234495
:101578000A2258E0079085E7494B51EC1A0B0022E4
:10158800FFF7EAFA0028D4D1B8F1000F02D018F01A
:10159800010FCED008F10108CBE7B8FBF1F001FB51
:1015A80010823032B8F1090F03F8012B09F1FF3925
:1015B80004F1010427D8A14408AA3021202C0FD017
:1015C8004C4504F1010320D110AA14442E2204F83A
:1015D800202C1C46CAE708AB23440A21202CDCD166
:1015E800249B03F00303012B08AB2CD1239A52B39D
:1015F800079A1AB9249A12F00C0F02D0239A013ACA
:101608002392302214E08046E8E7A1541C46D5E72F
:1016180095FBF2F102FB1155303503F8015B0134FB
:101628000D460029DCD0202CF2D1D9E71A55013417
:101638002399A14207D9202CF8D1249A0392239AFE
:10164800CDE90142B4E6202CF7D0079A32B110AAAE
:1016580022442D2102F8201C0134EEE7249A510778
:1016680003D510AA22442B21F4E7249A1207E4D5C3
:1016780010AA22442021EDE70000000065CDCD41ED
:101688000000000065CDCDC17D9100088191000862
:10169800FFFFEF7F7891000874910008188F000809
:1016A8000000E03F000000002DE9F04F2DED088B11
:1016B8008DB01D46DDE920B39DED1E7B0793229B6F
:1016C8000A9208EE900AB0EE479AF0EE679A0C4636
:1016D800069351EC170B53EC172BFFF733FA80B135
:1016E800CF4B51EC190B4FF0FF32FFF753FA40B9CB
:1016F80051EC190B4FF0FF326FF48013FFF72CFAFF
:1017080090B1069B2293079B0A9A18EE900ACDE99E
:1017180020B321462B468DED1E9B0DB0BDEC088BEA
:10172800BDE8F04FFFF728BE51EC190B002200234B
:10173800FFF712FA002800F04E8119EE903A19EEE0
:10174800108A03F10049069B9FEDB67A9FEDB68A91
:1017580013F480630B93C9F30A53A3F2FF3307EE24
:10176800903AC9F31302F8EEE77A42F07F51AF4B93
:101778004FF00002404641F4401108BF4FF0060BFD
:10178800A7EE878AFEF7BEFD9FA3D3E90023FEF7E5
:1017980071FF064618EE100A0F46FEF713FF0246C1
:1017A8000B4630463946FEF7AFFDFFF7FDF907EE69
:1017B800900AB8EEE77ADFED9E7AB6EE008AA7EED9
:1017C800278A8246DFED9B7ABDEEC88AF8EEC86AA2
:1017D80067EEE67ADFED986AE7EE267A17EE900A6A
:1017E800FEF7F0FE02460B4606460F46FEF742FF9E
:1017F800324641EC1A0B3B4630463946FEF784FD2B
:101808008E4B41EC1B0B002251EC1A0BFFF75CF8D6
:101818008B4B0022FEF778FD02460B4651EC1A0B63
:10182800FFF752F8874B0022FEF76EFD02460B4683
:1018380051EC1A0BFFF748F8324641EC1A0B3B46BD
:1018480000204FF08041FEF75DFD02460B4651EC4B
:101858001A0BFEF759FD02460B4651EC1B0BFFF71E
:1018680033F8794B0022FEF74FFD18EE103A03F2D9
:10187800FF3633050022FEF7FDFE06460F460246F8
:101888000B4640464946FFF767F9002840F0A68016
:10189800CDE908670AF16303C72B069B34BF04260A
:1018A8000526190523D55AA3D3E9002340464946FE
:1018B800FFF766F9002800F09C8057A3D3E90023BE
:1018C80040464946FFF748F9002800F09280069BF9
:1018D800DA45B8BFABEB0A0B43F480634FF0000660
:1018E800B4BF0BF1FF3B4FF0000B0693B246079BCA
:1018F800B34288BF9F1B069B98BF002713F00203C3
:101908000B9302D0002E18BF0027BAF1000F07D0A2
:1019180040464946DDE90823FEF7D6FF804689465A
:1019280051EC190B00220023FFF716F910B109F149
:1019380000439946069B0A9ACDF808B023F4006341
:10194800CDE90373CDE9008918EE900A2B462146AC
:10195800FFF712FD0746002E37D0069B13F0200F25
:1019680000F10109024618EE907A14BF452065205F
:101978002B462146B8470523059300220A238AEA05
:10198800EA70CDE90232A0EBEA704FEADA73013E61
:10199800019300902B4618EE900A04964A46214679
:1019A800FFF74DFC0B9B07467BB10A9BA0EB030995
:1019B800C8460A9B03EB0802079B434546D807998C
:1019C8000A9B0B44494528BF1F4638460DB0BDEC5D
:1019D800088BBDE8F08F59EC198BB4E6184B002240
:1019E80030463946FEF770FF0AF1FF3ACDE90801A3
:1019F80050E7BBF1000F3FF47AAF0B9B002B3FF48D
:101A080076AF0BF1FF3B72E700000060A787D23F7B
:101A1800000000E0E2361A3F0000000080842E41FA
:101A2800FFFFEF7F9B209A3E4451343E0000F83F71
:101A3800789A54401872313F8E5D134000002C4054
:101A480000002440000018400000F03F18EE906AA3
:101A58002B4621462020B04708F10108A9E700BF1E
:101A68002DE9F04F91B000290A93C74B1A9E904672
:101A780014BF8146994600250A9B187858B94545F0
:101A88002CBF08F1FF322A4643460020C8472846A3
:101A980011B0BDE8F08F0A9B252803F101030A93D2
:101AA80006D02A466C1C43460B91C8472546B7E129
:101AB800002206E02D2B14D0302B0CD142F001026D
:101AC8000A900A9810F8013B2B2B0DD0F2D8202B46
:101AD8000DD0232B0ED0A3F13004092C28D80027D1
:101AE80010E042F00202EBE742F00402E8E742F0BD
:101AF8000802E5E742F01002E2E70A2404FB073790
:101B0800303F0A900A9810F8013BA3F13004092CE1
:101B1800F3D90A9B1B782E2B67D10A9B581C5B783C
:101B2800A3F13004092C42F4806255D8002411E056
:101B38002A2B08D156F8047B0A90002FBCBF42F02C
:101B480002027F42E5E70027E3E70A2000FB0434AE
:101B5800303C604684461CF8013BA3F1300EBEF1D0
:101B6800090FF2D9034613F801CBBCF16C0F48D02A
:101B78003ED8BCF1680F4DD0BCF16A0F55D0034672
:101B880013F8010B0A9378288BD8572850D8452882
:101B980005D086D9462800F03081472881D100F049
:101BA800DF03472B04BF00F0FD0042F40062452824
:101BB80008BF42F02002CDE90372073626F0070677
:101BC8000294F6E802234846CDE9002343462A4614
:101BD8000B91FFF769FD22E12A2B07D156F8044B38
:101BE8000A9824EAE4740230BCE70A980024B9E7AA
:101BF800BCF1740F02D0BCF17A0FC0D142F48072EC
:101C0800BEE790F801C0BCF16C0FF7D142F4407206
:101C1800831CB5E790F801C0BCF1680F02D042F010
:101C28008002ADE742F0C002F2E742F40072A7E793
:101C3800A0F15803202B3FF634AF0FF2080C5CF8E4
:101C480023F000BFD11C0008AB1A0008AB1A00082B
:101C5800AB1A0008AB1A0008AB1A0008AB1A000848
:101C6800AB1A0008AB1A0008AB1A0008D11C000810
:101C78002D1E0008D11C0008A71B0008071E00081D
:101C8800A71B0008AB1A0008D11C0008AB1A0008F3
:101C9800AB1A0008AB1A0008AB1A0008AB1A000808
:101CA800D11C00087D1F0008AB1A0008AB1A0008F9
:101CB800A91E0008AB1A0008D11C0008AB1A0008BE
:101CC800AB1A0008D11C0008782800F06981582850
:101CD80000F064816F2800F06581622800F064815B
:101CE800692822F010024FF00A0303D0642801D0BB
:101CF80022F00C0212F4806F18BF22F0010269284A
:101D080002F4007C01D0642844D1BCF1000F23D038
:101D1800073626F00700824640685AF8086B049395
:101D280000230593C30F0293002E034673F10000AE
:101D3800CDE907720694324602DA724263EB430336
:101D4800CDE90023484643462A460B91FFF7B8FAE7
:101D58000B99054656468FE6D00506F1040A0CD5C0
:101D68003068CDE90472CDE9023400284FEAD07317
:101D78000193B8BF4042009028E012F0400F30684D
:101D880004D0C0B2EDE700BFA5100008160648BF92
:101D980000B2E6E7BCF1000F0CD0CDE907720022D3
:101DA800CDE90432073626F0070A06940292FAE8CB
:101DB8000223C5E7D00506F1040A0ED5CDE9047261
:101DC800CDE90234CDF804C03368009343462A466F
:101DD80048460B91FFF733FABAE712F0400F306824
:101DE80007D0C0B2CDE902340023CDE904720193D3
:101DF800C1E7160648BF80B2F4E742F02002CDE9F9
:101E08000372073626F007060294F6E802234846CE
:101E1800CDE9002343462A460B91FFF7ADFA054664
:101E28000B9929E612F0020426D04FF0010A56F861
:101E3800040B0B9143462A46C0B2C84705F1010B73
:101E48000B995CB354465A4620E00B914346202038
:101E5800C8470B990AEB05020AF1010A5745F4D85D
:101E6800002F07F1FF3308BF002307F1010A1D44C3
:101E780008BF4FF0020ADAE7A246EBE70B914346A8
:101E88002020551CC8470B9901342A46BC42F5D37B
:101E9800A7EB0A03574538BF00239B445D46EBE593
:101EA800334653F8046B0B93404B002E08BF1E4675
:101EB800002C14BF23464FF0FF333344B3469BF83E
:101EC800000008B19B4511D112F48063ABEB060BFF
:101ED8000C9302D0A34528BFA34612F002030D932A
:101EE8001CD1ABEB05032A460E930AE00BF1010B5C
:101EF800E5E70F914346202002F1010AC8470F99F0
:101F080052460E9B1344BB42F3D3A7EB0B035F452A
:101F180038BF00230BF1010B1D449B44A5EB060AB7
:101F280005E01C460E9143462A46C8470E990AEB1F
:101F3800060516F8010B28B10C9B002BF2D0631E86
:101F4800002CEED10D9B9BB12A46ABEB050406E0B5
:101F58000C9143462020561CC8470C993246131949
:101F6800BB42F5D3A7EB0B035F4538BF00231D44E5
:101F78000B9E81E542F021020823CDE90343059237
:101F880000231022CDE9013256F8043B00932A467B
:101F9800434648460B91FFF752F940E742F02002CA
:101FA8001023A5E60823A3E60223A1E686910008EC
:101FB8000FB41FB506AA02A952F8043B0392009277
:101FC80004484FF0FF32FFF74BFD05B05DF804EB16
:101FD80004B0704771130008064B0748E02283F8E5
:101FE8002220C0210023C2180133252B82F80013B8
:101FF800F9D1704700ED00E000E100E00E4A08B5B5
:10200800D2F8883043F47003C2F888304FF0804229
:10201800D36843F08003D360084B5A6922F47022D6
:1020280042F480325A619A689207FCD5FFF7D4FFD0
:10203800BDE8084000F02AB800ED00E000000240CA
:10204800002103E00B4B5B58435004310A480B4B0B
:1020580042189A42F6D30A4A02E0002342F8043BA7
:10206800084B9A42F9D3FFF7C9FF06F08DFC06F03A
:1020780076FCFEE734920008000000209C04002053
:10208800A00400205C110020FEE7000008B5012034
:1020980000F060F90B4B984213D90B4A0133B0FB9F
:1020A800F3F31370094A4FF47A73B0FBF3F0084B5B
:1020B8000138E021586082F8231000229A60072234
:1020C8001A6008BD3F420F00BC04002000ED00E08C
:1020D80010E000E030B5094B09491B784D6863B141
:1020E8008A685843002314468A689442FBD098BFF4
:1020F8005B1923449B1A8342F5D330BDBC040020EE
:1021080010E000E04FF47A735843FFF7E3BF000094
:10211800012310B58B40062A00F28280DFE802F026
:10212800040F1B293849630002681A430260826859
:102138001A438260C26822EA0303C36038E0026877
:102148001A43026082681A438260C2681A43C260F6
:10215800026913430BE002681A43026082681A435B
:102168008260C2681A43C260026922EA03030361FB
:102178001EE0026822EA03020260826822EA030281
:102188008260426822EA03024260826913430EE0D9
:10219800026822EA03020260826822EA030282607D
:1021A800426822EA03024260826922EA03038361E9
:1021B80010BD1F4CA0426FEA03020BD1072909D9B1
:1021C80081691140816181680A40826002681A430E
:1021D8000260BDE701681140016081680A408260C1
:1021E80042681A43D0E7124CA0426FEA03020AD1B0
:1021F800072908D98169114081618168114081608E
:1022080001680A40E4E701681140016081681140F3
:10221800816041680B43436083691A408261C7E764
:1022280002681A430260826822EA030281E700BF5B
:1022380000FC0140072910B510D90D4B0839984208
:102248000BBF01EB4101890007230F238B408A4014
:10225800C16B21EA03031A43C26310BD836B890073
:102268000F248C4023EA04038A401A438263F4E76C
:1022780000FC0140274B1B6810B59C0706D1264A75
:10228800536823F4700343F480135360234A13699B
:1022980043F004031361204B1A6881B122F0200235
:1022A80002281A600ED81A6822F003021043186038
:1022B80000292BD01A4B04225A6030BF10BD42F0BF
:1022C8002002EDE7174B1A6892060AD5164C174AF2
:1022D8009C619A611A6822F020021A6000229C61AF
:1022E8009A61134A13685C045CBF43F4804313602B
:1022F800094B1A6842F003021A605A6803280CBF97
:1023080042F0807222F080725A60D1E740BF20BF4D
:1023180020BFD3E7102000100018004000ED00E0B7
:1023280000E100E000000240BFAE9D8C16151413BA
:10233800308000400121FFF79DBF0000044A136868
:1023480018B143F080031360704723F08003FAE765
:102358000C8000404FF0804301461A6802F4E042C6
:10236800B2F5A04F20D015D8B2F5805F1ED0B2F5D7
:10237800005F1B4808BF4FF4004002291BD0032907
:1023880023D0012905D14FF080431B68C3F30323F1
:10239800D8407047B2F5C04F0BD0114B1148B2F579
:1023A800E04F18BF1846E8E70F48E6E74FF4FA4051
:1023B800E3E70E48E1E74FF080421368C3F30323D5
:1023C800D8401368C3F34213E2E74FF08042136822
:1023D800C3F30323D8401368C3F3C233D8E700BF5D
:1023E80000366E01006CDC020048E80100093D007F
:1023F8004FF08043986800F4C03070474FF0804336
:10240800986800F4C04070474FF08043986800F423
:10241800C05070474FF08043986800F4C060704720
:102428004FF08043586800F00200704741284AD8AE
:10243800DFE810F011020702FD01E401D201B90141
:10244800710167015D01530149013F0135010D012A
:102458000301D600EA00E000CC004900C200B80041
:10246800AE00A30099008F0085006B006100570043
:102478004D004200170121012B0149004900490084
:1024880049004900490049004900490049004900FC
:10249800490049002E0225021B0238029501490015
:1024A80049004900490049004900490049004900DC
:1024B8004900490042024C024FF08043DA6819B1E2
:1024C80042F48012DA60704722F48012FAE74FF083
:1024D8008043DA6811B142F40022F3E722F40022C3
:1024E800F0E74FF08043DA6811B142F48022E9E75F
:1024F80022F48022E6E74FF08043DA6811B142F413
:102508000032DFE722F40032DCE74FF08043DA687C
:1025180079B142F48032DA604FF080439A6A02F06F
:102528003F023F2AFAD15A6931B142F004025A6196
:10253800704722F48032EEE722F00402F7E74FF00A
:102548008043DA6811B142F40042BBE722F400424A
:10255800B8E74FF08043DA6811B142F48042B1E73E
:1025680022F48042AEE74FF08043DA6811B142F4BA
:102578000052A7E722F40052A4E74FF080431A69FB
:1025880019B142F020021A61704722F02002FAE7DE
:102598004FF08043DA6811B142F4805292E722F496
:1025A80080528FE74FF08043DA6811B142F400623D
:1025B80088E722F4006285E74FF08043DA6811B1BA
:1025C80042F480627EE722F480627BE74FF080432A
:1025D800DA6811B142F4807274E722F4807271E70C
:1025E8004FF08043DA6811B142F020026AE722F026
:1025F800200267E74FF08043DA6811B142F08002A9
:1026080060E722F080025DE74FF08043DA6871B13D
:1026180042F04002DA604FF080439A6A02F03F02CB
:102628003F2AFAD15A6929B142F008027FE722F01D
:102638004002EFE722F0080279E74FF08043DA68BA
:1026480011B142F010023DE722F010023AE74FF0D4
:102658008043DA6811B142F0007233E722F0007269
:1026680030E74FF08043DA6811B142F0807229E711
:1026780022F0807226E74FF08043DA6811B142F405
:1026880000021FE722F400021CE74FF08043DA68DB
:1026980011B142F4800215E722F4800212E74FF0EC
:1026A8008043DA6811B142F008020BE722F0080211
:1026B80008E74FF08043DA6811B142F0040201E7FD
:1026C80022F00402FEE64FF08043DA6811B142F0CE
:1026D8000202F7E622F00202F4E64FF08043DA68DD
:1026E80011B142F00102EDE622F00102EAE64FF0F4
:1026F8008043DA6811B142F00062E3E622F000623A
:10270800E0E64FF08043DA6811B142F08062D9E622
:1027180022F08062D6E64FF080431A6979B142F41C
:1027280000721A619A6A02F03F023F2AFAD15A6986
:1027380042F010025A611A6942F0100223E722F0AF
:1027480010021A619A6A02F03F023F2AFAD15A69C6
:1027580022F010025A611A6922F4007213E74FF04E
:1027680080431A6979B142F480521A619A6A02F078
:102778003F023F2AFAD15A6942F020025A611A6987
:1027880042F40062FFE622F400621A619A6A02F0DB
:102798003F023F2AFAD15A6922F020025A611A6987
:1027A80022F48052EFE64FF080431A6971B142F08B
:1027B80008021A614FF080439A6A02F03F023F2AEA
:1027C800FAD15A6929B142F00102B0E622F00802B2
:1027D800EFE722F00102AAE64FF080431A6931B10F
:1027E80042F004021A611A6942F04002CBE622F074
:1027F80004021A611A6922F04002C4E64FF08043CD
:102808001A6971B142F002021A614FF080439A6A64
:1028180002F03F023F2AFAD15A6929B142F0020276
:1028280085E622F00202EFE722F002027FE64FF08F
:102838008043DA6811B142F0805243E622F08052B8
:1028480040E64FF080431A6911B142F001029AE65E
:1028580022F0010297E64FF080431A6911B142F065
:10286800800290E622F080028DE64FF080431A69DC
:1028780011B142F4807286E622F4807283E64FF04A
:102888008043DA6809B11A431CE622F0804219E64F
:102898004FF08043DA6811B142F0005212E622F09C
:1028A80000520FE64FF080431A6911B142F480627A
:1028B80069E622F4806266E64FF08043DA6811B177
:1028C80042F40012FEE522F40012FBE54FF08043CB
:1028D800DA6811B142F00042F4E522F00042F1E575
:1028E80010B50C4605280ED8DFE800F003151F28A0
:1028F800335E364A3649136834B123F02003136037
:102908008B685B07FCD510BD43F0200313608B6810
:102918005C07FCD4F7E72F4A136819B123F4004386
:102928001360F0E743F40043FAE72A4A136811B149
:1029380023F4C043F4E743F4C043F1E7234A1368A0
:1029480023F0180311B143F00803E9E743F010033B
:10295800E6E701210E20FFF769FD1F4BD3F804219C
:10296800CCB190060BD4D3F8042142F02002C3F86E
:102978000421D3F8042122F08002C3F80421164B65
:10298800D3F8042142F00402C3F80421D3F8082143
:102998009107FBD5B7E722F00402C3F80421D3F866
:1029A80008219207FBD4AEE7084A0949136834B1F5
:1029B80023F0400313608B68002BFCDAA3E743F095
:1029C800400313608B68002BFCDB9CE718800040F9
:1029D8000082004008800040009000403F281ED838
:1029E8002F280DD90123303803FA00F04FF0804327
:1029F800DA6911B91043D861704722EA0000FAE792
:102A0800A0F12003DBB2022B98BF0D20012303FAAB
:102A180000F04FF080439A6911B9104398617047EC
:102A280022EA0000FAE708B500210320FFF7FEFCC0
:102A380001210320FFF7D2FFBDE808400021032051
:102A4800FFF7CCBF034940F6FF53CA6A33EA0202D4
:102A5800FBD1704700E0004008B5FFF7F3FF054BD6
:102A68001A6818B142F080521A6008BD22F08052EC
:102A7800FAE700BF00E0004008B5FFF7E3FF054BA9
:102A88001A6818B142F080721A6008BD22F080728C
:102A9800FAE700BF00E00040012808B50AD8FFF7B0
:102AA800D1FF054B1A6801280CBF42F0007222F0D2
:102AB80000721A6008BD00BF00E00040F8B5054686
:102AC80000285FD031480346476BB9B25E6C5A6C38
:102AD800B242FBD19C6C9A6CA242FBD15A6B92B267
:102AE8009142F1D10029EFD0FFF79AFCBFB207EE6F
:102AF800907AB8EEE77AF6EE007A002843D1DFED57
:102B0800246AC6F3021306F00F0203EB830302EBF9
:102B18004303EB71C6F3C223C6F3C31203EB83036B
:102B280002EB4303AB71C6F3814303EB8303C6F3A4
:102B3800833606EB4306C4F3011304F00F0203EBDC
:102B4800830302EB43032B71C4F380239A001344DD
:102B5800C4F3831202EB4303E7EE267AEB70C4F367
:102B6800C223AB70C4F3834303EB8303C4F38334FE
:102B7800FCEEE77A04EB430404F5FA64C5ED027A47
:102B88006E712C80F8BDDFED036ABAE700E0004003
:102B98000024F4410000FA41402810B50C4608D042
:102BA800431EDBB21F2B09D8054A22FA03F3DB07C1
:102BB80004D5FFF747FF0CB9024BD86110BD00BF21
:102BC8008B80008000E00040402808B508D0431EF4
:102BD800DBB21F2B0ED8084A22FA03F3DB0709D50C
:102BE800FFF730FF054BDB6930EA03030CBF012018
:102BF800002008BD0020FCE78B80008000E000403A
:102C080080280AD0402808D0431EDBB21F2B0DD8DD
:102C1800074A22FA03F3DB0708D5012906D8054B32
:102C28009A6A0CBF104322EA00009862704700BFFE
:102C38008B80008000E0004008B518B1FFF702FF64
:102C4800014B986108BD00BF00E0004083699B0606
:102C5800FCD4016070474FF4E13303606023838044
:102C6800002383714FF4401383607047036B19B1DD
:102C780043F001030363704723F00103FAE7000000
:102C8800036B23F0010370B50363C36A23F01003D9
:102C9800C36200238363464B984204460D463ED1E7
:102CA800FFF7A6FBC00B0138022850D8414B53F858
:102CB80020002B68B0EB031F4FEA031175D36BB1EB
:102CC800B0FBF1F601FB1600C200B2FBF3F202F012
:102CD800010303EB52039BB243EA06431A0C03F0C9
:102CE8003F036262A362E36A2A7923F06003134315
:102CF800E362E36AAA7923F008031343E362EB7AF9
:102D08008BB3E36A43F01003E3626B79012B2ED097
:102D1800022B42D09BBBE36A23F002032EE0B0F102
:102D2800402F04D1FFF76AFBC0F34F30BBE7224BBB
:102D3800984204D1FFF768FBC0F3CF20B3E71F4BDD
:102D480098420ED1FFF766FBC0F34F20ABE7184B54
:102D58009C4202D0B4F1402F03D10220FFF7FAFAC7
:102D6800A7E70320FAE7E36A23F01003CCE7E36A56
:102D780043F00203E362E36A23F00403E362236B94
:102D8800AA7A23F0300313432363236B2A8923F49D
:102D9800404313432363002070BDE36A43F00203FA
:102DA800E362E36A43F00403E8E74FF0FF30F3E738
:102DB80000300040688F000800000140001001400A
:102DC800FFF7A0B910B501F0FDFB044601F090FC37
:102DD800064B1B68011B201A03B910BD1A688A42EA
:102DE8008CBF121800221A601B69F5E7C004002086
:102DF800054B1A680AB1002111721860012302619B
:102E08000372006801F08EBBC004002073B502ABEA
:102E180003E9030001F0DCFBBDF90420009E064C29
:102E28004FF47A75D317E5FB0623101A63EB0101FB
:102E3800C4E9020102B070BDC00400200023C0E94B
:102E48000033C0E9031303727047000070B50446ED
:102E580001F08FFC64B11A4D29680B4663B96268AA
:102E68002260237261B901F043FC2046FFF7C0FFDE
:102E7800BDE8704001F07FBC9C42F9D01B69EDE7CA
:102E880001F042FC22682B680244226019688A42D9
:102E9800064605D2FFF796FF2068801B2060E4E70E
:102EA8001969186910B91C612061E1E70868824254
:102EB80002D90B460969F4E71C612161D8E700BF14
:102EC800C0040020D0B5FFF77DFF174A13681446E9
:102ED8002BB11969DB68116003B9FEE798472368CD
:102EE80023B9FFF76FFF23689BB9D0BD1E6801F0B7
:102EF8000BFC00278F4208BF864203D323681B6858
:102F0800002BEED123681A69DB682260002BE5D11B
:102F1800FEE71A7A002AE8D10122BDE8D0401868F5
:102F28001A7201F0FFBA00BFC004002070B5164D38
:102F3800044601F01EFC2B6803B11CB9BDE87040C3
:102F480001F019BCA34215D1237A266983B16EB169
:102F5800002323722E60FFF735FF2B6801221868C3
:102F68001A7201F0DFFA00232372E7E701F020FB71
:102F78002E60F8E71A461B69002BF4D09C42F9D161
:102F880023691361EFE700BFC004002038B5044689
:102F98000D46FFF7CBFFC4E9005538BD08B501F071
:102FA80017FB034AD2E90232C01842EB010108BDFF
:102FB800C004002070B50446FFF7F0FF4FF47A72A2
:102FC800002306460D46FDF737FE294620604FF4DC
:102FD8007A7230460023FDF72FFE2046A28070BD8E
:102FE80038B504460D46FFF7D9FF001B61EB050114
:102FF80038BD0000064A137C042B04D8137C013327
:10300800DBB2137470470023137401F089BB00BF4F
:10301800C004002010B5102204460021043001F03D
:1030280074FD0023236010BD002308461A461021B2
:10303800FDF76EB82DE9F0430746054657F8140B1F
:1030480085B00E46144620B3C0F110099145C84614
:1030580028BF90461FFA88F2384401F042FD2B68D9
:1030680043440F2B2B601CD9A1451AD22A1D1346A5
:1030780012F8011BD07BBA4281EA000102F8011C58
:10308800F6D1002210211846FDF7CAF84644A4EBF1
:103098000804102C08D8A2B23146384601F021FDA8
:1030A8002C6005B0BDE8F0832B1D711E98461A7878
:1030B80011F8010F424003F8012BBB42F7D110224F
:1030C8004146684601F00DFD6B4600221021684616
:1030D800FDF7A6F810226946404601F002FD1036B9
:1030E800103CD6E770B588B0102205460C466846F5
:1030F800002101F00AFD6B46002210216846FDF709
:103108008FF89DF90030002B6A464FF0000140DA35
:10311800137812F8010F01315B0043EAD0130F292D
:1031280002F8013CF4D19DF80F305B0083F087036F
:103138008DF80F302368102B3AD104F11403694637
:1031480004F124001A7811F8016B724003F8012B7E
:103158009842F7D1231D1946143413F8012BD87B54
:103168009C4282EA000203F8012CF6D110220DEBF2
:10317800020001F0B6FC10212B460DEB01000022E5
:10318800FDF74EF810220021684601F0BEFC08B099
:1031980070BD137812F8010F01315B0043EAD013B8
:1031A8000F2902F8013CF4D19DF80F305B00BFE70E
:1031B8009DF90020002A69464FF000002FDA0A78AE
:1031C80011F8016F0130520042EAD6120F2801F8B7
:1031D800012CF4D19DF80F20520082F087028DF85F
:1031E8000F20E2188021581C11750026014604F1B1
:1031F80014020F2922D91028C3F10F03214688BFD2
:103208000023034441F8243B684613461A7810F813
:10321800016B724003F8012B9942F7D19AE70A78BB
:1032280011F8016F0130520042EAD6120F2801F856
:10323800012CF4D19DF80F205200D0E756540131EB
:10324800D7E7012070470000034B1B6813B15B6888
:1032580003B11847704700BFD4040020034B1B6814
:1032680013B1DB6803B11847704700BFD4040020CE
:10327800002000F0EDBD000010B5134C206000F0F8
:1032880015FF002000F0E4FD012000F08EFE002173
:10329800084601F08BF80421002000F059FF0023B4
:1032A800194618461A4600F0D1FE08490848FFF7A3
:1032B800C5FD08490848FFF7C1FD08490848FFF758
:1032C800BDFD0020207110BDD4040020513200083B
:1032D800440F002065320008801000205534000893
:1032E8005810002008B500F035FDC31EDBB2022BD4
:1032F8009ABFC0F10600C0B2002008BD00F0ECBEC5
:1033080008B501F060F800B208BD01F055BB01F046
:103318001FBB000038B50C46002340F201211A46B5
:103328000546084600F092FE00F00CFF0B4B012802
:103338000A480CBFDC731C7200F0C4FF2146284603
:10334800002200F0B1FD064B06489968FFF71EFE03
:10335800BDE838400348FFF779BD00BF080F0020DB
:10336800D4040020440F002008B54FF0040000F0FA
:103378005DFDBDE808400220FFF722BD00F0D0BD8A
:1033880037B5184B93F838500F2805F10D05EDB2F5
:1033980022D8072822D8032822D8012894BF00243D
:1033A800012400234FF4C0711A46084600F04EFE6F
:1033B800002300930A222946204600F0D9FF00F096
:1033C800CBFD09484FF4FA61FFF7E0FD064803B06A
:1033D800BDE83040FFF73ABD0424E2E70324E0E704
:1033E8000224DEE7080F00205810002010B50C4614
:1033F8002DED028B08EE102A00F06EFE204601F03B
:1034080033FB00F0B5FDDFED0A7A0A48B8EEC88A4A
:1034180028EE278AFCEEC87A17EE901AFFF7B6FD59
:10342800BDEC028B0348BDE81040FFF70FBD00BF9D
:1034380000007A448010002001F066BA01F094BAC6
:1034480008B501F0D5F9033008BD000010B500201B
:1034580000F086FC044B1B682BB19B691BB1BDE8CF
:1034680010400020184710BDD404002010B590B1BA
:103478000A4B012219461C68A04206D39C68A04248
:1034880003D201EBC202107910BD0132162A03F1F2
:103498000803F0D1FEE71F20F6E700BF788F000889
:1034A8000128074804D1074BC173197000F00ABFFF
:1034B800C379012B03D1034B01721970F6E77047EA
:1034C800080F002000000020002340F2422110B520
:1034D8001A460446084600F0B9FD34B109482146A9
:1034E800FFF754FD0748FFF7B1FC074B1A7B2AB1D9
:1034F8006FF07F40BDE8104000F0E0BC1869800123
:10350800F8E700BF80100020D40400200023022127
:1035180010B51A460446084600F098FD34B109482B
:103528002146FFF733FD0748FFF790FC064B1A7B4F
:103538002AB16FF07F40BDE8104000F0D5BC186993
:103548008001F8E780100020D4040020F7B5504C23
:103558002379002B00F08A804E4D01F00AF90023F0
:10356800237101F008F92B88D9070AD54A48FFF7D3
:10357800DDFC012000F0F4FB236813B11B6803B1E4
:1035880098472B889A0731D54448FFF7CFFC267B0C
:1035980096B9012000F0E4FB314640F6021001F034
:1035A800D7F940F6441001F007FA40F00200C1B222
:1035B80040F6441001F0CCF9394E3A48FF220DF19B
:1035C800070100F031FF304600F048FF23686BB177
:1035D8009F685FB12B885B0608D496F90D3096F981
:1035E8000C209DF807102F481A44B8472B88580616
:1035F80009D5237B13B9012000F0B2FB236813B16E
:103608001B6903B198472B8819060DD52648FFF783
:103618008DFC012000F0A4FB23682BB19B691BB132
:103628002888C0F3002098472B889A050ED500F00B
:1036380091FB04281CD11848FFF778FC012000F002
:103648008FFB236813B15B6803B198472B889B06EF
:103658000CD51248FFF76AFC237B13B9012000F050
:103668007FFB236813B1DB6803B1984703B0F0BD53
:1036780000F070FB0528E9D10848FFF757FC012046
:1036880000F06EFB2368002BE0D0DB68DCE700BFAE
:10369800D4040020040F0020440F002080100020D4
:1036A8006C100020580F0020581000200D4B10B54A
:1036B80004461875587500F017F85CB134214FF4BA
:1036C800E86001F045F94421BDE8104040F241703E
:1036D80001F03EB914214FF4E86001F039F92421D2
:1036E800F2E700BFD404002008B5012000F01AFD5D
:1036F800054B187D5A7D824204D05875BDE80840B4
:10370800FFF7D4BF08BD00BFD4040020012808B5C6
:1037180006D0002000F006FD034B00225A7508BDB4
:10372800BDE80840FFF7E0BFD4040020F8B50D4617
:1037380017461C46FFF7EAFF284600F0CDFC00209C
:10374800FFF7C2FE0120FFF73BFBFFF727FC002530
:10375800064630460021FFF743FCA94208BFA042B5
:1037680004D30124FFF700FE2046F8BD00F02BFE2D
:1037780000B28742EDDA0024F4E737B5FFF7B4FF6B
:10378800002000F09BFB002425460120FFF718FBD2
:1037980000F019FE00F00103A3400134202C45EA93
:1037A8000305F2D101F076F928440190FFF7DCFD1A
:1037B800019803B030BD00000A2838B50DD8084B71
:1037C80003EBC000D0E92C4501208840FCF7E8FE57
:1037D80022462B46FDF778F838BD00240025F3E78C
:1037E800788F0008000000002DE9F04F85B01546DD
:1037F8009DF84C2000929DF85C209DF84470DFF8FD
:103808000092BDF8404089F80C20002A18BF002417
:10381800734ABDF83C80002F0E469DF8481008BF3B
:10382800FF2111708246934620B101286DD005B062
:10383800BDE8F08FDFF8C0B100F09FFB0B233046E6
:103848008BF834308BF828A0CBF82C50FFF70EFEFD
:10385800634A8BF8350041F60403ABF8043013785B
:103868008BF80830009B8BF800A0002B14BFF223C4
:10387800012387F001078BF809304FEAC8080123B4
:103888008BF80A308BF80770ABF802808BF806A02B
:10389800FFF7EEFC9BF82800003818BF0120FFF75F
:1038A80035FF0BF1280000F0B3FC584600F00AFD84
:1038B8004C4A1068516802AB03C302A800F06DFAC5
:1038C80040F2FF1000F096FA2846FCF759FE02462F
:1038D8000B4600204449FCF7F7FF444B0022FCF755
:1038E800C9FE064620460F46FCF75AFE02460B461E
:1038F80030463946FCF7BEFE3D4B0022FCF7BAFEC7
:10390800FDF77AF9C9F8100091E70020019300F05B
:1039180034FBE0B200F03DFB364A374C019B84F89B
:1039280028A032445FFA85F992F8100184F838909B
:1039380084F8390084F83A3096BB0B3D012D33D812
:103948000123A9F10509994584F83BA0237039D8CA
:10395800B8F10B0F36D80C23A3819BF80030E37322
:10396800009B23749DF858306374A773FFF7BCFE5F
:10397800224800F04DFC204800F0A4FC637C012B99
:1039880040F2367021D101F017F800F0FB0140F247
:10399800367000F0DDFF1A4A4FF6FF73136146E7F1
:1039A800012E01D10C2DCBD04946FFF705FF0AA304
:1039B800D3E90023FDF7E4F8B0F1000A18BF4FF08F
:1039C800010ABDE7A4F80C80C7E700F0F5FF40F056
:1039D8000400C1B2DBE700BF000000A0476130402F
:1039E80000000020809000080000F03F0000204008
:1039F80000408F40788F0008080F0020300F00200B
:103A0800D4040020000000002DE9F74F0C9EBDF8FB
:103A180038709DF83C809DF840A08946934605463D
:103A280048B1012845D040F6890000F0C5FF40F0B4
:103A38000400C1B283E0544C0B2284F828001846D5
:103A480084F83420E662FFF711FD41F60403BAF169
:103A5800000FA38014BFF22301236372FF00012328
:103A680088F00108A37284F83500C4F830B02570D6
:103A78006780A57184F80780FFF7FAFB94F828009F
:103A8800003818BF0120FFF741FE04F1280000F0BC
:103A9800BFFB204600F016FC3C4A106851686B4694
:103AA80003C3684600F079F940F2FF1000F0A2F96C
:103AB800B9E7374A344C1A4484F828005FFA86FB81
:103AC80092F810019DF8342084F838B084F8390051
:103AD80084F83A20002B3FD10B3E012E40D8012319
:103AE800ABF1050B9B4584F83B50237044D80B2F52
:103AF80042D80C23A381274B84F80E801B78E373EC
:103B08009DF84C30637484F810A0FFF7B1FB94F86B
:103B18002800003818BF0120FFF7F8FD1E4800F004
:103B280077FB194800F0CEFB94F83930062B7FF468
:103B38007AAF40F6890000F03FFF00F0FB0140F645
:103B4800890000F005FF484600F08EFF149A134BD9
:103B58009A6003B0BDE8F08F012B01D10C2EBED0C6
:103B68005946FFF729FE06A3D3E90023FDF708F815
:103B7800051E18BF0125B2E7A781BCE7AFF3008097
:103B8800000000A047613040080F00208090000826
:103B9800788F000800000020300F0020D404002097
:103BA8002DE9F74F884628B101283DD0002003B001
:103BB800BDE8F08F5A4A9FED5B6A5179538803EB51
:103BC800D10307EE903AD379F8EEE77A002B07EEA7
:103BD800108AF7EE006A08BFF0EE466A77EEA67A1A
:103BE800B8EEC77A537A77EE877A022BB0EE007A6E
:103BF80018BFB0EE467A77EE877AB2EE007A67EEB3
:103C0800877A92ED0B7AB8EE477AC7EE876ADFEDCE
:103C1800467A66EEA77A17EE900AFCF7D3FC05F011
:103C28008FF8FCF7E9FFC2E7DFF8F4A09AF838B09C
:103C38009AF839005946FFF7BFFDBAF80C3007EE7D
:103C4800903AF8EEE77AB1EE017A77EE877A044691
:103C58000D4617EE900AFCF7B5FC22462B46FCF7FA
:103C680009FD9AF80E300646CBEB48089AF8100082
:103C7800012B08F1070808EB80080CBF142000206E
:103C8800C0EB88000F46FCF78BFC9AF83B30002B02
:103C9800804614BF02200020ABEB0000800089465C
:103CA800FCF77EFC02460B4640464946FCF70CFEF4
:103CB80004F04EFF02469AF83A0000F003000B4663
:103CC8000430CDE90023FCF76BFCDDE90023FCF7A9
:103CD800D1FC0022002380468946FCF75BFF18B917
:103CE8004FF000084FF00009104B002240464946AB
:103CF800FCF70AFB22462B46FCF7BCFC32463B4647
:103D0800FCF702FB04A3D3E90023FCF7FDFA04F057
:103D18009BFF86E7AFF30080000000E0CEF7EF3F9F
:103D2800080F00200000000000007A440000204036
:103D380008B5064B01221A7100F09DF9044B188052
:103D4800BDE808404FF6FF7000F0C8BBD40400205F
:103D5800040F0020014B1878704700BFEC040020C6
:103D6800014B1870704700BFEC04002008B5074BE2
:103D78001A7812B11B78062B03D100F067FD00F00A
:103D880079FEBDE8084000F055BD00BFEC040020F6
:103D98000A460146002000F01BBE08B5014608226D
:103DA8004FF4D86000F0B0FD002008BD07B5074B00
:103DB8005B7840BAADF804002BB9022201A940F2A1
:103DC800BC6000F0A1FD03B05DF804FBEC0400202A
:103DD80007B5074B5B7840BAADF804002BB902224F
:103DE80001A940F2BE6000F08FFD03B05DF804FB4E
:103DF800EC04002010B50C4B5B7804469BB94FF4DB
:103E0800D76000F0D9FDC4F3002100F0FE000143A3
:103E18004FF4D76000F09CFDE1B240F2B960BDE814
:103E2800104000F095BD10BDEC04002007B58DF8DA
:103E3800040000F027FE012201A9842000F01EFDE5
:103E4800024B00221A7003B05DF804FBEC0400205A
:103E580007B501228DF807000DF10701802000F059
:103E68000DFD9DF80720044B22B901221A7003B0FA
:103E78005DF804FB0222F9E7EC04002007B5094BC2
:103E88008DF8060004221A70030C8DF80430032202
:103E9800030A01A983208DF8053000F0EFFC03B078
:103EA8005DF804FBEC04002010B51446FFF770FF22
:103EB8002046BDE81040FFF7E1BF000007B5094BF9
:103EC8008DF8060005221A70030C8DF804300322C1
:103ED800030A01A982208DF8053000F0CFFC03B059
:103EE8005DF804FBEC04002013B50C4B04460522D6
:103EF800962140F6AC001A7000F02AFD230C8DF8CC
:103F080004300322230A01A982208DF805308DF898
:103F1800064000F0B3FC02B010BD00BFEC04002066
:103F280007B5030C8DF80030030A8DF801300B0C2F
:103F380049BA8DF80200ADF80410062269469420AB
:103F48008DF8033000F09AFC024B06221A7003B079
:103F58005DF804FBEC040020002208B51146C520DA
:103F680000F08CFC014B07221A7008BDEC040020FD
:103F780000221146D12000F081BC07B501228DF83E
:103F880007000DF107019F2000F078FC03B05DF8F1
:103F980004FB07B501228DF807000DF10701A020E9
:103FA80000F06CFC03B05DF804FB07B501228DF846
:103FB80007000DF10701962000F060FC03B05DF8E2
:103FC80004FB0000134B984207B50BD94EF6E113DA
:103FD800ADF80430022201A9982000F04FFC03B08C
:103FE8005DF804FB0C4B984202D94DF6D703EFE776
:103FF8000A4B984202D94CF2C153E9E7084B984260
:1040080002D948F27513E3E7064B9842E2D946F61F
:104018006B73DDE700E9A43580F8A9328044E52D0B
:10402800000B6B1B40FC541907B58DF806200422C1
:104038008DF804008DF8051095200DEB02018DF820
:10404800073000F01BFC03B05DF804FB07B552BA5B
:10405800ADF8042040BA082249BAADF80000ADF81E
:1040680002105BBA69461046ADF8063000F006FC4F
:1040780003B05DF804FB07B5022201A9122000F085
:104088001FFC9DF804009DF8053043EA002003B0AA
:104098005DF804FB07B501228DF807000DF1070153
:1040A8009D2000F0EBFB03B05DF804FB08B500F0C1
:1040B80071FB00F09FFB00F0C9FB0020FFF7C8FE72
:1040C8000120FFF7E7FF024B01221A7008BD00BF6D
:1040D800EC0400200000000037B5114DAB78044611
:1040E8001BB9FFF76FFF0123AB702046FCF748FAB6
:1040F80009A3D3E90023FCF7E7FBFCF77DFD0422C5
:1041080000BA01900DEB0201862000F0B7FB03B066
:1041180030BD00BFAFF30080000000008084EE3F98
:10412800EC04002007B5064B8DF8070058700122F3
:104138000DF107018A2000F0A1FB03B05DF804FB34
:10414800EC040020014B5878704700BFEC040020B5
:1041580037B5044600200D4600F089FC01280346C7
:1041680020D10F2C02464FF000010CBF062004207E
:10417800FFF75AFF6FF002008442B8BF04460E2CC6
:10418800A8BF0E24182140F6E70000F0E1FB022248
:1041980001A98E208DF804408DF8055000F06EFBC3
:1041A80003B030BD40F6D80000F006FC40F01E0019
:1041B800C1B240F6D80000F0CBFB134B18780228A8
:1041C80018D0032806D0012818D10346002205215B
:1041D800032003E00221012300220846FFF724FF01
:1041E8006FF002008442B8BF0446162CA8BF1624FC
:1041F8003821C8E7012300220321EFE70123002229
:1042080007210420EAE700BFFD04002000000000A9
:1042180013B5294A0446516810686B4603C3274BF7
:1042280020785B78834201D0FFF77CFF23781BB1AD
:10423800012B35D002B010BD6068FCF7A1F9024629
:104248000B4619A1D1E90001FCF73EFB00221C4BEB
:10425800FCF710FAFCF7D0FC030C8DF80030030AC9
:104268008DF80130237B8DF802008DF80330A068AB
:10427800637B8DF80430FCF783F90DA3D3E90023A1
:10428800FCF722FBFCF7B8FC030C40BA8DF80530AC
:10429800ADF80600082269468B2000F0EFFAC9E75E
:1042A800236900930422F6E70000000080847E4121
:1042B800000000008084EE3F00910008EC0400201C
:1042C800000040401FB5284A044651681068127A19
:1042D80001AB03C31A70254B20785B78834201D069
:1042E800FFF720FF23781BB1012B31D004B010BD9C
:1042F800637AF12B20D14FF6FF70FFF757FD48F294
:104308000500FFF765FD02236288A188ADF8061055
:1043180052BAE188ADF804208DF80B30227AA37ADE
:104328008DF80A20ADF808108DF80C30092201A983
:104338008C2000F0A3FAD9E7F22BE5D141F60F5013
:10434800FFF734FD41F22100FFF742FD0623DBE7CA
:10435800A3895BBAADF80430E389ADF80630238A47
:10436800ADF808300622E2E708910008EC040020C6
:1043780013B5049C8DF80330230C8DF800008DF8DC
:1043880001108DF802208DF804300522230A6946B1
:1043980088208DF805308DF8064000F06FFA024B42
:1043A80007221A7002B010BDEC04002007B50222E3
:1043B8008DF804008DF805108F2001A900F05EFA31
:1043C80003B05DF804FB07B5012201A9152000F030
:1043D80077FA9DF804004042401003B05DF804FBF2
:1043E80037B504460D46022201A9132000F068FAE9
:1043F8000C4B5B78012B11D140F2047000F0DCFA11
:10440800C0F3C710012809D140F2027000F0D4FAB5
:1044180020709DF805302B7003B030BD9DF8043036
:104428002370F6E7EC040020F7B50D460646002495
:104438000DF10701284617468DF80740FFF7D0FF12
:104448002A78BA4207D89DF80700314600F0E4FA06
:10445800204603B0F0BD0120FBE7000013B503229E
:10446800044601A9142000F02BFA1B4A5178217048
:1044780049B1012917D014220021204604F0A8FAD6
:104488000F2323700DE09DF8043023719DF805304B
:10449800A1605B425B10A3719DF806305B425B1024
:1044A800637102B010BD9DF804309DF905105B42A0
:1044B8005B1023739DF805300029B6BFA3F5807300
:1044C8009B089B1063739DF806305B425B10A373D7
:1044D80053682361E5E700BFEC04002007B502221A
:1044E80040BAADF8040001A9104600F0C7F903B0BE
:1044F8005DF804FB10B5094C23786BB9FEF793FA05
:1045080001210320FDF792FF0120FEF7A5FA044BD5
:1045180002221A600123237010BD00BFF40400209A
:1045280000E100E070B5052886B038BF052003AC6F
:1045380005462046FEF7C2FA94E807001A4C6B4677
:1045480083E8070084E807000020FEF795FAFDF7E6
:1045580067FF0228284614BF4FF400464FF4FA4676
:10456800FCF70EF8044630460D46FCF709F80246FB
:104578000B4620462946FCF77DF80C4B0022FCF739
:10458800A3F904F06DFCFCF76FFBFEF755FB012067
:10459800FEF782FA0120FEF76FFA01211020FEF7DC
:1045A8002FFB06B070BD00BF9810002000408F4060
:1045B80008B50020FEF760FABDE808400021102089
:1045C800FEF71EBB014BD3E900017047A81000207D
:1045D8002DE9F04F89B005A8FEF770FA9DF818305C
:1045E800BDF814109DF817009DF819C09DF81AE041
:1045F8003B4F00261A4600259DF81B3003930024E4
:10460800CDE90056079B374E0293A1F5FA68A246FA
:10461800A34625B245451FFA84F917DB11F00301BB
:1046280000F1FF3059D0304D304E0024E1B28142C4
:1046380004F101042BDA2944DDE90078097B714390
:104648007F1848F10008CDE90078EFE7009B15B125
:1046580019F0030F07D19B190093019B43EB0A0341
:1046680001930134D5E7DB190093019B43EB0B035E
:10467800F6E7DDE900782C5D74433F1948F100083E
:10468800CDE90078CCB2844201F10101F1DB3C2490
:10469800AEFB04454FF46161E1FB0C45039B1349F4
:1046A800501EE41801FB00F1009B45F10005641859
:1046B800019945F100054FF47A70E21845EB0101C4
:1046C800A2FB002300FB01330299B1FBF0F01018A4
:1046D80043F1000109B0BDE8F08F034D034ED1E767
:1046E8008033E1010085E201119100088051010049
:1046F80038B5FFF76DFF034B04460D46C3E9004587
:1047080038BD00BFA810002008B5FFF761FF034AB5
:10471800D2E90032C01A61EB020108BDA8100020DE
:1047280008B5064B5B68984730B9FEF78BF9BDE8CA
:1047380008400320FDF7FEBD08BD00BF94900008A7
:1047480008B51020FEF740FA90B10020FEF794F962
:1047580000211020FEF754FA00211020FEF71CFA61
:10476800FEF7B0FBBDE8084001211020FEF748BA6B
:1047780008BD72B6704762B670470000044B986077
:10478800DA6802F01102012AFAD19868C0B27047BB
:104798000090004010B5134C4FF40073C4F800317A
:1047A8000723236002232361D4F80431802B0BD024
:1047B8001420FDF78FFC0023C4F80C311420FDF7FA
:1047C80089FC0123C4F80C31064B074802225A60C1
:1047D800064B4FF400121A60BDE8104003220B216B
:1047E800FDF728BD0090004000FC014000E100E01A
:1047F800052070470E4BD3F8042142F02002C3F87D
:104808000421D3F8042122F08002C3F80421D3F84C
:10481800002142F02002C3F80021D3F8042142F01D
:104828000102C3F80421D3F80821D205FBD470474C
:104838000090004008B50A20FDF74CFC024AD2F867
:104848000831DB05FBD408BD0090004038B572B6CE
:10485800094C0025C4F80C510A20FDF73BFCC02088
:10486800FFF78CFF2846FFF789FF0123C4F80C31B6
:10487800FFF7E0FF62B638BD00900040F8B50F4F73
:104888000C4615460646FFF771FA0023C7F80C31A7
:104898003046FFF773FF2544AC4208D10123842E2C
:1048A800C7F80C3108D0BDE8F840FFF7C3BF14F8CB
:1048B800010BFFF763FFEFE7F8BD00BF0090004072
:1048C80073B5104E019015460C46FFF74FFA0021BC
:1048D800C6F80C110198FFF751FF0846FFF74EFF85
:1048E8002544AC4207D10123C6F80C3102B0BDE81B
:1048F8007040FFF79FBF0020FFF740FF04F8010B4F
:10490800EFE700BF00900040F8B5104E0C46154682
:104918000746FFF72BFA0023C6F80C310D20FFF7E6
:104928002DFF380AFFF72AFFF8B2FFF727FF2544C3
:10493800AC4206D10123C6F80C31BDE8F840FFF7B8
:1049480079BF14F8010BFFF719FFF1E70090004059
:1049580007B501228DF807100DF10701FFF7D4FF05
:1049680003B05DF804FB0000F8B5124E1546074683
:104978000C46FFF7FBF90021C6F80C111D20FFF7C4
:10498800FDFE380AFFF7FAFEF8B2FFF7F7FE084611
:10499800FFF7F4FE2544AC4206D10123C6F80C31DA
:1049A800BDE8F840FFF746BF0020FFF7E7FE04F830
:1049B800010BF0E70090004007B501220DF1070157
:1049C800FFF7D2FF9DF8070003B05DF804FB000075
:1049D800F8B5154607460E46FFF7C8F90D4B0024F3
:1049E800C3F80C410E20FFF7C9FE3846FFF7C6FE94
:1049F800ADB2A3B29D4207D8064B0122C3F80C21E1
:104A0800BDE8F840FFF716BF305DFFF7B7FE013489
:104A1800EFE700BF00900040F8B515460E46074680
:104A2800FFF7A4F90F4B0024C3F80C411E20FFF731
:104A3800A5FE3846FFF7A2FE2046FFF79FFEADB25F
:104A4800A3B29D4207D8074B0122C3F80C21BDE849
:104A5800F840FFF7EFBE0020FFF790FE3055013415
:104A6800EEE700BF009000400221FFF771BB022073
:104A780070470000024803220A21FDF749BB00BF26
:104A880000F00140024804220A21FDF741BB00BFA3
:104A980000F00140074B0849186843F2390201FB4E
:104AA800002018606FF00043B0FBF3F3C3EBC3734F
:104AB800C01A7047040000206D4EC641014B1860B3
:104AC800704700BF0400002038B505460C46FFF7C4
:104AD800E1FF611B013190FBF1F303FB1100284456
:104AE80038BD01380A44914200D1704711F8013BA2
:104AF80000F8013FF7E710440A44914200D170479B
:104B080011F8013B00F8013DF7E70244904200D15B
:104B1800704700F8011BF9E7044B04221A70044A95
:104B2800137843F010031370704700BF000500208E
:104B3800B010002038B55D4C237E0238C3F18003E5
:104B4800DBB2112800F2AE80DFE800F009132B3346
:104B580041555C656DACAC73ACAC7E8B9AA4627E3F
:104B68009A4280F0A180531C6376224402239376F4
:104B78000DE0627E013B9A4280F29680A3180320E2
:104B88009876931C013254FA82F26376917694F8FF
:104B98009B00012384F89A3010B1FFF7BDFF002075
:104BA80038BD627E9A427FD2531C63762244042326
:104BB800DDE7627E013B9A4276DAA31805209876F3
:104BC800931C013254FA82F26376917610E0607E8B
:104BD800023B984268DA231806259D76431C54FA4E
:104BE80083F39976C31C023054FA80F06376827698
:104BF800FFF792FFCBE7627E013B9A4254DAA31893
:104C08000720BDE7627E9A424ED2531C2244637647
:104C180008239376ECE7627E9A4245D2531C63766A
:104C280022440923A3E7627E9A423DD2A3180A20B0
:104C3800C5E794F91920637E002A35DB5A1C627691
:104C480023440D229A76A2E7637E7E2B2CD8E218A5
:104C5800102090769A1C013354FA83F36276997681
:104C680095E794F91920637E002A1DDBE2181120CC
:104C780090769A1C013354FA83F362769976B7E7F3
:104C880094F91920637E002A0EDB5A1C62762344AD
:104C98001222D7E794F91920637E002A04DBE21870
:104CA8001320E5E702207BE7012079E700050020D3
:104CB80070B51E4B1E4C1F481F4D012101704170DD
:104CC8008170A3F8B0102188298094F8211085F804
:104CD8002110D4E9090105F1240686E80300A18D15
:104CE800A9850022216B2963C3E92822616B6963C6
:104CF800D3F8B41083F89C20C3F8A82083F8AC201C
:104D080083F8AD2083F8AE205A761A7683F8B2205D
:104D180083F89B2083F89A2021B983F8B81083F888
:104D2800B91070BD4A62896BF6E700BF0005002024
:104D3800B410002008000020F010002037B5144BF4
:104D48008DF80110144693F82C2093F838308DF81C
:104D58000220092205468DF8002013B10A238DF898
:104D680000300C4B694693F8BA0002F097FD83B205
:104D780060198342A2B202D23CB19A4205D8FF28F8
:104D88008CBF0020012003B030BD0020FBE700BF2E
:104D9800F01000200005002010B50E4C04F1BC00F6
:104DA800FEF7C4F894F8B220234642B1012284F8F1
:104DB800AD20D4F8D02022F00402C4F8D02093F813
:104DC800D430022B01BF044A137843F02003137038
:104DD80010BD00BF00050020B010002008B5114B21
:104DE800D3F8D02042F04002C3F8D02093F8B23074
:104DF8000BB1FFF7D1FF0C48FEF798F80B48FEF708
:104E080095F80B4A0B48137823F0220343F022034A
:104E180013700121FEF7BAF8BDE808400548FEF70F
:104E280015B800BF00050020D8050020EC050020BB
:104E3800B0100020000600202DE9F04F89B0DFF8FF
:104E480020A39DF84870033F06460C4690469946B5
:104E5800FFB2444502D309B0BDE8F08F335D651C4D
:104E6800023BEDB2112BF6D801A252F823F000BF95
:104E7800C14E0008EB4E0008974F0008B94F0008D4
:104E8800255000083F50000893500008BD50000806
:104E98001F5100085F4E00085F4E0008715100085E
:104EA8005F4E00085F4E0008255200083152000886
:104EB8006552000881520008012002F05FFB70B1C2
:104EC8000121002002F0F4FA725DA24BE51C0234C5
:104ED800E4B283F82821325D83F82921EDB22C460B
:104EE800B7E7013D00239B488DF8093035448DF81C
:104EF8000A308DF80B308DF80C300595A8EB0403BB
:104F0800954D8DF8183090F840318DF81A3095F895
:104F18002C308DF819306B788DF81B302B788DF884
:104F28001C3095F820308DF81D3003AB01930DF13E
:104F38000B03009305A90DF10A0390F8BA000DF1CF
:104F4800090202F00EFD00F00703072B014609D104
:104F58009DF80B3085F820309DF809306B709DF86E
:104F68000A302B704FF0000B05255FFA8BF29DF885
:104F78000C30B3FBF5F0904202D81C44E5B2AEE722
:104F880000220320FFF7D6FD0BF1010BEDE7715D61
:104F9800704A01238B4082F8AE100234A2F8B03078
:104FA8000022E4B211460420FFF7C4FD254696E727
:104FB800735DC3F3021203F00F038DF815208DF80B
:104FC8001430221DE31CDBB2D2B2651D0234F15C41
:104FD800B35CE4B21B04325D43EA01231343642249
:104FE800534306935B4B05A993F8BA0002F0C9FC3A
:104FF80000F00703072BEDB201460AD1564B9DF886
:10500800142083F82820069A5A629DF8152083F800
:10501800212000220520FFF78DFD60E74D4BD3F8D6
:10502800443133B11B6823B1984701464A460620EC
:10503800F1E7FF21FAE7735D8DF8103005AB0393B4
:10504800221DE31CDBB2D2B2F15CB35CA21CD2B26B
:105058001B04B25C43EA0123A51D05341343E4B2E3
:10506800642253430593335D8DF81C30394B4FF060
:10507800000B03A993F8BA00CDF818B002F088FC29
:10508800EDB201465A460720C5E7735D03F00F03EA
:10509800012B38BF01231A464FF47A7353432E4A23
:1050A800136103F57A73023453610022E4B21146A6
:1050B800082079E7735D00228DF8142013F0200290
:1050C80018BF01228DF81520DA0603F00F038DF8BA
:1050D8001630204B48BF012293F8BA0048BF8DF81C
:1050E800142005A902F05BFC02340130E4B23FF45D
:1050F8005DAF194BBDF8142018499A859DF8162004
:105108008A5C07EE902AF8EE677A0022C3ED0C7AE3
:105118001146092048E7735D8DF81430221DE31C01
:10512800DBB2D2B2651D0234F15CB35CE4B21B049D
:10513800325D43EA01231343642253430693054B2C
:1051480005A993F8BA0002F031FCEDB2014600223D
:105158000A2060E700050020F010002029910008CF
:10516800803DD51200007A400023ADF81230A31C10
:10517800DBB21FED047A16F803B0E31CDBB205A816
:10518800F25C120442EA0B22231D16F805B0A51D95
:105198000534DBB2E4B242EA0B0216F803B0335D21
:1051A80007EE903AF8EEE77A42EA0B6B67EE877AF9
:1051B800EDB2FDEEE77A17EE903A1CB2FDF7FAFE73
:1051C8003A4BBDF91810D3F84821B3F84C3105987B
:1051D800E31A9CB21BB2002BBCBF04F57A731BB256
:1051E800AAEB020219448BB25A4409B2B8BF02F1C1
:1051F800FF32B1F57A7FA8BFA3F57A710244A4BF44
:1052080009B20132ADF81010104604990392FDF767
:10521800FDFDFDF7C3FE02F0DFF860E6012F7FF623
:105228005EAE02F0D5F85AE6A21CD2B2715DB05C4F
:10523800E21CD2B2651DB35C0434E4B21B0443EA39
:105248000023305D0B436421594300F00F0002F046
:10525800C0F8EDB2014600221120DCE6A31CDBB247
:10526800F05C735D251D0334E4B243EA0020315D30
:10527800EDB202F0B0F832E6705DA21C251D0334D1
:10528800E4B2D2B2335DB25C1B0443EA02230343A7
:105298006420584302F0A1F8EDB2024618B100228A
:1052A80001211320B7E60146FBE700BF00050020F7
:1052B8002DE9F04F2DED028B93B09F4E06930023FE
:1052C8000F9386F87431A6F89621A6F88A3186F8E5
:1052D8008D31C6F89031A6F8943186F89A31C6F81F
:1052E8009C3186F888311746944B069A86F898219F
:1052F80096F8A021DB6A86F8992105460C4698475E
:1053080006F1EC00FDF712FE2146284602F04DF8A2
:10531800B246814638B1069BF781337413B0BDECB1
:10532800028BBDE8F08F96F8D460012E0AD102F006
:1053380040F8B8B1304602F031F802F034F80323EF
:105348008AF899312B7807935B09013B062B00F209
:105358006782DFE813F012006502AF006502AF0054
:105368006502510202F027F80028EBD0304602F01F
:1053780016F802F019F80423E2E79AF89C601EB1C7
:1053880001238AF8893145E1611E681C6C4BDAF803
:10539800A02289B202F01CFA079B6A488AF8A13158
:1053A800211F0FABDAF8A02289B202F0F3F90AEB59
:1053B8000403304693F89D8193F89E7193F89F916A
:1053C80093F8A05102F0DAF800284FD02D0645EAEC
:1053D80009450F9B45EA080545EA0725AB4264D114
:1053E8005949009101F11003BAF8A422DAF8A00291
:1053F800523102F00CFA9AF8A7319AF8A6219AF8D5
:10540800BA001B0443EA02239AF8A5211343CAF8F9
:10541800A8329AF8AC21DAF8A831CAF8AC324B4B6A
:10542800C2F3021102F00F0283F828209AF8AD2186
:1054380083F8211012F00F0208BF01221A611969BE
:105448004FF47A724A431A6102F57A725A6110A9C6
:105458003F4B1093113C8DF8444002F03EFA002176
:10546800084602F025F801238AF89C30324C94F85B
:10547800B230002B40F0DA8194F8D430022B02D1FC
:105488003448FDF753FD94F8C430002B7FF446AF41
:10549800314A32481378012143F020031370FDF795
:1054A80075FD2E48FDF7D2FC38E73146072001F09C
:1054B800FFFFDBE7254B93F82D208DF8362093F876
:1054C80038309AF88C218DF8352009228DF834204F
:1054D80013B10A238DF834309AF8BA000DA902F0F6
:1054E800DDF9A4F10D031BB223EAE37383420E90A6
:1054F8003FF646AFD5F801306E7908EE103ADAF883
:10550800AC3218EE102A934200F08780DAF8B470B3
:105518000FB90B2335E73B6818EE102A934208D1E0
:10552800079BD7F8248003F0E003602B18D00D23E5
:1055380027E7BF6BECE700BF000500209490000848
:10554800A2060020A106002050060020F01000202E
:10555800AE060020BC050020B01000200006002088
:1055680016F0600FE3D107F11403099301233A1DE4
:10557800059306F00F0308932B1995F806A013F866
:1055880002BC13F8031C4FEA0B4B4BEA012B13F830
:10559800041C13F8013C4BEA010B4BEA036BEB7953
:1055A8004AEA032AAAEB080A1FFA8AF30A930FFAAF
:1055B8008AF3211F002B89B20FA838DB0A9B0B92B4
:1055C80098440123CDE901800093284618EE103A4B
:1055D80002F030F80F98584518BF4FF00009DFF86F
:1055E8006CA20B9A9AF8BA000B924FF011030DA90E
:1055F80008BF4FF001098DF8343002F04FF90A9BCB
:105608000B9A0E908342D34623D30A238AF8893112
:10561800CAF89C81FFF7E2FB80E600230593894BDB
:10562800DAF8A480099303F110020027A1E708F52E
:10563800803A9A440123CDE901A00093284618EE48
:10564800103A0B9201F0F6FF0F9B5B4508BFD0465E
:10565800C5E7B9F1000F00F0CD80059905988AF8E3
:105668008A110023C6F300118AF88D118AF889314E
:10567800CAF890318AF89431CAF89C818AF8713155
:10568800CAF8A8308AF81830514600284DD00223AD
:105698008AF888317B6A434506D1B8F1000F03D0F8
:1056A800082381F88931B5E7C7F8248091F870316B
:1056B800012B5ED1B30607D500234B76C6F3401302
:1056C80081F8743181F89A31089BDFF87CA103F1E5
:1056D8000800231F1B1A002B06F00F067FDD089F0A
:1056E8002B5CDFF868910937E41B043CE4B289F8C5
:1056F8008B31002B51D105990E433DD109F2A11BE5
:1057080001230093214618EE103AE819CDE9018BE0
:1057180002F038F899F8993100939DF8183022462C
:1057280031465846FFF788FB30E00798DAF8A4704E
:1057380000F0E000A02812D10123B8458AF89B3078
:105748008AF8883107D1B8F1000F04D03E480378B1
:1057580043F0040303703D4BC3F8A480A6E7B845A3
:105768008AF89B308AF88831F5D1B8F1000FF2D069
:1057780096E700234B76A7E79AF8002089F874315A
:1057880042F004028AF8002089F89A319AF8003029
:1057980043F002038AF8003068E65EB1059B4BB916
:1057A80099F89931009302469DF818300821284647
:1057B800FFF742FB264E099A4FF00109CDE9018611
:1057C80018EE103ACDF800902146E81901F0DAFFFA
:1057D800CBF890618BF894418BF89591D6E7002E21
:1057E800D4D09BF89931009302469DF818300821CF
:1057F800284697E70C23C4E5154E2246691C304617
:10580800FFF76FF9104ACAF890610323AAF88831A4
:105818001378013C43F002038AF89441137025E69B
:1058280001238AF88931FFF7D9FA1FE694F8743111
:10583800002B7FF425AE074B5A781B789A427FF6E7
:1058480022AE1DE650060020B01000200005002002
:10585800A106002008000020034B5B6B08B908462E
:1058680018470020FCE700BF9490000838B5184C92
:10587800184D04F1D800FDF759FB002295F82110C6
:1058880084F8A021A4F8C22294F8D42084F8B31292
:1058980095F82D1094F8B83084F8C012022A95F8BB
:1058A800381084F8B03284F8C11202D10A4B1B6B4D
:1058B80098470A4A94F8BA0002F5927102F039F84A
:1058C800E96894F8C202BDE83840FFF7C5BF00BFD9
:1058D80000050020F0100020949000088C0600209D
:1058E80070B51A4C1A4D04F1EC00FDF71FFB94F843
:1058F800B83084F8C43295F8283084F8C5326B6A19
:10590800C4F8C83295F82D3084F8D43295F8383078
:1059180084F8D53294F8D43094F8BA009A1E5342D9
:105928005341012604F5C67204F5317184F8D76233
:1059380084F8D63201F0FDFF30B1E96894F8D60258
:10594800FFF78AFF84F8A06170BD00BF0005002042
:10595800F010002008B5FFF7C3FF024B022283F8BE
:10596800A02108BD00050020F8B5334C94F8D430C8
:10597800022B02D0314BDB6A984701F018FD05462F
:1059880020B1022001F009FD01F00CFD94F8D4705B
:10599800012F19D101F00DFD064628B1384601F056
:1059A800FDFC01F000FD354601F005FD60B1012068
:1059B80001F0F5FC01F0F8FC94F8D430022B39D151
:1059C800BDE8F840FFF7C6BF002DF5D194F8A02137
:1059D80094F8B230F2B913B1032384F8713103207B
:1059E80001F0A4FD94F8D430022BE9D0D4E9B60133
:1059F800FDF7F6FAD4F8E0220023994208BF904256
:105A0800DAD30F48FDF792FA0E4A137843F02003D1
:105A18001370D1E713B1042384F87131042001F025
:105A280085FD94F8D430022BCAD0064A137843F087
:105A380020031370F8BD00BF0005002094900008F3
:105A4800EC050020B010002010B50B4C94F8D420C1
:105A5800022A0DD0094BDB6A9847022084F87101AD
:105A680001F064FD064A137843F02003137010BD5B
:105A7800FFF770FFF1E700BF0005002094900008D1
:105A8800B0100020F8B5334C94F8D430022B02D073
:105A9800314BDB6A984701F08AFC054620B10220A9
:105AA80001F07BFC01F07EFC94F8D470012F19D131
:105AB80001F07FFC064628B1384601F06FFC01F082
:105AC80072FC354601F077FC60B1012001F067FCFB
