:020000040800F2
:10000000004000207D010008C10A0008C30A000862
:10001000C50A0008C70A0008C90A00080000000055
:10002000000000000000000000000000CB0A0008F3
:100030000000000000000000CD0A0008CF0A000800
:10004000C5010008C5010008C5010008C501000878
:10005000C5010008C5010008C5010008C501000868
:10006000C5010008D30A0008C5010008C501000841
:10007000C5010008C5010008C5010008C501000848
:10008000C5010008C5010008C5010008C501000838
:10009000C5010008C5010008C5010008C501000828
:1000A000C5010008C5010008C5010008C501000818
:1000B000C5010008C5010008C5010008C501000808
:1000C000C5010008C5010008D10A0008C5010008E3
:0400D000C50100085E
:1000D40010B5054C237833B9044B13B10448AFF37E
:1000E40000800123237010BD3C04002000000000A8
:1000F400000C000808B5034B1BB103490348AFF3D8
:10010400008008BD0000000040040020000C00082E
:10011400064B0748E02283F82220C0210023C2189E
:100124000133252B82F80013F9D1704700ED00E06C
:1001340000E100E00E4A08B5D2F8883043F47003B9
:10014400C2F888304FF08042D36843F08003D36014
:10015400084B5A6922F4702242F480325A619A6838
:100164009207FCD5FFF7D4FFBDE8084000F02AB899
:1001740000ED00E000000240002103E00B4B5B585F
:10018400435004310A480B4B42189A42F6D30A4AA8
:1001940002E0002342F8043B084B9A42F9D3FFF7EC
:1001A400C9FF00F097FC00F069FCFEE7280C00088A
:1001B400000000203C0400203C0400208C040020AB
:1001C400FEE7000008B5012000F0CAF80B4B984286
:1001D40013D90B4A0133B0FBF3F31370094A4FF4FC
:1001E4007A73B0FBF3F0084B0138E021586082F8D1
:1001F400231000229A6007221A6008BD3F420F00B4
:100204005804002000ED00E010E000E0072910B5DC
:1002140010D90D4B083998420BBF01EB41018900FD
:1002240007230F238B408A40C16B21EA03031A433F
:10023400C26310BD836B89000F248C4023EA04033E
:100244008A401A438263F4E700FC0140436812B118
:1002540019434160704723EA0101FAE7FFF7F6BF4B
:10026400C36803F00603062BFAD1036841B143F0D7
:1002740000730360C36803F00603062BFAD17047CA
:1002840023F00073F5E7436819B143F40073436046
:10029400704723F40073FAE7C068C0F3C0007047E6
:1002A40008B50346FFF7F8FF08B11869C0B208BDE6
:1002B400C068C0F30010704708B50346FFF7F8FFA5
:1002C40000B1196108BDC068C0F340107047C3682D
:1002D40043F02003C360704770B505460C4600F038
:1002E4008DF868B304281B4908BF4FF4FA41E37939
:1002F4004BBB237A53BB637A002B0CBF00264FF011
:1003040080766279A379206813432279124C1343CF
:10031400B1FBF0F200FB121104EA8224420802EB62
:1003240001120E49B2FBF0F2234301EA8212134395
:100334003343EA6802F00602062AFAD12B6070BD44
:100344004FF40041D3E74FF48006DAE74FF4000698
:10035400D7E700BF00093D0000FCFF03C0FF3F00DA
:100364004FF0804301461A6802F4E042B2F5A04F10
:1003740020D015D8B2F5805F1ED0B2F5005F1B48BF
:1003840008BF4FF4004002291BD0032923D00129C0
:1003940005D14FF080431B68C3F30323D840704753
:1003A400B2F5C04F0BD0114B1148B2F5E04F18BF56
:1003B4001846E8E70F48E6E74FF4FA40E3E70E484B
:1003C400E1E74FF080421368C3F30323D840136876
:1003D400C3F34213E2E74FF080421368C3F30323ED
:1003E400D8401368C3F3C233D8E700BF00366E01A8
:1003F400006CDC020048E80100093D004FF0804336
:10040400586800F00C00704741284AD8DFE810F023
:1004140011020702FD01E401D201B9017101670172
:100424005D01530149013F0135010D010301D6006E
:10043400EA00E000CC004900C200B800AE00A3000E
:1004440099008F0085006B00610057004D00420049
:10045400170121012B0149004900490049004900C5
:100464004900490049004900490049004900490040
:100474002E0225021B023802950149004900490059
:100484004900490049004900490049004900490020
:1004940042024C024FF08043DA6819B142F48012F0
:1004A400DA60704722F48012FAE74FF08043DA688A
:1004B40011B142F40022F3E722F40022F0E74FF0F6
:1004C4008043DA6811B142F48022E9E722F4802201
:1004D400E6E74FF08043DA6811B142F40032DFE717
:1004E40022F40032DCE74FF08043DA6879B142F459
:1004F4008032DA604FF080439A6A02F03F023F2A6A
:10050400FAD15A6931B142F004025A61704722F4B7
:100514008032EEE722F00402F7E74FF08043DA6816
:1005240011B142F40042BBE722F40042B8E74FF0B5
:100534008043DA6811B142F48042B1E722F4804288
:10054400AEE74FF08043DA6811B142F40052A7E7F6
:1005540022F40052A4E74FF080431A6919B142F023
:1005640020021A61704722F02002FAE74FF080431C
:10057400DA6811B142F4805292E722F480528FE794
:100584004FF08043DA6811B142F4006288E722F444
:10059400006285E74FF08043DA6811B142F480626B
:1005A4007EE722F480627BE74FF08043DA6811B182
:1005B40042F4807274E722F4807271E74FF0804352
:1005C400DA6811B142F020026AE722F0200267E7FC
:1005D4004FF08043DA6811B142F0800260E722F004
:1005E40080025DE74FF08043DA6871B142F0400267
:1005F400DA604FF080439A6A02F03F023F2AFAD150
:100604005A6929B142F008027FE722F04002EFE77D
:1006140022F0080279E74FF08043DA6811B142F022
:1006240010023DE722F010023AE74FF08043DA6807
:1006340011B142F0007233E722F0007230E74FF05C
:100644008043DA6811B142F0807229E722F08072A7
:1006540026E74FF08043DA6811B142F400021FE745
:1006640022F400021CE74FF08043DA6811B142F42F
:10067400800215E722F4800212E74FF08043DA6823
:1006840011B142F008020BE722F0080208E74FF02C
:100694008043DA6811B142F0040201E722F0040257
:1006A400FEE64FF08043DA6811B142F00202F7E649
:1006B40022F00202F4E64FF08043DA6811B142F00E
:1006C4000102EDE622F00102EAE64FF08043DA6827
:1006D40011B142F00062E3E622F00062E0E64FF07E
:1006E4008043DA6811B142F08062D9E622F0806278
:1006F400D6E64FF080431A6979B142F400721A6168
:100704009A6A02F03F023F2AFAD15A6942F0100273
:100714005A611A6942F0100223E722F010021A61AA
:100724009A6A02F03F023F2AFAD15A6922F0100273
:100734005A611A6922F4007213E74FF080431A6970
:1007440079B142F480521A619A6A02F03F023F2A58
:10075400FAD15A6942F020025A611A6942F40062DD
:10076400FFE622F400621A619A6A02F03F023F2A0D
:10077400FAD15A6922F020025A611A6922F480528D
:10078400EFE64FF080431A6971B142F008021A6132
:100794004FF080439A6A02F03F023F2AFAD15A6925
:1007A40029B142F00102B0E622F00802EFE722F09C
:1007B4000102AAE64FF080431A6931B142F0040203
:1007C4001A611A6942F04002CBE622F004021A616F
:1007D4001A6922F04002C4E64FF080431A6971B1ED
:1007E40042F002021A614FF080439A6A02F03F021B
:1007F4003F2AFAD15A6929B142F0020285E622F071
:100804000202EFE722F002027FE64FF08043DA684B
:1008140011B142F0805243E622F0805240E64FF09C
:1008240080431A6911B142F001029AE622F00102F2
:1008340097E64FF080431A6911B142F0800290E6C6
:1008440022F080028DE64FF080431A6911B142F420
:10085400807286E622F4807283E64FF08043DA6881
:1008640009B11A431CE622F0804219E64FF0804396
:10087400DA6811B142F0005212E622F000520FE69B
:100884004FF080431A6911B142F4806269E622F4A0
:10089400806266E64FF08043DA6811B142F40012D8
:1008A400FEE522F40012FBE54FF08043DA6811B153
:1008B40042F00042F4E522F00042F1E510B50C46A6
:1008C40005280ED8DFE800F003151F28335E364AEA
:1008D4003649136834B123F0200313608B685B0737
:1008E400FCD510BD43F0200313608B685C07FCD477
:1008F400F7E72F4A136819B123F400431360F0E7B4
:1009040043F40043FAE72A4A136811B123F4C043BD
:10091400F4E743F4C043F1E7234A136823F01803D0
:1009240011B143F00803E9E743F01003E6E70121BE
:100934000E20FFF769FD1F4BD3F80421CCB19006BC
:100944000BD4D3F8042142F02002C3F80421D3F8D5
:10095400042122F08002C3F80421164BD3F80421A9
:1009640042F00402C3F80421D3F808219107FBD50F
:10097400B7E722F00402C3F80421D3F80821920750
:10098400FBD4AEE7084A0949136834B123F04003A5
:1009940013608B68002BFCDAA3E743F04003136079
:1009A4008B68002BFCDB9CE7188000400082004031
:1009B40008800040009000407FB52148214E224D20
:1009C40002220F21FFF722FC022220480E21FFF70A
:1009D4001DFC4FF41653019303F18073A3F67D13AA
:1009E40001241948029301A9ADF80C40FFF774FCE7
:1009F400224615484021FFF731FC21461248FFF7F3
:100A040042FC21461048FFF72BFC114B402283F88F
:100A140009234FF400721A60002416F8011B2846BB
:100A2400FFF74AFC0848FFF74EFC0028FAD0284696
:100A34000134FFF74CFC0B2CEFD104B070BD00BFA8
:100A440000F80140000000200050004000FC01407C
:100A540000E100E038B50748FFF71EFC40B1064C42
:100A6400044825786B1C2370FFF71AFC2C44607033
:100A740038BD00BF005000405904002008B50121D2
:100A84001120FFF7C1FC01210220FFF717FF01210C
:100A94000D20FFF7B9FC01212020FFF7B5FC01214F
:100AA4002120FFF7B1FC01212220FFF7ADFC012139
:100AB4001B20FFF7A9FCFFF77FFFFEE77047FEE767
:100AC400FEE7FEE7FEE77047704770477047FFF7A1
:100AD400C1BF000070B50D4E0D4D761BB61006D08B
:100AE400002455F8043B01349847A642F9D1094E35
:100AF400094D761B00F082F8B61006D0002455F894
:100B0400043B01349847A642F9D170BD1C0C00087F
:100B14001C0C0008240C00081C0C0008024B13B128
:100B2400024800F005B8704700000000410B0008BF
:100B3400002301461A46184600F01AB838B5084B87
:100B4400084D5B1B9C1007D0043B1D44013C55F829
:100B540004399847002CF9D1BDE8384000F054B866
:100B6400280C0008240C0008704700BF704700BF21
:100B74002DE9F047DFF880A00646DAF80000984631
:100B84000F469146FFF7F0FF1A4B1B68D3F8484114
:100B940024B365681F2D26DC5EB9AB1C0135DAF879
:100BA4000000656044F82370FFF7E0FF0020BDE813
:100BB400F08704EB85030121C3F88890D4F88821D9
:100BC400A9400A43022EC4F88821C3F80881E4D15D
:100BD400D4F88C311943C4F88C11DEE703F5A674FC
:100BE400C3F84841D5E7DAF80000FFF7BFFF4FF03C
:100BF400FF30DCE7180C000838040020F8B500BF0B
:100C0400F8BC08BC9E467047F8B500BFF8BC08BCE9
:040C14009E46704741
:040C180010000020A8
:080C1C00210B0008F90000089B
:040C2400D5000008EF
:100C28006162636465666768696A6B00000000005A
:100C380000000000FC02002064030020CC03002018
:100C4800000000000000000000000000000000009C
:100C5800000000000000000000000000000000008C
:100C6800000000000000000000000000000000007C
:100C7800000000000000000000000000000000006C
:100C8800000000000000000000000000000000005C
:100C9800000000000000000000000000000000004C
:100CA800000000000000000000000000000000003C
:100CB800000000000000000000000000000000002C
:100CC800000000000000000000000000000000001C
:100CD800000000000000000001000000000000000B
:100CE8000E33CDAB34126DE6ECDE05000B000000D0
:100CF80000000000000000000000000000000000EC
:100D080000000000000000000000000000000000DB
:100D180000000000000000000000000000000000CB
:100D280000000000000000000000000000000000BB
:0C10580000000000000000006804002000
:040000050800017D71
:00000001FF
