:020000040800F2
:10000000004000207D0100083D0A00083F0A00086A
:10001000410A0008430A0008450A000800000000E1
:10002000000000000000000000000000470A000877
:100030000000000000000000490A00084B0A000808
:10004000C5010008C5010008C5010008C501000878
:10005000C5010008C5010008C5010008C501000868
:10006000C5010008C5010008C5010008C501000858
:10007000C5010008C5010008C5010008C501000848
:10008000C5010008C5010008C5010008C501000838
:10009000C5010008C5010008C5010008C501000828
:1000A000C5010008C5010008C5010008C501000818
:1000B000C5010008C5010008C5010008C501000808
:1000C000C5010008C50100084D0A0008C501000867
:0400D000C50100085E
:1000D40010B5054C237833B9044B13B10448AFF37E
:1000E40000800123237010BD2C04002000000000B8
:1000F400780B000808B5034B1BB103490348AFF361
:10010400008008BD0000000030040020780B0008C7
:10011400064B0748E02283F82220C0210023C2189E
:100124000133252B82F80013F9D1704700ED00E06C
:1001340000E100E00E4A08B5D2F8883043F47003B9
:10014400C2F888304FF08042D36843F08003D36014
:10015400084B5A6922F4702242F480325A619A6838
:100164009207FCD5FFF7D4FFBDE8084000F02AB899
:1001740000ED00E000000240002103E00B4B5B585F
:10018400435004310A480B4B42189A42F6D30A4AA8
:1001940002E0002342F8043B084B9A42F9D3FFF7EC
:1001A400C9FF00F053FC00F0CBFBFEE7A00B0008F6
:1001B400000000202C0400202C04002070040020E7
:1001C400FEE7000008B5012000F012F90B4B98423D
:1001D40013D90B4A0133B0FBF3F31370094A4FF4FC
:1001E4007A73B0FBF3F0084B0138E021586082F8D1
:1001F400231000229A6007221A6008BD3F420F00B4
:100204004804002000ED00E010E000E030B5094BA8
:1002140009491B784D6863B18A6858430023144622
:100224008A689442FBD098BF5B1923449B1A83428B
:10023400F5D330BD4804002010E000E04FF47A7399
:100244005843FFF7E3BF0000072910B510D90D4B41
:10025400083998420BBF01EB4101890007230F23A2
:100264008B408A40C16B21EA03031A43C26310BD69
:10027400836B89000F248C4023EA04038A401A43C9
:100284008263F4E700FC014000230380436070476D
:1002940038B504460D464FF47A736268120410D5DB
:1002A400013BFAD2236803F480632360236843F498
:1002B4008063236063686360236823F4806323603E
:1002C40001E0002BEED16B782BB3236843F02003BD
:1002D4002360144B9C420CBF0220032000F088F8DA
:1002E400114BB0FBF3F3083B5B08013B0F4AB0FB37
:1002F400F2F05A02083842EA500020610322B3FBAC
:10030400F2F363612B7853B923686A6823F440736A
:100314001343236038BD236823F02003D8E72B79E7
:10032400A360F7E700700040801A0600A086010071
:10033400036839B143F480430360036843F4005312
:100344000360704723F480430360036823F400537D
:10035400F6E7036823F480530360036842EA41022A
:100364009B06D2B207D5036842F4106243F010032F
:10037400036002627047C260036823F002030360F3
:10038400036843F0090303607047036823F0010323
:100394000360036843F480530360704703689B065B
:1003A40003D541F4006101627047C160036823F022
:1003B40001030360036843F00803036070470123EB
:1003C40003FA01F14160704739B9084B5B6C13F0D3
:1003D400F00F0CBF0120002070474268012303FA8C
:1003E40001F1114214BF184600207047007000400C
:1003F4004FF0804301461A6802F4E042B2F5A04F80
:1004040020D015D8B2F5805F1ED0B2F5005F1B482E
:1004140008BF4FF4004002291BD0032923D001292F
:1004240005D14FF080431B68C3F30323D8407047C2
:10043400B2F5C04F0BD0114B1148B2F5E04F18BFC5
:100444001846E8E70F48E6E74FF4FA40E3E70E48BA
:10045400E1E74FF080421368C3F30323D8401368E5
:10046400C3F34213E2E74FF080421368C3F303235C
:10047400D8401368C3F3C233D8E700BF00366E0117
:10048400006CDC020048E80100093D0041284AD81C
:10049400DFE810F011020702FD01E401D201B90105
:1004A400710167015D01530149013F0135010D01EE
:1004B4000301D600EA00E000CC004900C200B80005
:1004C400AE00A30099008F0085006B006100570007
:1004D4004D004200170121012B0149004900490048
:1004E40049004900490049004900490049004900C0
:1004F400490049002E0225021B02380295014900D9
:10050400490049004900490049004900490049009F
:100514004900490042024C024FF08043DA6819B1A5
:1005240042F48012DA60704722F48012FAE74FF046
:100534008043DA6811B142F40022F3E722F4002286
:10054400F0E74FF08043DA6811B142F48022E9E722
:1005540022F48022E6E74FF08043DA6811B142F4D6
:100564000032DFE722F40032DCE74FF08043DA6840
:1005740079B142F48032DA604FF080439A6A02F033
:100584003F023F2AFAD15A6931B142F004025A615A
:10059400704722F48032EEE722F00402F7E74FF0CE
:1005A4008043DA6811B142F40042BBE722F400420E
:1005B400B8E74FF08043DA6811B142F48042B1E702
:1005C40022F48042AEE74FF08043DA6811B142F47E
:1005D4000052A7E722F40052A4E74FF080431A69BF
:1005E40019B142F020021A61704722F02002FAE7A2
:1005F4004FF08043DA6811B142F4805292E722F45A
:1006040080528FE74FF08043DA6811B142F4006200
:1006140088E722F4006285E74FF08043DA6811B17D
:1006240042F480627EE722F480627BE74FF08043ED
:10063400DA6811B142F4807274E722F4807271E7CF
:100644004FF08043DA6811B142F020026AE722F0E9
:10065400200267E74FF08043DA6811B142F080026C
:1006640060E722F080025DE74FF08043DA6871B101
:1006740042F04002DA604FF080439A6A02F03F028F
:100684003F2AFAD15A6929B142F008027FE722F0E1
:100694004002EFE722F0080279E74FF08043DA687E
:1006A40011B142F010023DE722F010023AE74FF098
:1006B4008043DA6811B142F0007233E722F000722D
:1006C40030E74FF08043DA6811B142F0807229E7D5
:1006D40022F0807226E74FF08043DA6811B142F4C9
:1006E40000021FE722F400021CE74FF08043DA689F
:1006F40011B142F4800215E722F4800212E74FF0B0
:100704008043DA6811B142F008020BE722F00802D4
:1007140008E74FF08043DA6811B142F0040201E7C0
:1007240022F00402FEE64FF08043DA6811B142F091
:100734000202F7E622F00202F4E64FF08043DA68A0
:1007440011B142F00102EDE622F00102EAE64FF0B7
:100754008043DA6811B142F00062E3E622F00062FD
:10076400E0E64FF08043DA6811B142F08062D9E6E6
:1007740022F08062D6E64FF080431A6979B142F4E0
:1007840000721A619A6A02F03F023F2AFAD15A694A
:1007940042F010025A611A6942F0100223E722F073
:1007A40010021A619A6A02F03F023F2AFAD15A698A
:1007B40022F010025A611A6922F4007213E74FF012
:1007C40080431A6979B142F480521A619A6A02F03C
:1007D4003F023F2AFAD15A6942F020025A611A694B
:1007E40042F40062FFE622F400621A619A6A02F09F
:1007F4003F023F2AFAD15A6922F020025A611A694B
:1008040022F48052EFE64FF080431A6971B142F04E
:1008140008021A614FF080439A6A02F03F023F2AAD
:10082400FAD15A6929B142F00102B0E622F0080275
:10083400EFE722F00102AAE64FF080431A6931B1D2
:1008440042F004021A611A6942F04002CBE622F037
:1008540004021A611A6922F04002C4E64FF0804390
:100864001A6971B142F002021A614FF080439A6A28
:1008740002F03F023F2AFAD15A6929B142F002023A
:1008840085E622F00202EFE722F002027FE64FF053
:100894008043DA6811B142F0805243E622F080527C
:1008A40040E64FF080431A6911B142F001029AE622
:1008B40022F0010297E64FF080431A6911B142F029
:1008C400800290E622F080028DE64FF080431A69A0
:1008D40011B142F4807286E622F4807283E64FF00E
:1008E4008043DA6809B11A431CE622F0804219E613
:1008F4004FF08043DA6811B142F0005212E622F060
:1009040000520FE64FF080431A6911B142F480623D
:1009140069E622F4806266E64FF08043DA6811B13A
:1009240042F40012FEE522F40012FBE54FF080438E
:10093400DA6811B142F00042F4E522F00042F1E538
:1009440037B501211620FFF7A1FD01210D20FFF786
:100954009DFD3748374C03220E21FFF775FC032217
:100964000F213348FFF770FC6846FFF78DFC3148D0
:100974006946FFF78DFC2F480121FFF7D9FC2D486C
:1009840000222321FFF7E5FC2A481321FFF717FD76
:1009940013212046FFF718FD01280146F8D1254808
:1009A400244CFFF7FBFC23481321FFF708FD132118
:1009B4002046FFF709FD0128F9D11E481D4CFFF719
:1009C400E4FC1C4800222321FFF7C3FC194813212F
:1009D400FFF7F5FC13212046FFF7F6FC0128F9D1B7
:1009E4001448144D1021FFF7D9FC12481321FFF7C6
:1009F400E6FC13212846FFF7E7FC01280446F8D15A
:100A04000C48FFF7C2FCC820FFF718FC224609482F
:100A1400084C2321FFF79DFC06481321FFF7CFFC68
:100A240013212046FFF7D0FC0128F9D1FEE700BFCF
:100A340000F00140007000407047FEE7FEE7FEE76B
:100A4400FEE77047704770477047000070B50D4E61
:100A54000D4D761BB61006D0002455F8043B013426
:100A64009847A642F9D1094E094D761B00F082F849
:100A7400B61006D0002455F8043B01349847A6422A
:100A8400F9D170BD940B0008940B00089C0B00086E
:100A9400940B0008024B13B1024800F005B87047EC
:100AA40000000000B90A0008002301461A4618464F
:100AB40000F01AB838B5084B084D5B1B9C1007D0E2
:100AC400043B1D44013C55F804399847002CF9D1E6
:100AD400BDE8384000F054B8A00B00089C0B000897
:100AE400704700BF704700BF2DE9F047DFF880A0D2
:100AF4000646DAF8000098460F469146FFF7F0FFE5
:100B04001A4B1B68D3F8484124B365681F2D26DCB3
:100B14005EB9AB1C0135DAF80000656044F8237057
:100B2400FFF7E0FF0020BDE8F08704EB8503012117
:100B3400C3F88890D4F88821A9400A43022EC4F847
:100B44008821C3F80881E4D1D4F88C311943C4F85E
:100B54008C11DEE703F5A674C3F84841D5E7DAF84B
:100B64000000FFF7BFFF4FF0FF30DCE7900B0008F9
:100B740028040020F8B500BFF8BC08BC9E467047A6
:0C0B8400F8B500BFF8BC08BC9E467047E6
:040B90000000002041
:080B9400990A0008F9000008AD
:040B9C00D500000878
:100BA00000000000EC02002054030020BC030020E1
:100BB0000000000000000000000000000000000035
:100BC0000000000000000000000000000000000025
:100BD0000000000000000000000000000000000015
:100BE0000000000000000000000000000000000005
:100BF00000000000000000000000000000000000F5
:100C000000000000000000000000000000000000E4
:100C100000000000000000000000000000000000D4
:100C200000000000000000000000000000000000C4
:100C300000000000000000000000000000000000B4
:100C400000000000000000000100000000000000A3
:100C50000E33CDAB34126DE6ECDE05000B00000068
:100C60000000000000000000000000000000000084
:100C70000000000000000000000000000000000074
:100C80000000000000000000000000000000000064
:100C90000000000000000000000000000000000054
:0C0FC00000000000000000004C040020B5
:040000050800017D71
:00000001FF
