:020000040800F2
:1000000000400020DD23000835CD000837CD000872
:1000100039CD00083BCD00083DCD000800000000B0
:100020000000000000000000000000003FCD0008BC
:10003000000000000000000041CD000843CD000892
:10004000252400084BCD000825240008252400089D
:1000500025240008252400084FCD00082524000889
:100060002524000851CD0008252400082524000877
:10007000252400082524000825240008252400083C
:1000800025240008252400082524000881CD000827
:100090002524000847CD0008252400082524000851
:1000A000252400082524000825240008252400080C
:1000B0002524000825240008252400087DCD0008FB
:1000C000252400082524000845CD00082524000823
:0400D00025240008DB
:1001000010B5054C237833B9044B13B10448AFF351
:1001100000800123237010BDD808002000000000DB
:10012000D4DF000808B5034B1BB103490348AFF304
:10013000008008BD00000000DC080020D4DF0008BB
:1001400090B589B000AFF8607B600B46FB72134638
:10015000BB723A4B07F110040FCB84E80F00FB7A17
:10016000102B07D0FB7A182B04D0FB7A202B01D060
:1001700006235EE0324B5B68314A43F0090353606B
:100180002F4B32221A60BB7A43F01003DAB22C4BA9
:100190009A61FB7A202B0ED0202B10DC102B02D082
:1001A000182B04D00BE0264B0022DA6008E0244B29
:1001B0000422DA6004E0224B0822DA6000E000BF8B
:1001C00000BF1F4B5B6803F00103002BF9D1FB7AE2
:1001D0001A46F9681B4800F0DFFE194BDB68184A25
:1001E00043F08203D36000BF154BDB6803F080034C
:1001F000002BF9D1124BDB68114A23F00303D360C3
:10020000BB7A012B05D0BB7A022B02D0BB7A032B21
:1002100004D1102279680C4800F0BEFEBB7A032B93
:1002200006D10A4B1C4607F110030FCB84E80F00E0
:10023000002318462437BD4690BD00BF34E40008B3
:1002400000200340401603401016034000160340F0
:1002500080B584B000AFF8607B600B467B811346AD
:100260007B727B7A002B0CD01F4BDB681E4A23F07D
:100270000303D3601C4BDB681B4A43F00103D360CC
:100280002AE0194BDB68184A23F00303D360164BAE
:10029000154ADB68D3601FE01022F968134800F0AC
:1002A0007BFE114BDB68104A43F08003D36000BF34
:1002B0000D4BDB6803F08003002BF9D110220C49B1
:1002C000786800F069FE7B89103B7B81FB68103306
:1002D000FB607B6810337B607B89002BDCD10023C3
:1002E00018461037BD4680BD002003400010034073
:1002F0002010034080B400AF0B4B5B680A4A43F008
:100300000103536000BF084B5B6803F00103002B3F
:10031000F9D1054B5B68044A23F0080353600023BE
:100320001846BD4680BC70470020034081F0004164
:1003300002E000BF83F0004330B54FEA41044FEACA
:10034000430594EA050F08BF90EA020F1FBF54EA65
:10035000000C55EA020C7FEA645C7FEA655C00F001
:10036000E2804FEA5454D4EB5555B8BF6D420CDDD2
:100370002C4480EA020281EA030382EA000083EA55
:10038000010180EA020281EA0303362D88BF30BDF5
:1003900011F0004F4FEA01314FF4801C4CEA11314B
:1003A00002D0404261EB410113F0004F4FEA0333AA
:1003B0004CEA133302D0524263EB430394EA050F35
:1003C00000F0A780A4F10104D5F1200E0DDB02FAA4
:1003D0000EFC22FA05F2801841F1000103FA0EF238
:1003E000801843FA05F359410EE0A5F120050EF1FE
:1003F000200E012A03FA0EFC28BF4CF0020C43FA2F
:1004000005F3C01851EBE37101F0004507D54FF03B
:10041000000EDCF1000C7EEB00006EEB0101B1F58B
:10042000801F1BD3B1F5001F0CD349085FEA3000D1
:100430004FEA3C0C04F101044FEA445212F5800FDC
:1004400080F09A80BCF1004F08BF5FEA500C50F179
:10045000000041EB045141EA050130BD5FEA4C0C5C
:10046000404141EB0101013C28BFB1F5801FE9D2B9
:1004700091F0000F04BF01460020B1FA81F308BFDC
:100480002033A3F10B03B3F120020CDA0C3208DDA8
:1004900002F1140CC2F10C0201FA0CF021FA02F183
:1004A0000CE002F11402D8BFC2F1200C01FA02F1F3
:1004B00020FA0CFCDCBF41EA0C019040E41AA2BF18
:1004C00001EB0451294330BD6FEA04041F3C1CDAE0
:1004D0000C340EDC04F11404C4F1200220FA04F000
:1004E00001FA02F340EA030021FA04F345EA0301AA
:1004F00030BDC4F10C04C4F1200220FA02F001FA6C
:1005000004F340EA0300294630BD21FA04F02946ED
:1005100030BD94F0000F83F4801306BF81F4801186
:100520000134013D4EE77FEA645C18BF7FEA655CF9
:1005300029D094EA050F08BF90EA020F05D054EACB
:10054000000C04BF1946104630BD91EA030F1EBFD0
:100550000021002030BD5FEA545C05D140004941D4
:1005600028BF41F0004130BD14F580043CBF01F5C7
:10057000801130BD01F0004545F0FE4141F47001AD
:100580004FF0000030BD7FEA645C1ABF1946104688
:100590007FEA655C1CBF0B46024650EA013406BF89
:1005A00052EA033591EA030F41F4002130BD00BF48
:1005B00090F0000F04BF0021704730B54FF4806405
:1005C00004F132044FF000054FF0000150E700BF86
:1005D00090F0000F04BF0021704730B54FF48064E5
:1005E00004F1320410F0004548BF40424FF00001D2
:1005F0003EE700BF42004FEAE2014FEA31014FEA15
:1006000002701FBF12F07F4393F07F4F81F0605163
:10061000704732F07F4208BF704793F07F4F04BFAE
:1006200041F40021704730B54FF4607401F000458B
:1006300021F000411CE700BF50EA010208BF7047EB
:1006400030B54FF000050AE050EA010208BF7047DC
:1006500030B511F0004502D5404261EB41014FF445
:10066000806404F132045FEA915C3FF4D8AE4FF04D
:1006700003025FEADC0C18BF03325FEADC0C18BF30
:10068000033202EBDC02C2F1200300FA03FC20FA81
:1006900002F001FA03FE40EA0E0021FA02F11444CE
:1006A000BDE600BF70B54FF0FF0C4CF4E06C1CEAE7
:1006B00011541DBF1CEA135594EA0C0F95EA0C0F58
:1006C00000F0DEF82C4481EA030621EA4C5123EACB
:1006D0004C5350EA013518BF52EA033541F48011FA
:1006E00043F4801338D0A0FB02CE4FF00005E1FBAD
:1006F00002E506F00042E0FB03E54FF00006E1FBF7
:1007000003569CF0000F18BF4EF0010EA4F1FF0439
:10071000B6F5007F64F5407404D25FEA4E0E6D4179
:1007200046EB060642EAC62141EA55514FEAC5208A
:1007300040EA5E504FEACE2EB4F1FD0C88BFBCF506
:10074000E06F1ED8BEF1004F08BF5FEA500E50F1B7
:10075000000041EB045170BD06F0004646EA01017D
:1007600040EA020081EA0301B4EB5C04C2BFD4EBAF
:100770000C0541EA045170BD41F480114FF0000EA8
:10078000013C00F3AB8014F1360FDEBF002001F016
:10079000004170BDC4F10004203C35DA0C341BDC90
:1007A00004F11404C4F1200500FA05F320FA04F062
:1007B00001FA05F240EA020001F0004221F0004196
:1007C00010EBD37021FA04F642EB06015EEA430E09
:1007D00008BF20EAD37070BDC4F10C04C4F1200539
:1007E00000FA04F320FA05F001FA04F240EA0200EC
:1007F00001F0004110EBD37041F100015EEA430EBD
:1008000008BF20EAD37070BDC4F1200500FA05F2DC
:100810004EEA020E20FA04F301FA05F243EA02035B
:1008200021FA04F001F0004121FA04F220EA02006A
:1008300000EBD3705EEA430E08BF20EAD37070BDB0
:1008400094F0000F0FD101F00046400041EB010190
:1008500011F4801F08BF013CF7D041EA060195F072
:10086000000F18BF704703F00046520043EB03032C
:1008700013F4801F08BF013DF7D043EA0603704719
:1008800094EA0C0F0CEA135518BF95EA0C0F0CD024
:1008900050EA410618BF52EA4306D1D181EA03016A
:1008A00001F000414FF0000070BD50EA410606BF64
:1008B0001046194652EA430619D094EA0C0F02D1A9
:1008C00050EA013613D195EA0C0F05D152EA0336EE
:1008D0001CBF104619460AD181EA030101F000410C
:1008E00041F0FE4141F470014FF0000070BD41F055
:1008F000FE4141F4780170BD70B54FF0FF0C4CF42F
:10090000E06C1CEA11541DBF1CEA135594EA0C0F4D
:1009100095EA0C0F00F0A7F8A4EB050481EA030E9A
:1009200052EA03354FEA013100F088804FEA033381
:100930004FF0805545EA131343EA12634FEA02224F
:1009400045EA111545EA10654FEA00260EF0004110
:100950009D4208BF964244F1FD0404F5407402D262
:100960005B084FEA3202B61A65EB03055B084FEAF3
:1009700032024FF480104FF4002CB6EB020E75EBF0
:10098000030E22BFB61A754640EA0C005B084FEA18
:100990003202B6EB020E75EB030E22BFB61A754695
:1009A00040EA5C005B084FEA3202B6EB020E75EBE0
:1009B000030E22BFB61A754640EA9C005B084FEA58
:1009C0003202B6EB020E75EB030E22BFB61A754665
:1009D00040EADC0055EA060E18D04FEA051545EA54
:1009E00016754FEA06164FEAC30343EA52734FEAFD
:1009F000C2025FEA1C1CC0D111F4801F0BD141EA76
:100A000000014FF000004FF0004CB6E711F4801FDA
:100A100004BF01430020B4F1FD0C88BFBCF5E06FBA
:100A20003FF6AFAEB5EB030C04BFB6EB020C5FEACA
:100A3000500C50F1000041EB045170BD0EF0004E1F
:100A40004EEA113114EB5C04C2BFD4EB0C0541EA51
:100A5000045170BD41F480114FF0000E013C90E64E
:100A600045EA060E8DE60CEA135594EA0C0F08BF12
:100A700095EA0C0F3FF43BAF94EA0C0F0AD150EA11
:100A800001347FF434AF95EA0C0F7FF425AF1046A4
:100A900019462CE795EA0C0F06D152EA03353FF4CC
:100AA000FDAE1046194622E750EA410618BF52EA49
:100AB00043067FF4C5AE50EA41047FF40DAF52EA1D
:100AC00043057FF4EBAE12E74FF0FF3C06E000BFBA
:100AD0004FF0010C02E000BF4FF0010C4DF804CDC7
:100AE0004FEA410C7FEA6C5C4FEA430C18BF7FEA87
:100AF0006C5C1BD001B050EA410C0CBF52EA430CB5
:100B000091EA030F02BF90EA020F0020704710F134
:100B1000000F91EA030F58BF994208BF90422CBFC3
:100B2000D8176FEAE37040F0010070474FEA410CBC
:100B30007FEA6C5C02D150EA013C07D14FEA430CDA
:100B40007FEA6C5CD6D152EA033CD3D05DF8040B4B
:100B5000704700BF8446104662468C46194663467D
:100B600000E000BF01B5FFF7B7FF002848BF10F154
:100B7000000F01BD4DF808EDFFF7F4FF0CBF012099
:100B800000205DF808FB00BF4DF808EDFFF7EAFF15
:100B900034BF012000205DF808FB00BF4DF808EDD0
:100BA000FFF7E0FF94BF012000205DF808FB00BFC5
:100BB0004DF808EDFFF7CEFF94BF012000205DF84F
:100BC00008FB00BF4DF808EDFFF7C4FF34BF01205C
:100BD00000205DF808FB00BF4FEA410212F5001249
:100BE00015D211D56FF47873B3EB625212D94FEA74
:100BF000C12343F0004343EA505311F0004F23FA5E
:100C000002F018BF404270474FF00000704750EAB2
:100C1000013005D111F0004008BF6FF0004070476F
:100C20004FF00000704700BF4A0011D212F50012C9
:100C300011D20DD56FF47873B3EB62520ED44FEA34
:100C4000C12343F0004343EA505323FA02F07047B4
:100C50004FF00000704750EA013002D14FF0FF30F2
:100C600070474FF00000704753B94AB9002908BFD8
:100C700000281CBF4FF0FF314FF0FF3000F08AB961
:100C8000ADF1080C6DE904CE00F024F8DDF804E0C5
:100C9000DDE9022304B07047D0B50C4B00220646B4
:100CA0000F46FFF7FFFCFFF7BFFF0446FFF780FC8E
:100CB000074B0022FFF7F6FC02460B46304639464A
:100CC000FFF738FBFFF7B0FF2146D0BD0000F03D35
:100CD0000000F0412DE9F047089E0D4604468E467F
:100CE000002B40F082808A42174646D9B2FA82F23F
:100CF0004AB1C2F1200105FA02F320FA01F197404E
:100D000041EA030E94404FEA1748230CBEFBF8FC5F
:100D1000B9B208FB1CEE43EA0E430CFB01F098420B
:100D20000AD9FB180CF1FF3580F01681984240F289
:100D30001381ACF1020C3B441B1AA4B2B3FBF8F0D4
:100D400008FB103344EA034400FB01F1A14209D936
:100D50003C1900F1FF3380F00181A14240F2FE8096
:100D600002383C44641A40EA0C4000211EB1D440D1
:100D70000023C6E90043BDE8F08702B9FFDEB2FAFE
:100D800082F2002A4FD1CB1B4FEA174E1FFA87F889
:100D90000121B3FBFEFC250C0EFB1C3345EA034589
:100DA00008FB0CF3AB4207D97D190CF1FF3002D2DE
:100DB000AB4200F2E7808446ED1AA3B2B5FBFEF029
:100DC0000EFB105543EA054408FB00F8A04507D97F
:100DD0003C1900F1FF3302D2A04500F2D78018463B
:100DE000A4EB080440EA0C40C0E78B4208D9002E6F
:100DF00000F0AF800021C6E900050846BDE8F08795
:100E0000B3FA83F100294BD1AB4202D3824200F204
:100E1000B780841A65EB030301209E46002EAAD0FA
:100E2000C6E9004EA7E7C2F1200C01FA02F3974091
:100E300020FA0CF04FEA174E21FA0CFC1843BCFBC9
:100E4000FEF1050C0EFB11CC1FFA87F845EA0C45A4
:100E500001FB08F3AB4204FA02F409D97D1901F150
:100E6000FF3C80F08B80AB4240F2888002393D44E9
:100E7000EB1A85B2B3FBFEF00EFB103345EA0345D7
:100E800000FB08F3AB4207D97D1900F1FF3C71D29A
:100E9000AB426FD902383D44EB1A40EA014178E792
:100EA000C1F1200C8B4022FA0CF71F4320FA0CF4FE
:100EB00005FA01F34FEA174E25FA0CF51C43230CF3
:100EC000B5FBFEF91FFA87F80EFB195543EA0545F5
:100ED00009FB08FAAA4502FA01F200FA01F308D95F
:100EE0007D1909F1FF3047D2AA4545D9A9F1020978
:100EF0003D44A5EB0A05A4B2B5FBFEF00EFB105570
:100F000044EA054400FB08F8A04507D93C1900F164
:100F1000FF352DD2A0452BD902383C4440EA094088
:100F2000A4EB0804A0FB02894C45C6464D4619D3E4
:100F300016D05EB1B3EB0E0264EB050404FA0CFCB0
:100F4000CA404CEA0202CC40C6E900240021BDE8B8
:100F5000F087314630460EE7AC46EDE6184601E72D
:100F60004345E6D2B8EB020E69EB07050138E0E72E
:100F70002846D3E760468FE78146BAE7614677E7C0
:100F800008464BE7ACF1020C3D4415E702383C44FF
:100F900026E700BF704700BF844641EA000313F014
:100FA00003036DD1403A41D351F8043B40F8043B70
:100FB00051F8043B40F8043B51F8043B40F8043B33
:100FC00051F8043B40F8043B51F8043B40F8043B23
:100FD00051F8043B40F8043B51F8043B40F8043B13
:100FE00051F8043B40F8043B51F8043B40F8043B03
:100FF00051F8043B40F8043B51F8043B40F8043BF3
:1010000051F8043B40F8043B51F8043B40F8043BE2
:1010100051F8043B40F8043B51F8043B40F8043BD2
:1010200051F8043B40F8043B403ABDD2303211D372
:1010300051F8043B40F8043B51F8043B40F8043BB2
:1010400051F8043B40F8043B51F8043B40F8043BA2
:10105000103AEDD20C3205D351F8043B40F8043B72
:10106000043AF9D2043208D0D2071CBF11F8013B70
:1010700000F8013B01D30B8803806046704700BF36
:10108000082A13D38B078DD010F003038AD0C3F145
:101090000403D21ADB071CBF11F8013B00F8013B27
:1010A00080D331F8023B20F8023B7BE7043AD9D3E6
:1010B000013A11F8013B00F8013BF9D20B780370BB
:1010C0004B7843708B788370604670470000000057
:1010D0000000000000000000000000000000000010
:1010E0000000000000000000000000000000000000
:1010F00000000000000000000000000000000000F0
:1011000090F800F06DE9024520F007016FF0000C47
:1011100010F0070491F820F040F049804FF00004EF
:101120006FF00700D1E9002391F840F000F10800CA
:1011300082FA4CF2A4FA8CF283FA4CF3A2FA8CF302
:101140004BBBD1E9022382FA4CF200F10800A4FA69
:101150008CF283FA4CF3A2FA8CF3E3B9D1E90423BD
:1011600082FA4CF200F10800A4FA8CF283FA4CF3F4
:10117000A2FA8CF37BB9D1E9062301F1200182FAAE
:101180004CF200F10800A4FA8CF283FA4CF3A2FAB4
:101190008CF3002BC6D0002A04BF04301A4612BAC2
:1011A000B2FA82F2FDE8024500EBD2007047D1E9C5
:1011B000002304F00305C4F100004FEAC50514F054
:1011C000040F91F840F00CFA05F562EA05021CBF25
:1011D00063EA050362464FF00004A9E79A4238BF6C
:1011E000885470477047000080B1094A13885188BD
:1011F0000133C3F309038B4208D072B61388D118A8
:101200000133C3F309030871138062B6704700BF4E
:10121000F40800202DE9F74FDDF83C9019F0030F9A
:10122000DDE90D4607468B46154628D00C9901EBA3
:1012300004081444A24226D119F0020F0AD0A4EBEC
:101240000508C1464E4505EB090226D835444645FA
:1012500028BF2C46204603B0BDE8F08F5946202019
:101260000193B847019B08F10108B0450AEB080259
:10127000F4D3321BB44288BF00222A44D6E7A046EA
:10128000A2EB040AF1E702F1010A18F8010D01933B
:101290005946B847019B5246CCE759462020019356
:1012A00009F10109B847019BCCE72DE9F047DDE9D9
:1012B0000D7616F0020FDDE90854DDE90BC89DF844
:1012C00028E01FD106F001094FB1B9F1000F06D097
:1012D000BEF1000F02D116F00C0F00D0013F4FF00D
:1012E000300A02E005F804A00134444501D2202C64
:1012F000F8D14FF0300AB9F1000F03D0BC4201D24F
:101300001F2C34D916F0100F1FD016F4806F33D174
:1013100094B3444501D0BC422ED1B4F101082AD087
:10132000BCF1100F33D1023C16F0200F31D11F2C2D
:1013300015D84FF0780C05F804C001341F2C0ED8D6
:101340004FF0300C05F804C001341F2C07D8BEF153
:10135000000F23D04FF02D0C05F804C00134CDE967
:101360000A76CDE90854BDE8F047FFF753BF05F80A
:1013700004A00134BFE74446BCF1100FD4D0BCF147
:10138000020FDBD11F2CEAD84FF0620CD3E74446A2
:10139000F5E71F2CE3D84FF0580CCCE716F0040FFC
:1013A00002D04FF02B0CD7E716F0080FD7D04FF034
:1013B000200CD1E72DE9F04391B0189D1A9E1D9F96
:1013C0000DB927F010077C0500D50DB317F0200FDD
:1013D000AC460DF1200E4FF0000514BF4FF037085A
:1013E0004FF05708BCFBF6F906FB19C95FFA89F400
:1013F000B9F1090F94BF30344444E4B2B4450EF857
:10140000014BBCFBF6F405F1010501D3202D10D1F1
:101410001C9C05941B9C0697CDE903649DF86440D1
:10142000CDE9015408AC0094FFF73FFF11B0BDE8CF
:10143000F083A446D6E72DE9F04F93B0DDE91CAB6D
:10144000249D99465AEA0B0308BF25F010056B0549
:1014500006460F46904602D55AEA0B033CD00AAB2B
:1014600015F0200F089314BF372357230024099346
:10147000DDE9202350465946FFF7F6FBD2B2092A90
:101480008ABF099B3032D218089BD2B203F8012BD5
:101490000893DDE920239B4508BF924504F1010430
:1014A00001D3202C15D1239B0593229B0493209BD1
:1014B00003939DF878300695CDE901430AAB00937C
:1014C00042464B4639463046FFF7EFFE13B0BDE8C3
:1014D000F08F82468B46CBE70024E4E72E4B198839
:1014E0005A889142F0B516D9891A802903F104046B
:1014F000A8BF8021144403F204460025A94204DC5D
:1015000012FA81F25A800180F0BD14F8017B06F8CE
:10151000017B0135F2E7F7D2C2F58066802E03F138
:10152000040103F2044418DC0A4427460025AE42B5
:1015300020DC00255D8006805A88B3F800C0AE42EA
:10154000ACBF9719571911443C44944518D805B1BC
:101550005A8003881A440280D6E71144802511F886
:10156000016B04F8016B013DF9D180325A80802370
:101570000380C9E712F801CB07F801CB0135D6E7A4
:10158000571C802EBFB2E2D011F8012B04F8012BBA
:1015900001363A460125D8E7F40800200000000093
:1015A0002DE9F04F2DED068B91B0DDE9206708EEB7
:1015B000100A08EE901A92469B4632463B46304649
:1015C0003946229DFFF7D6FA80B9249B0393239BCB
:1015D000029303230193B64B009318EE901A18EE72
:1015E000100A5B465246FFF715FE47E04FF0FF3208
:1015F0006FF4801330463946FFF7C6FA38B1249BA2
:101600000393239B029304230193AA4BE4E7AA4B81
:101610004FF0FF3230463946FFF7D4FA78B1249BB9
:10162000A64A2499039103F00403002B2399A44BA9
:101630000EBF032213460422CDE90121CCE798A373
:10164000D3E9002330463946FFF7BCFA38B996A3F0
:10165000D3E9002330463946FFF796FA98B1249B28
:101660000493239BCDE90067CDE9025318EE901A4D
:1016700018EE100A5B46524600F02AF911B0BDEC94
:10168000068BBDE8F08F0022002330463946FFF775
:101690007BFA002800F082803B4632460020002181
:1016A000FEF748FE012306460F460793249B13F4DA
:1016B000806F08BF062508ABA5F12002A94630219E
:1016C000B9F1090FA5EB090406D909F1FF394A451B
:1016D00003F8011BF4D1202439463046FFF77CFA89
:1016E000784B03EBC90393ED007B0546B0EE479AB8
:1016F000F0EE679AFEF76CFF02460B46304639461D
:10170000FEF718FE53EC192BFEF7CCFF02460B46F2
:1017100043EC1A2BFFF788FA8046FEF749FF024692
:101720000B4651EC1A0BFEF705FE02460B4643EC46
:101730001A2B654B0022FFF745FA88B308F1010820
:101740004046FEF735FF02460B4651EC190BFFF7FA
:1017500025FA10B101354FF00008B9F1000F4ED154
:101760002846FEF735FF02460B4630463946FEF75F
:10177000E1FD554B002280468946FFF705FA30B15E
:10178000514B002240464946FFF71CFA10B1E807CA
:1017900000D5013508AB23440A2258E0079085E7BD
:1017A000494B51EC1A0B0022FFF7EEF90028D4D177
:1017B000B8F1000F02D018F0010FCED008F10108E7
:1017C000CBE7B8FBF1F001FB10823032B8F1090F22
:1017D00003F8012B09F1FF3904F1010427D8A144D2
:1017E00008AA3021202C0FD04C4504F1010320D150
:1017F00010AA14442E2204F8202C1C46CAE708AB79
:1018000023440A21202CDCD1249B03F00303012B69
:1018100008AB2CD1239A52B3079A1AB9249A12F022
:101820000C0F02D0239A013A2392302214E0804612
:10183000E8E7A1541C46D5E795FBF2F102FB1155F0
:10184000303503F8015B01340D460029DCD0202C33
:10185000F2D1D9E71A5501342399A14207D9202C96
:10186000F8D1249A0392239ACDE90142B4E6202CC0
:10187000F7D0079A32B110AA22442D2102F8201C79
:101880000134EEE7249A510703D510AA22442B21F4
:10189000F4E7249A1207E4D510AA22442021EDE7A8
:1018A0000000000065CDCD410000000065CDCDC138
:1018B0004DE4000851E40008FFFFEF7F48E4000812
:1018C00044E40008F0DF00080000E03F00000000F2
:1018D0002DE9F04F2DED088B8DB01D46DDE920B3CD
:1018E0009DED1E7B0793229B0A9208EE900AB0EEB4
:1018F000479AF0EE679A0C46069351EC170B53EC9F
:10190000172BFFF737F980B1CF4B51EC190B4FF084
:10191000FF32FFF757F940B951EC190B4FF0FF3286
:101920006FF48013FFF730F990B1069B2293079B69
:101930000A9A18EE900ACDE920B321462B468DED88
:101940001E9B0DB0BDEC088BBDE8F04FFFF728BE25
:1019500051EC190B00220023FFF716F9002800F0C4
:101960004E8119EE903A19EE108A03F10049069B58
:101970009FEDB67A9FEDB68A13F480630B93C9F39B
:101980000A53A3F2FF3307EE903AC9F31302F8EEBD
:10199000E77A42F07F51AF4B4FF00002404641F4EE
:1019A000401108BF4FF0060BA7EE878AFEF7C2FC76
:1019B0009FA3D3E90023FEF775FE064618EE100A32
:1019C0000F46FEF717FE02460B4630463946FEF735
:1019D000B3FCFFF701F907EE900AB8EEE77ADFED06
:1019E0009E7AB6EE008AA7EE278A8246DFED9B7AC2
:1019F000BDEEC88AF8EEC86A67EEE67ADFED986A4F
:101A0000E7EE267A17EE900AFEF7F4FD02460B4643
:101A100006460F46FEF746FE324641EC1A0B3B46A1
:101A200030463946FEF788FC8E4B41EC1B0B0022FA
:101A300051EC1A0BFEF760FF8B4B0022FEF77CFC8B
:101A400002460B4651EC1A0BFEF756FF874B00225D
:101A5000FEF772FC02460B4651EC1A0BFEF74CFFE8
:101A6000324641EC1A0B3B4600204FF08041FEF716
:101A700061FC02460B4651EC1A0BFEF75DFC024678
:101A80000B4651EC1B0BFEF737FF794B0022FEF79C
:101A900053FC18EE103A03F2FF3633050022FEF72E
:101AA00001FE06460F4602460B4640464946FFF7F2
:101AB0006BF8002840F0A680CDE908670AF16303BF
:101AC000C72B069B34BF04260526190523D55AA328
:101AD000D3E9002340464946FFF76AF8002800F0A2
:101AE0009C8057A3D3E9002340464946FFF74CF8B2
:101AF000002800F09280069BDA45B8BFABEB0A0BDA
:101B000043F480634FF00006B4BF0BF1FF3B4FF08E
:101B1000000B0693B246079BB34288BF9F1B069BF0
:101B200098BF002713F002030B9302D0002E18BFBA
:101B30000027BAF1000F07D040464946DDE90823E7
:101B4000FEF7DAFE8046894651EC190B002200238D
:101B5000FFF71AF810B109F100439946069B0A9A5B
:101B6000CDF808B023F40063CDE90373CDE9008913
:101B700018EE900A2B462146FFF712FD0746002E6D
:101B800037D0069B13F0200F00F10109024618EE32
:101B9000907A14BF452065202B462146B84705237F
:101BA000059300220A238AEAEA70CDE90232A0EB0B
:101BB000EA704FEADA73013E019300902B4618EE6B
:101BC000900A04964A462146FFF7F4FB0B9B074612
:101BD0007BB10A9BA0EB0309C8460A9B03EB0802F2
:101BE000079B434546D807990A9B0B44494528BFA4
:101BF0001F4638460DB0BDEC088BBDE8F08F59ECA0
:101C0000198BB4E6184B002230463946FEF774FEB5
:101C10000AF1FF3ACDE9080150E7BBF1000F3FF4AC
:101C20007AAF0B9B002B3FF476AF0BF1FF3B72E7D3
:101C300000000060A787D23F000000E0E2361A3FB4
:101C40000000000080842E41FFFFEF7F9B209A3E22
:101C50004451343E0000F83F789A54401872313FA6
:101C60008E5D134000002C4000002440000018400E
:101C70000000F03F18EE906A2B4621462020B04726
:101C800008F10108A9E700BF73B5164C22886388E4
:101C900000259A42ADF8065004F2844608D1304639
:101CA0006580258000F09AFE84F89C5402B070BDD7
:101CB0000DF10600FFF712FC04F20443C4F884346B
:101CC0003046BDF80630A4F8903400F0B9FD94F821
:101CD0009304294600F052FE03480122022101F03C
:101CE0000BFFE3E7F4080020003000402DE9F04F3F
:101CF00091B000290A93C74B1A9E904614BF8146A3
:101D0000994600250A9B187858B945452CBF08F11B
:101D1000FF322A4643460020C847284611B0BDE896
:101D2000F08F0A9B252803F101030A9306D02A4667
:101D30006C1C43460B91C8472546B7E1002206E0DC
:101D40002D2B14D0302B0CD142F001020A900A98AE
:101D500010F8013B2B2B0DD0F2D8202B0DD0232BCC
:101D60000ED0A3F13004092C28D8002710E042F04F
:101D70000202EBE742F00402E8E742F00802E5E77E
:101D800042F01002E2E70A2404FB0737303F0A90D2
:101D90000A9810F8013BA3F13004092CF3D90A9BEF
:101DA0001B782E2B67D10A9B581C5B78A3F130045B
:101DB000092C42F4806255D8002411E02A2B08D166
:101DC00056F8047B0A90002FBCBF42F002027F420B
:101DD000E5E70027E3E70A2000FB0434303C6046D7
:101DE00084461CF8013BA3F1300EBEF1090FF2D975
:101DF000034613F801CBBCF16C0F48D03ED8BCF1C0
:101E0000680F4DD0BCF16A0F55D0034613F8010B93
:101E10000A9378288BD8572850D8452805D086D9DA
:101E2000462800F03081472881D100F0DF03472B9E
:101E300004BF00F0FD0042F40062452808BF42F0F4
:101E40002002CDE90372073626F007060294F6E871
:101E500002234846CDE9002343462A460B91FFF76B
:101E600037FD22E12A2B07D156F8044B0A9824EAC1
:101E7000E4740230BCE70A980024B9E7BCF1740F9F
:101E800002D0BCF17A0FC0D142F48072BEE790F864
:101E900001C0BCF16C0FF7D142F44072831CB5E76E
:101EA00090F801C0BCF1680F02D042F08002ADE7AB
:101EB00042F0C002F2E742F40072A7E7A0F1580333
:101EC000202B3FF634AF0FF2080C5CF823F000BF74
:101ED000551F00082F1D00082F1D00082F1D00088A
:101EE0002F1D00082F1D00082F1D00082F1D0008A2
:101EF0002F1D00082F1D0008551F0008B1200008E5
:101F0000551F00082B1E00088B2000082B1E000800
:101F10002F1D0008551F00082F1D00082F1D000849
:101F20002F1D00082F1D00082F1D0008551F000839
:101F3000012200082F1D00082F1D00082D21000878
:101F40002F1D0008551F00082F1D00082F1D000819
:101F5000551F0008782800F06981582800F0648136
:101F60006F2800F06581622800F06481692822F002
:101F700010024FF00A0303D0642801D022F00C02B3
:101F800012F4806F18BF22F00102692802F4007C6D
:101F900001D0642844D1BCF1000F23D0073626F0CD
:101FA0000700824640685AF8086B049300230593A3
:101FB000C30F0293002E034673F10000CDE90772B0
:101FC0000694324602DA724263EB4303CDE9002302
:101FD000484643462A460B91FFF72DFA0B990546D2
:101FE00056468FE6D00506F1040A0CD53068CDE9D7
:101FF0000472CDE9023400284FEAD0730193B8BFD0
:102000004042009028E012F0400F306804D0C0B287
:10201000EDE700BFE5110008160648BF00B2E6E78D
:10202000BCF1000F0CD0CDE907720022CDE90432DB
:10203000073626F0070A06940292FAE80223C5E75B
:10204000D00506F1040A0ED5CDE90472CDE90234BB
:10205000CDF804C03368009343462A4648460B91A6
:10206000FFF7A8F9BAE712F0400F306807D0C0B206
:10207000CDE902340023CDE904720193C1E71606CD
:1020800048BF80B2F4E742F02002CDE90372073680
:1020900026F007060294F6E802234846CDE900231D
:1020A00043462A460B91FFF77BFA05460B9929E632
:1020B00012F0020426D04FF0010A56F8040B0B91DF
:1020C00043462A46C0B2C84705F1010B0B995CB3E1
:1020D00054465A4620E00B9143462020C8470B99AE
:1020E0000AEB05020AF1010A5745F4D8002F07F15F
:1020F000FF3308BF002307F1010A1D4408BF4FF05A
:10210000020ADAE7A246EBE70B9143462020551C72
:10211000C8470B9901342A46BC42F5D3A7EB0A0302
:10212000574538BF00239B445D46EBE5334653F8E3
:10213000046B0B93404B002E08BF1E46002C14BFAF
:1021400023464FF0FF333344B3469BF8000008B1F9
:102150009B4511D112F48063ABEB060B0C9302D0BC
:10216000A34528BFA34612F002030D931CD1ABEB8D
:1021700005032A460E930AE00BF1010BE5E70F91E8
:102180004346202002F1010AC8470F9952460E9B90
:102190001344BB42F3D3A7EB0B035F4538BF0023C7
:1021A0000BF1010B1D449B44A5EB060A05E01C4600
:1021B0000E9143462A46C8470E990AEB060516F8C3
:1021C000010B28B10C9B002BF2D0631E002CEED12A
:1021D0000D9B9BB12A46ABEB050406E00C914346F0
:1021E0002020561CC8470C9932461319BB42F5D320
:1021F000A7EB0B035F4538BF00231D440B9E81E511
:1022000042F021020823CDE9034305920023102266
:10221000CDE9013256F8043B00932A46434648462E
:102220000B91FFF7C7F840E742F020021023A5E624
:102230000823A3E60223A1E656E4000808B50C4BE8
:1022400093F89C240AB1002008BD1A885B889A4242
:10225000F9D10848802101F095FB0128F3D1054808
:10226000082101F08FFB013818BF0120ECE700BF07
:10227000F4080020003000400FB42DE9FF410AAA05
:10228000234852F8043B03920092224C4FF0FF3255
:1022900002A9FFF72BFD94F89C8400230546ADF8B6
:1022A0000A30B8F1000F2DD172B60DF10A00FFF718
:1022B00015F9BDF80A3023B304F20442A4F89034AF
:1022C000154B164FC4F884240126154AC4F88C34E3
:1022D00004F284401E23C4F89824A4F89234C4F86D
:1022E000887484F8946400F0ABFA94F8930441463F
:1022F00000F044FB32460221384601F0FDFB84F831
:102300009C6462B6284604B0BDE8F04104B0704752
:10231000E9110008F408002000010100003000402D
:10232000891C00080EB40FB505AA014652F8043BFB
:102330000392009204484FF0FF32FFF7D7FC04B03D
:102340005DF804EB03B07047DD1100080CB41FB555
:1023500006AC0A4654F8043B009401460448039432
:10236000FFF7C4FC04B0BDE8104002B0704700BFE6
:10237000DD110008064B0748E02283F82220C02127
:102380000023C2180133252B82F80013F9D17047BE
:1023900000ED00E000E100E00E4A08B5D2F8883018
:1023A00043F47003C2F888304FF08042D36843F0A2
:1023B0008003D360084B5A6922F4702242F48032C1
:1023C0005A619A689207FCD5FFF7D4FFBDE8084030
:1023D00000F02AB800ED00E000000240002103E018
:1023E0000B4B5B58435004310A480B4B42189A423E
:1023F000F6D30A4A02E0002342F8043B084B9A4213
:10240000F9D3FFF7C9FF0AF0BDFC0AF065FCFEE74F
:102410001CF3000800000020D4080020D808002089
:10242000281F0020FEE7000008B5012000F00AFE8A
:102430000B4B984213D90B4A0133B0FBF3F31370E3
:10244000094A4FF47A73B0FBF3F0084B0138E021EE
:10245000586082F8231000229A6007221A6008BD93
:102460003F420F00910D002000ED00E010E000E081
:1024700030B5094B09491B784D6863B18A685843E8
:10248000002314468A689442FBD098BF5B1923440A
:102490009B1A8342F5D330BD910D002010E000E07F
:1024A0004FF47A735843FFF7E3BF10B5012404FAE1
:1024B00002F2013A9A4207D304688A4024EA0202EF
:1024C00003FA01F10A43026010BD000070B5037CFD
:1024D00005460C468BB1C37B002B77D1A648EB7A1F
:1024E0000168C3F10303DB003F229A4021EA0201A5
:1024F000AA7B02FA03F30B430360EB7B03F5802313
:1025000023331B030F22C3F83823EB7B03F580230F
:1025100023331B03C3F84023EB7B03F580232333D2
:102520001B03C3F84823EB7B03F5802323331B03F2
:10253000C3F85023EB7B03F5802323331B03C3F83D
:102540005823EB7BE97A03F5802323331B0300290F
:1025500041D103F568710A68D207FCD403F108027F
:10256000626003F11002A26003F11402E26003F161
:102570001802A26103F11C02226103F140022360F0
:1025800062614433E3612E7C002E79D1A269136825
:1025900023F0C06343F000731360A269136823F053
:1025A000C07343F4000313602B7CA0690322142141
:1025B000FFF77BFFA269136823F4C0631360A2696D
:1025C000136823F4C073136000237BE0012B40F0F9
:1025D0008C806A4883E7012903F5687219D1116874
:1025E0008E07FCD403F15802226003F1600262609E
:1025F00003F16802A26003F16C02E26003F1700271
:10260000A26103F17402226103F1980262619C33BA
:10261000B8E7022919D111684807FCD403F1B002C8
:10262000226003F1B802626003F1C002A26003F10C
:10263000C402E26003F1C802A26103F1CC0222618C
:1026400003F1F0026261F4339CE711680907FCD4DE
:1026500003F58472226003F58872626003F58C7260
:10266000A26003F58E72E26003F59072A26103F539
:102670009272226103F5A472626103F5A67381E789
:10268000012E33D1A269136823F0C06343F00073B5
:102690001360A269136823F0C07313602B7CA069D8
:1026A00003221421FFF701FFA269136823F4C0631A
:1026B0001360A269136823F4C07343F4807313603A
:1026C000EB7A00266269E0690021116004220B2187
:1026D000FFF7EBFE33460422E0690721FFF7E5FE32
:1026E000E269136823F00203136070BD022E1DD14E
:1026F000A269136823F0C0631360A269136823F012
:10270000C07313602B7CA06903221421FFF7CDFE58
:10271000A269136823F4C06343F480631360A26961
:10272000136823F4C0731360EE7A4DE7032E20D1B3
:10273000A269136823F0C0631360A269136823F0D1
:10274000C07313602B7CA06932461421FFF7ADFEE5
:10275000A269136823F4C06343F480631360A26921
:10276000136823F4C07343F480731360EE7A334626
:10277000A8E700231E46A5E7001000400410004013
:10278000134B1A68D10710B514D41A68920713D4E2
:102790001B6813F0040F14BF022403240D4B53F8DD
:1027A000243003B198470C4A0C4B3CB9012111600D
:1027B000196010BD0024F1E70124EFE7012C01D1DD
:1027C0000221F4E7022C0CBF04210821EFE700BF2F
:1027D000F0320240B81A0020383302404033024041
:1027E000134B1A68D10710B515D41A68920714D480
:1027F0001B6813F0040F14BF022403240D4B221D89
:1028000053F8223003B198470B4A0C4B3CB90121D5
:102810001160196010BD0024F0E70124EEE7012CDF
:1028200001D10221F4E7022C0CBF04210821EFE7BB
:10283000F0420240B81A00203843024040430240B0
:1028400010B588B004462022002168460AF0B8FD81
:10285000002C50D069462046FFF738FE029A0698B1
:1028600000231360039A1360A389049A43F48053EE
:102870001360637A03220E21FFF717FEA37A0698EE
:1028800003220B21FFF711FE237A0698032204216D
:10289000FFF70BFE237A069803220121FFF705FEBE
:1028A000069A136843F001031360009B22681A60C4
:1028B000019B62681A60E37B2E4A4021EBB94FF01E
:1028C0000040106082F81F1303F580236169E27AEB
:1028D00023331B0369B3B2B9D3F8182342F48072CF
:1028E00042F00102C3F81823E27BE37A03EB820390
:1028F000214A42F8231008B010BD4FF400201060A8
:1029000082F81313E0E7012A06D1D3F8182342F422
:10291000007242F00202E5E7022AD3F818230BBF47
:1029200042F4806242F4006242F0040242F0080283
:10293000D8E742B9D3F8182322F4807222F00102BA
:10294000C3F81823D7E7012A06D1D3F8182322F4B5
:10295000007222F00202F3E7022AD3F818230BBF19
:1029600022F4806222F4006222F0040222F00802C3
:10297000E6E700BF00E100E0B81A002000F5802083
:102980002330000300F5687050F8083CDB075CBF9B
:10299000012340F8083C49B90368DA07FCD440F247
:1029A000011303600368DB07FCD57047012906D1DA
:1029B00003689907FCD440F20223036070470229A0
:1029C00005D103685A07FCD440F20443F5E70368D5
:1029D0001B07FCD440F60803EFE70000C37BC27A74
:1029E00003F5802323331B03002A4AD1D3F818238D
:1029F00022F00102C3F81823C37B03F5802323339D
:102A00001B03D3F8A023D10711D51A6C42F48072AE
:102A10001A64C37B03F5802323331B0303F14001B6
:102A20000A689205FCD54FF48072C3F8A023C37BDB
:102A300003F5802323331B0300221A609A60C27BB4
:102A4000C37A564903EB8203002041F8230002F5C4
:102A5000802323331B03196891B9996D81B9D3F889
:102A6000B01069B9D3F8081151B94D49002A40F0A6
:102A700092804FF00042C1F880200022C3F89823D2
:102A80007047012A2BD1D3F8182322F00202C3F891
:102A90001823C37B03F5802323331B03D3F8A02320
:102AA000910713D5D3F8982042F48072C3F8982088
:102AB000C37B03F5802323331B0303F198010A68CA
:102AC0009205FCD54FF40072C3F8A023C37B03F535
:102AD000802323331B0300229A651A66AFE7022A7C
:102AE000D3F818232BD122F00402C3F81823C37B98
:102AF00003F5802323331B03D3F8A023510713D5F9
:102B0000D3F8F02042F48072C3F8F020C37B03F5C1
:102B1000802323331B0303F1F0010A689205FCD5DF
:102B20004FF48062C3F8A023C37B03F580232333D3
:102B30001B030022C3F8B020C3F8B8207FE722F0BF
:102B40000802C3F81823C37B03F5802323331B0338
:102B5000D3F8A023110713D5D3F8482142F480728B
:102B6000C3F84821C37B03F5802323331B0303F5FC
:102B7000A4710A689205FCD54FF40062C3F8A02343
:102B8000C37B03F5802323331B030022C3F80821F2
:102B9000C3F8102153E74FF400226CE7B81A002065
:102BA00000E100E0144B15499A68D20444BF4FF489
:102BB00080529A60124B134A99619A611A6802F422
:102BC000007242F022021A60002299619A614FF06D
:102BD000FF320260084A9168C90405D54FF480535A
:102BE00093606FF0670070479A68D207FCD50122A6
:102BF0009A600020704700BF00F00040BFAE9D8C7F
:102C00000000024016151413284B2DE9F3419C686F
:102C1000274DE40444BF4FF480549C60254B264C60
:102C20009D619C611C6804F4007444F024041C60E1
:102C300000249D619C6122F007054FF0FF33CDE930
:102C400000332C466B46A2420CD81A4C174E002378
:102C500001F1040C4FF0FF3E4FF001089A4206D8F4
:102C6000002019E00E5D03F8016B0134EBE79D4293
:102C70008BBFCF58009FE760E7608CBF5CF80370A4
:102C8000019F276140F803E0B768FF0407D54FF4C0
:102C90008053B3606FF0670002B0BDE8F081A768B1
:102CA000FF07FCD5C4F808800833D7E700F00040E0
:102CB000BFAE9D8C0000024016151413012310B501
:102CC0008B40062A00F28280DFE802F0040F1B2905
:102CD0003849630002681A43026082681A438260BE
:102CE000C26822EA0303C36038E002681A43026044
:102CF00082681A438260C2681A43C2600269134341
:102D00000BE002681A43026082681A438260C2685C
:102D10001A43C260026922EA030303611EE00268EB
:102D200022EA03020260826822EA030282604268A9
:102D300022EA03024260826913430EE0026822EA3B
:102D400003020260826822EA03028260426822EA89
:102D500003024260826922EA0303836110BD1F4CB3
:102D6000A0426FEA03020BD1072909D981691140FA
:102D7000816181680A40826002681A430260BDE78F
:102D800001681140016081680A40826042681A430C
:102D9000D0E7124CA0426FEA03020AD1072908D9F2
:102DA00081691140816181681140816001680A4038
:102DB000E4E7016811400160816811408160416869
:102DC0000B43436083691A408261C7E702681A4374
:102DD0000260826822EA030281E700BF00FC014032
:102DE000072910B510D90D4B083998420BBF01EBDC
:102DF0004101890007230F238B408A40C16B21EAE0
:102E000003031A43C26310BD836B89000F248C40F7
:102E100023EA04038A401A438263F4E700FC01407A
:102E2000436812B119434160704723EA0101FAE790
:102E3000FFF7F6BFC36803F00603062BFAD1036859
:102E400041B143F000730360C36803F00603062B2F
:102E5000FAD1704723F00073F5E7436819B143F4E2
:102E600000734360704723F40073FAE7C3689B075D
:102E7000FCD58368194214BF012000207047C36845
:102E800003F00603062BFAD18160C36803F0060342
:102E9000062BFAD17047C068C0F3C000704708B570
:102EA0000346FFF7F8FF08B11869C0B208BD00007B
:102EB00070B505460C4600F02BF968B304281B4991
:102EC00008BF4FF4FA41E3794BBB237A53BB637AD3
:102ED000002B0CBF00264FF080766279A379206822
:102EE00013432279124C1343B1FBF0F200FB121191
:102EF00004EA8224420802EB01120E49B2FBF0F20E
:102F0000234301EA821213433343EA6802F00602C4
:102F1000062AFAD12B6070BD4FF40041D3E74FF47D
:102F20008006DAE74FF40006D7E700BF00093D004E
:102F300000FCFF03C0FF3F0008B5094B98420DD1CC
:102F400000211B2000F0F0F801211B2000F0C4FB41
:102F5000BDE8084000211B2000F0BEBB08BD00BF3B
:102F600000500040274B1B6810B59C0706D1264A2D
:102F7000536823F4700343F480135360234A1369A6
:102F800043F004031361204B1A6881B122F0200240
:102F900002281A600ED81A6822F003021043186043
:102FA00000292BD01A4B04225A6030BF10BD42F0CA
:102FB0002002EDE7174B1A6892060AD5164C174AFD
:102FC0009C619A611A6822F020021A6000229C61BA
:102FD0009A61134A13685C045CBF43F48043136036
:102FE000094B1A6842F003021A605A6803280CBFA2
:102FF00042F0807222F080725A60D1E740BF20BF59
:1030000020BFD3E7102000100018004000ED00E0C2
:1030100000E100E000000240BFAE9D8C16151413C5
:10302000308000400121FFF79DBF0000044A136873
:1030300018B143F080031360704723F08003FAE770
:103040000C8000404FF0804301461A6802F4E042D1
:10305000B2F5A04F20D015D8B2F5805F1ED0B2F5E2
:10306000005F1B4808BF4FF4004002291BD0032912
:1030700023D0012905D14FF080431B68C3F30323FC
:10308000D8407047B2F5C04F0BD0114B1148B2F584
:10309000E04F18BF1846E8E70F48E6E74FF4FA405C
:1030A000E3E70E48E1E74FF080421368C3F30323E0
:1030B000D8401368C3F34213E2E74FF0804213682D
:1030C000C3F30323D8401368C3F3C233D8E700BF68
:1030D00000366E01006CDC020048E80100093D008A
:1030E0004FF08043986800F4C03070474FF0804341
:1030F000986800F4C04070474FF08043986800F42F
:10310000C05070474FF08043986800F4C06070472B
:103110004FF08043586800F00C0070474FF0804338
:10312000586800F00200704741284AD8DFE810F0E4
:1031300011020702FD01E401D201B9017101670129
:103140005D01530149013F0135010D010301D60025
:10315000EA00E000CC004900C200B800AE00A300C5
:1031600099008F0085006B00610057004D00420000
:10317000170121012B01490049004900490049007C
:1031800049004900490049004900490049004900F7
:103190002E0225021B023802950149004900490010
:1031A00049004900490049004900490049004900D7
:1031B00042024C024FF08043DA6819B142F48012A7
:1031C000DA60704722F48012FAE74FF08043DA6841
:1031D00011B142F40022F3E722F40022F0E74FF0AD
:1031E0008043DA6811B142F48022E9E722F48022B8
:1031F000E6E74FF08043DA6811B142F40032DFE7CE
:1032000022F40032DCE74FF08043DA6879B142F40F
:103210008032DA604FF080439A6A02F03F023F2A20
:10322000FAD15A6931B142F004025A61704722F46E
:103230008032EEE722F00402F7E74FF08043DA68CD
:1032400011B142F40042BBE722F40042B8E74FF06C
:103250008043DA6811B142F48042B1E722F480423F
:10326000AEE74FF08043DA6811B142F40052A7E7AD
:1032700022F40052A4E74FF080431A6919B142F0DA
:1032800020021A61704722F02002FAE74FF08043D3
:10329000DA6811B142F4805292E722F480528FE74B
:1032A0004FF08043DA6811B142F4006288E722F4FB
:1032B000006285E74FF08043DA6811B142F4806222
:1032C0007EE722F480627BE74FF08043DA6811B139
:1032D00042F4807274E722F4807271E74FF0804309
:1032E000DA6811B142F020026AE722F0200267E7B3
:1032F0004FF08043DA6811B142F0800260E722F0BB
:1033000080025DE74FF08043DA6871B142F040021D
:10331000DA604FF080439A6A02F03F023F2AFAD106
:103320005A6929B142F008027FE722F04002EFE734
:1033300022F0080279E74FF08043DA6811B142F0D9
:1033400010023DE722F010023AE74FF08043DA68BE
:1033500011B142F0007233E722F0007230E74FF013
:103360008043DA6811B142F0807229E722F080725E
:1033700026E74FF08043DA6811B142F400021FE7FC
:1033800022F400021CE74FF08043DA6811B142F4E6
:10339000800215E722F4800212E74FF08043DA68DA
:1033A00011B142F008020BE722F0080208E74FF0E3
:1033B0008043DA6811B142F0040201E722F004020E
:1033C000FEE64FF08043DA6811B142F00202F7E600
:1033D00022F00202F4E64FF08043DA6811B142F0C5
:1033E0000102EDE622F00102EAE64FF08043DA68DE
:1033F00011B142F00062E3E622F00062E0E64FF035
:103400008043DA6811B142F08062D9E622F080622E
:10341000D6E64FF080431A6979B142F400721A611E
:103420009A6A02F03F023F2AFAD15A6942F010022A
:103430005A611A6942F0100223E722F010021A6161
:103440009A6A02F03F023F2AFAD15A6922F010022A
:103450005A611A6922F4007213E74FF080431A6927
:1034600079B142F480521A619A6A02F03F023F2A0F
:10347000FAD15A6942F020025A611A6942F4006294
:10348000FFE622F400621A619A6A02F03F023F2AC4
:10349000FAD15A6922F020025A611A6922F4805244
:1034A000EFE64FF080431A6971B142F008021A61E9
:1034B0004FF080439A6A02F03F023F2AFAD15A69DC
:1034C00029B142F00102B0E622F00802EFE722F053
:1034D0000102AAE64FF080431A6931B142F00402BA
:1034E0001A611A6942F04002CBE622F004021A6126
:1034F0001A6922F04002C4E64FF080431A6971B1A4
:1035000042F002021A614FF080439A6A02F03F02D1
:103510003F2AFAD15A6929B142F0020285E622F027
:103520000202EFE722F002027FE64FF08043DA6802
:1035300011B142F0805243E622F0805240E64FF053
:1035400080431A6911B142F001029AE622F00102A9
:1035500097E64FF080431A6911B142F0800290E67D
:1035600022F080028DE64FF080431A6911B142F4D7
:10357000807286E622F4807283E64FF08043DA6838
:1035800009B11A431CE622F0804219E64FF080434D
:10359000DA6811B142F0005212E622F000520FE652
:1035A0004FF080431A6911B142F4806269E622F457
:1035B000806266E64FF08043DA6811B142F400128F
:1035C000FEE522F40012FBE54FF08043DA6811B10A
:1035D00042F00042F4E522F00042F1E510B50C465D
:1035E00005280ED8DFE800F003151F28335E364AA1
:1035F0003649136834B123F0200313608B685B07EE
:10360000FCD510BD43F0200313608B685C07FCD42D
:10361000F7E72F4A136819B123F400431360F0E76A
:1036200043F40043FAE72A4A136811B123F4C04374
:10363000F4E743F4C043F1E7234A136823F0180387
:1036400011B143F00803E9E743F01003E6E7012175
:103650000E20FFF769FD1F4BD3F80421CCB1900673
:103660000BD4D3F8042142F02002C3F80421D3F88C
:10367000042122F08002C3F80421164BD3F8042160
:1036800042F00402C3F80421D3F808219107FBD5C6
:10369000B7E722F00402C3F80421D3F80821920707
:1036A000FBD4AEE7084A0949136834B123F040035C
:1036B00013608B68002BFCDAA3E743F04003136030
:1036C0008B68002BFCDB9CE71880004000820040E8
:1036D00008800040009000403F281ED82F280DD9B8
:1036E0000123303803FA00F04FF08043DA6911B952
:1036F0001043D861704722EA0000FAE7A0F12003E6
:10370000DBB2022B98BF0D20012303FA00F04FF02B
:1037100080439A6911B910439861704722EA00000A
:10372000FAE708B500210320FFF7FEFC0121032082
:10373000FFF7D2FFBDE8084000210320FFF7CCBF10
:10374000034940F6FF53CA6A33EA0202FBD17047CD
:1037500000E0004008B5FFF7F3FF054B1A6818B109
:1037600042F080521A6008BD22F08052FAE700BF92
:1037700000E0004008B5FFF7E3FF054B1A6818B1F9
:1037800042F080721A6008BD22F08072FAE700BF32
:1037900000E00040012808B50AD8FFF7D1FF054B2B
:1037A0001A6801280CBF42F0007222F000721A6001
:1037B00008BD00BF00E00040F8B5054600285FD016
:1037C00031480346476BB9B25E6C5A6CB242FBD1CA
:1037D0009C6C9A6CA242FBD15A6B92B29142F1D18D
:1037E0000029EFD0FFF79AFCBFB207EE907AB8EE4F
:1037F000E77AF6EE007A002843D1DFED246AC6F3BB
:10380000021306F00F0203EB830302EB4303EB7199
:10381000C6F3C223C6F3C31203EB830302EB4303D5
:10382000AB71C6F3814303EB8303C6F3833606EB28
:103830004306C4F3011304F00F0203EB830302EB0E
:1038400043032B71C4F380239A001344C4F38312FF
:1038500002EB4303E7EE267AEB70C4F3C223AB70AE
:10386000C4F3834303EB8303C4F38334FCEEE77AAE
:1038700004EB430404F5FA64C5ED027A6E712C8002
:10388000F8BDDFED036ABAE700E000400024F44130
:103890000000FA41402810B50C4608D0431EDBB2A8
:1038A0001F2B09D8054A22FA03F3DB0704D5FFF7DB
:1038B00047FF0CB9024BD86110BD00BF8B80008060
:1038C00000E00040402808B508D0431EDBB21F2BA3
:1038D0000ED8084A22FA03F3DB0709D5FFF730FFB9
:1038E000054BDB6930EA03030CBF0120002008BD53
:1038F0000020FCE78B80008000E0004080280AD098
:10390000402808D0431EDBB21F2B0DD8074A22FAED
:1039100003F3DB0708D5012906D8054B9A6A0CBFCB
:10392000104322EA00009862704700BF8B8000803D
:1039300000E0004008B518B1FFF702FF014B9861A5
:1039400008BD00BF00E00040BFF34F8F0449054BA6
:10395000CA6802F4E0621343CB60BFF34F8FFEE707
:1039600000ED00E00400FA0530B1054BDA6A0260B0
:103970001B6B4360002070474FF0FF30704700BF63
:103980000000024083690B4214BF012000207047F1
:103990004FF4E133036060238380002383714FF48D
:1039A000401383607047036B19B143F00103036355
:1039B000704723F00103FAE7036B23F0010370B5AE
:1039C0000363C36A23F01003C36200238363464B7F
:1039D000984204460D463ED1FFF782FBC00B0138EA
:1039E000022850D8414B53F820002B68B0EB031F3E
:1039F0004FEA031175D36BB1B0FBF1F601FB160072
:103A0000C200B2FBF3F202F0010303EB52039BB2DC
:103A100043EA06431A0C03F03F036262A362E36ABF
:103A20002A7923F060031343E362E36AAA7923F05F
:103A300008031343E362EB7A8BB3E36A43F01003AA
:103A4000E3626B79012B2ED0022B42D09BBBE36A41
:103A500023F002032EE0B0F1402F04D1FFF746FB24
:103A6000C0F34F30BBE7224B984204D1FFF744FB31
:103A7000C0F3CF20B3E71F4B98420ED1FFF742FBB4
:103A8000C0F34F20ABE7184B9C4202D0B4F1402F5B
:103A900003D10220FFF7D6FAA7E70320FAE7E36A8B
:103AA00023F01003CCE7E36A43F00203E362E36A26
:103AB00023F00403E362236BAA7A23F03003134359
:103AC0002363236B2A8923F4404313432363002099
:103AD00070BDE36A43F00203E362E36A43F0040368
:103AE000E8E74FF0FF30F3E70030004040E0000827
:103AF0000000014000100140836C12B11943816441
:103B0000704723EA0101FAE7FEF7CABC10B501F0DD
:103B1000FDFB044601F090FC064B1B68011B201ABC
:103B200003B910BD1A688A428CBF121800221A60AD
:103B30001B69F5E7980D0020054B1A680AB10021B2
:103B400011721860012302610372006801F08EBBDC
:103B5000980D002073B502AB03E9030001F0DCFB14
:103B6000BDF90420009E064C4FF47A75D317E5FB8F
:103B70000623101A63EB0101C4E9020102B070BD13
:103B8000980D00200023C0E90033C0E9031303723D
:103B90007047000070B5044601F08FFC64B11A4D07
:103BA00029680B4663B962682260237261B901F02B
:103BB00043FC2046FFF7C0FFBDE8704001F07FBC2A
:103BC0009C42F9D01B69EDE701F042FC22682B68AA
:103BD0000244226019688A42064605D2FFF796FF22
:103BE0002068801B2060E4E71969186910B91C611E
:103BF0002061E1E70868824202D90B460969F4E7CF
:103C00001C612161D8E700BF980D0020D0B5FFF7F7
:103C10007DFF174A136814462BB11969DB681160E0
:103C200003B9FEE79847236823B9FFF76FFF2368BE
:103C30009BB9D0BD1E6801F00BFC00278F4208BF66
:103C4000864203D323681B68002BEED123681A69D0
:103C5000DB682260002BE5D1FEE71A7A002AE8D162
:103C60000122BDE8D04018681A7201F0FFBA00BF07
:103C7000980D002070B5164D044601F01EFC2B680F
:103C800003B11CB9BDE8704001F019BCA34215D1C5
:103C9000237A266983B16EB1002323722E60FFF769
:103CA00035FF2B68012218681A7201F0DFFA002331
:103CB0002372E7E701F020FB2E60F8E71A461B6944
:103CC000002BF4D09C42F9D123691361EFE700BFC8
:103CD000980D002038B504460D46FFF7CBFFC4E928
:103CE000005538BD08B501F017FB034AD2E902328E
:103CF000C01842EB010108BD980D002070B50446C4
:103D0000FFF7F0FF4FF47A72002306460D46FCF7EA
:103D1000ABFF294620604FF47A7230460023FCF74F
:103D2000A3FF2046A28070BD38B504460D46FFF7BC
:103D3000D9FF001B61EB050138BD0000064A137C6A
:103D4000042B04D8137C0133DBB2137470470023B7
:103D5000137401F089BB00BF980D002010B510222C
:103D600004460021043001F074FD0023236010BDDF
:103D7000002308461A461021FCF7E2B92DE9F0436A
:103D80000746054657F8140B85B00E46144620B377
:103D9000C0F110099145C84628BF90461FFA88F225
:103DA000384401F042FD2B6843440F2B2B601CD993
:103DB000A1451AD22A1D134612F8011BD07BBA4224
:103DC00081EA000102F8011CF6D1002210211846F8
:103DD000FCF73EFA4644A4EB0804102C08D8A2B223
:103DE0003146384601F021FD2C6005B0BDE8F08376
:103DF0002B1D711E98461A7811F8010F424003F8E6
:103E0000012BBB42F7D110224146684601F00DFD5F
:103E10006B46002210216846FCF71AFA1022694608
:103E2000404601F002FD1036103CD6E770B588B070
:103E3000102205460C466846002101F00AFD6B463B
:103E4000002210216846FCF703FA9DF90030002B90
:103E50006A464FF0000140DA137812F8010F013181
:103E60005B0043EAD0130F2902F8013CF4D19DF81E
:103E70000F305B0083F087038DF80F302368102B21
:103E80003AD104F11403694604F124001A7811F8B8
:103E9000016B724003F8012B9842F7D1231D19469C
:103EA000143413F8012BD87B9C4282EA000203F8F9
:103EB000012CF6D110220DEB020001F0B6FC10210E
:103EC0002B460DEB01000022FCF7C2F91022002165
:103ED000684601F0BEFC08B070BD137812F8010FFF
:103EE00001315B0043EAD0130F2902F8013CF4D101
:103EF0009DF80F305B00BFE79DF90020002A69465E
:103F00004FF000002FDA0A7811F8016F01305200EB
:103F100042EAD6120F2801F8012CF4D19DF80F20A7
:103F2000520082F087028DF80F20E2188021581C81
:103F300011750026014604F114020F2922D9102818
:103F4000C3F10F03214688BF0023034441F8243BFB
:103F5000684613461A7810F8016B724003F8012B7B
:103F60009942F7D19AE70A7811F8016F01305200AF
:103F700042EAD6120F2801F8012CF4D19DF80F2047
:103F80005200D0E756540131D7E7012070470000B6
:103F9000034B1B6813B15B6803B11847704700BF40
:103FA000AC0D0020034B1B6813B1DB6803B118474D
:103FB000704700BFAC0D0020002000F0EDBD0000F8
:103FC00010B5134C206000F015FF002000F0E4FD58
:103FD000012000F08EFE0021084601F08BF804213C
:103FE000002000F059FF0023194618461A4600F039
:103FF000D1FE08490848FFF7C5FD08490848FFF702
:10400000C1FD08490848FFF7BDFD0020207110BD23
:10401000AC0D0020913F0008181B0020A53F0008B0
:10402000541C0020954100082C1C002008B500F00D
:1040300035FDC31EDBB2022B9ABFC0F10600C0B231
:10404000002008BD00F0ECBE08B501F060F800B239
:1040500008BD01F055BB01F01FBB000038B50C4690
:10406000002340F201211A460546084600F092FE60
:1040700000F00CFF0B4B01280A480CBFDC731C72CC
:1040800000F0C4FF21462846002200F0B1FD064B97
:1040900006489968FFF71EFEBDE838400348FFF761
:1040A00079BD00BFDC1A0020AC0D0020181B0020D9
:1040B00008B54FF0040000F05DFDBDE808400220A7
:1040C000FFF722BD00F0D0BD37B5184B93F838503C
:1040D0000F2805F10D05EDB222D8072822D80328B4
:1040E00022D8012894BF0024012400234FF4C0717A
:1040F0001A46084600F04EFE002300930A22294685
:10410000204600F0D9FF00F0CBFD09484FF4FA61DA
:10411000FFF7E0FD064803B0BDE83040FFF73ABDC9
:104120000424E2E70324E0E70224DEE7DC1A0020AF
:104130002C1C002010B50C462DED028B08EE102A29
:1041400000F06EFE204601F033FB00F0B5FDDFED20
:104150000A7A0A48B8EEC88A28EE278AFCEEC87A9E
:1041600017EE901AFFF7B6FDBDEC028B0348BDE8D1
:104170001040FFF70FBD00BF00007A44541C002020
:1041800001F066BA01F094BA08B501F0D5F9033030
:1041900008BD000010B5002000F086FC044B1B6831
:1041A0002BB19B691BB1BDE810400020184710BD22
:1041B000AC0D002010B590B10A4B012219461C68C5
:1041C000A04206D39C68A04203D201EBC202107940
:1041D00010BD0132162A03F10803F0D1FEE71F20BB
:1041E000F6E700BF50E000080128074804D1074B5C
:1041F000C173197000F00ABFC379012B03D1034BBF
:1042000001721970F6E77047DC1A002000000020E8
:10421000002340F2422110B51A460446084600F039
:10422000B9FD34B109482146FFF754FD0748FFF7AF
:10423000B1FC074B1A7B2AB16FF07F40BDE81040FC
:1042400000F0E0BC18698001F8E700BF541C0020B2
:10425000AC0D00200023022110B51A460446084682
:1042600000F098FD34B109482146FFF733FD0748B7
:10427000FFF790FC064B1A7B2AB16FF07F40BDE838
:10428000104000F0D5BC18698001F8E7541C0020EC
:10429000AC0D0020F7B5504C2379002B00F08A803C
:1042A0004E4D01F00AF90023237101F008F92B8823
:1042B000D9070AD54A48FFF7DDFC012000F0F4FBDE
:1042C000236813B11B6803B198472B889A0731D52F
:1042D0004448FFF7CFFC267B96B9012000F0E4FBB1
:1042E000314640F6021001F0D7F940F6441001F0D3
:1042F00007FA40F00200C1B240F6441001F0CCF9D8
:10430000394E3A48FF220DF1070100F031FF3046E7
:1043100000F048FF23686BB19F685FB12B885B0694
:1043200008D496F90D3096F90C209DF807102F4807
:104330001A44B8472B88580609D5237B13B90120A6
:1043400000F0B2FB236813B11B6903B198472B88B7
:1043500019060DD52648FFF78DFC012000F0A4FBBF
:1043600023682BB19B691BB12888C0F300209847B4
:104370002B889A050ED500F091FB04281CD1184813
:10438000FFF778FC012000F08FFB236813B15B6816
:1043900003B198472B889B060CD51248FFF76AFC9F
:1043A000237B13B9012000F07FFB236813B1DB6886
:1043B00003B1984703B0F0BD00F070FB0528E9D1C8
:1043C0000848FFF757FC012000F06EFB2368002B24
:1043D000E0D0DB68DCE700BFAC0D0020D81A00207D
:1043E000181B0020541C0020401C00202C1B002007
:1043F0002C1C00200D4B10B504461875587500F0A4
:1044000017F85CB134214FF4E86001F045F944211C
:10441000BDE8104040F2417001F03EB914214FF464
:10442000E86001F039F92421F2E700BFAC0D00206B
:1044300008B5012000F01AFD054B187D5A7D824217
:1044400004D05875BDE80840FFF7D4BF08BD00BFD1
:10445000AC0D0020012808B506D0002000F006FDB4
:10446000034B00225A7508BDBDE80840FFF7E0BFC6
:10447000AC0D0020F8B50D4617461C46FFF7EAFFC5
:10448000284600F0CDFC0020FFF7C2FE0120FFF718
:104490003BFBFFF727FC0025064630460021FFF7CF
:1044A00043FCA94208BFA04204D30124FFF700FE49
:1044B0002046F8BD00F02BFE00B28742EDDA002462
:1044C000F4E737B5FFF7B4FF002000F09BFB0024B2
:1044D00025460120FFF718FB00F019FE00F001034C
:1044E000A3400134202C45EA0305F2D101F076F90E
:1044F00028440190FFF7DCFD019803B030BD0000B7
:104500000A2838B50DD8084B03EBC000D0E92C457C
:1045100001208840FCF75CF822462B46FCF7ECF9BA
:1045200038BD00240025F3E750E00008000000003B
:104530002DE9F04F85B015469DF84C2000929DF86E
:104540005C209DF84470DFF80092BDF8404089F887
:104550000C20002A18BF0024734ABDF83C80002FAD
:104560000E469DF8481008BFFF2111708246934601
:1045700020B101286DD005B0BDE8F08FDFF8C0B1E3
:1045800000F09FFB0B2330468BF834308BF828A0CB
:10459000CBF82C50FFF70EFE634A8BF8350041F63E
:1045A0000403ABF8043013788BF80830009B8BF8C9
:1045B00000A0002B14BFF223012387F001078BF822
:1045C00009304FEAC80801238BF80A308BF80770CE
:1045D000ABF802808BF806A0FFF7EEFC9BF82800F2
:1045E000003818BF0120FFF735FF0BF1280000F05D
:1045F000B3FC584600F00AFD4C4A1068516802AB03
:1046000003C302A800F06DFA40F2FF1000F096FA22
:104610002846FBF7CDFF02460B4600204449FCF735
:104620006BF9444B0022FCF73DF8064620460F4646
:10463000FBF7CEFF02460B4630463946FCF732F810
:104640003D4B0022FCF72EF8FCF7EEFAC9F81000FB
:1046500091E70020019300F034FBE0B200F03DFB55
:10466000364A374C019B84F828A032445FFA85F91A
:1046700092F8100184F8389084F8390084F83A30C0
:1046800096BB0B3D012D33D80123A9F105099945AE
:1046900084F83BA0237039D8B8F10B0F36D80C231F
:1046A000A3819BF80030E373009B23749DF858307E
:1046B0006374A773FFF7BCFE224800F04DFC20484E
:1046C00000F0A4FC637C012B40F2367021D101F094
:1046D00017F800F0FB0140F2367000F0DDFF1A4AD7
:1046E0004FF6FF73136146E7012E01D10C2DCBD09D
:1046F0004946FFF705FF0AA3D3E90023FCF758FA60
:10470000B0F1000A18BF4FF0010ABDE7A4F80C8011
:10471000C7E700F0F5FF40F00400C1B2DBE700BFDF
:10472000000000A0476130400000002058E1000870
:104730000000F03F0000204000408F4050E00008A3
:10474000DC1A0020041B0020AC0D0020000000003B
:104750002DE9F74F0C9EBDF838709DF83C809DF810
:1047600040A089469346054648B1012845D040F609
:10477000890000F0C5FF40F00400C1B283E0544C52
:104780000B2284F82800184684F83420E662FFF7EC
:1047900011FD41F60403BAF1000FA38014BFF22308
:1047A00001236372FF00012388F00108A37284F8DB
:1047B0003500C4F830B025706780A57184F8078093
:1047C000FFF7FAFB94F82800003818BF0120FFF724
:1047D00041FE04F1280000F0BFFB204600F016FC6B
:1047E0003C4A106851686B4603C3684600F079F98B
:1047F00040F2FF1000F0A2F9B9E7374A344C1A44EE
:1048000084F828005FFA86FB92F810019DF83420A6
:1048100084F838B084F8390084F83A20002B3FD16E
:104820000B3E012E40D80123ABF1050B9B4584F8CC
:104830003B50237044D80B2F42D80C23A381274B25
:1048400084F80E801B78E3739DF84C30637484F811
:1048500010A0FFF7B1FB94F82800003818BF012022
:10486000FFF7F8FD1E4800F077FB194800F0CEFB7B
:1048700094F83930062B7FF47AAF40F6890000F0C7
:104880003FFF00F0FB0140F6890000F005FF4846BD
:1048900000F08EFF149A134B9A6003B0BDE8F08FBE
:1048A000012B01D10C2EBED05946FFF729FE06A3DD
:1048B000D3E90023FCF77CF9051E18BF0125B2E7F8
:1048C000A781BCE7AFF30080000000A04761304043
:1048D000DC1A002058E1000850E000080000002029
:1048E000041B0020AC0D00202DE9F74F884628B1AD
:1048F00001283DD0002003B0BDE8F08F5A4A9FED5B
:104900005B6A5179538803EBD10307EE903AD37970
:10491000F8EEE77A002B07EE108AF7EE006A08BF80
:10492000F0EE466A77EEA67AB8EEC77A537A77EE5B
:10493000877A022BB0EE007A18BFB0EE467A77EE97
:10494000877AB2EE007A67EE877A92ED0B7AB8EE4C
:10495000477AC7EE876ADFED467A66EEA77A17EEEA
:10496000900AFBF747FE09F05BFAFCF75DF9C2E736
:10497000DFF8F4A09AF838B09AF839005946FFF7F2
:10498000BFFDBAF80C3007EE903AF8EEE77AB1EED8
:10499000017A77EE877A04460D4617EE900AFBF708
:1049A00029FE22462B46FBF77DFE9AF80E3006467E
:1049B000CBEB48089AF81000012B08F1070808EB28
:1049C00080080CBF14200020C0EB88000F46FBF7C6
:1049D000FFFD9AF83B30002B804614BF02200020D8
:1049E000ABEB000080008946FBF7F2FD02460B4668
:1049F00040464946FBF780FF09F01AF902469AF84B
:104A00003A0000F003000B460430CDE90023FBF729
:104A1000DFFDDDE90023FBF745FE00220023804691
:104A20008946FCF7CFF818B94FF000084FF000099D
:104A3000104B002240464946FBF77EFC22462B469F
:104A4000FBF730FE32463B46FBF776FC04A3D3E986
:104A50000023FBF771FC09F067F986E7AFF30080EC
:104A6000000000E0CEF7EF3FDC1A0020000000005D
:104A700000007A440000204008B5064B01221A715C
:104A800000F09DF9044B1880BDE808404FF6FF7018
:104A900000F0C8BBAC0D0020D81A0020014B1878DC
:104AA000704700BFC40D0020014B1870704700BF55
:104AB000C40D002008B5074B1A7812B11B78062BDD
:104AC00003D100F067FD00F079FEBDE8084000F07A
:104AD00055BD00BFC40D00200A460146002000F06D
:104AE0001BBE08B5014608224FF4D86000F0B0FDA7
:104AF000002008BD07B5074B5B7840BAADF804004D
:104B00002BB9022201A940F2BC6000F0A1FD03B064
:104B10005DF804FBC40D002007B5074B5B7840BA75
:104B2000ADF804002BB9022201A940F2BE6000F0EA
:104B30008FFD03B05DF804FBC40D002010B50C4BD5
:104B40005B7804469BB94FF4D76000F0D9FDC4F3FD
:104B5000002100F0FE0001434FF4D76000F09CFDFF
:104B6000E1B240F2B960BDE8104000F095BD10BD63
:104B7000C40D002007B58DF8040000F027FE0122C7
:104B800001A9842000F01EFD024B00221A7003B020
:104B90005DF804FBC40D002007B501228DF8070065
:104BA0000DF10701802000F00DFD9DF80720044B5A
:104BB00022B901221A7003B05DF804FB0222F9E762
:104BC000C40D002007B5094B8DF8060004221A70A9
:104BD000030C8DF804300322030A01A983208DF809
:104BE000053000F0EFFC03B05DF804FBC40D0020BD
:104BF00010B51446FFF770FF2046BDE81040FFF7E0
:104C0000E1BF000007B5094B8DF8060005221A70B8
:104C1000030C8DF804300322030A01A982208DF8C9
:104C2000053000F0CFFC03B05DF804FBC40D00209C
:104C300013B50C4B04460522962140F6AC001A70C1
:104C400000F02AFD230C8DF804300322230A01A969
:104C500082208DF805308DF8064000F0B3FC02B0DC
:104C600010BD00BFC40D002007B5030C8DF8003047
:104C7000030A8DF801300B0C49BA8DF80200ADF82B
:104C800004100622694694208DF8033000F09AFC47
:104C9000024B06221A7003B05DF804FBC40D00201D
:104CA000002208B51146C52000F08CFC014B0722FC
:104CB0001A7008BDC40D002000221146D12000F05A
:104CC00081BC07B501228DF807000DF107019F2077
:104CD00000F078FC03B05DF804FB07B501228DF805
:104CE00007000DF10701A02000F06CFC03B05DF897
:104CF00004FB07B501228DF807000DF1070196208E
:104D000000F060FC03B05DF804FB0000134B984218
:104D100007B50BD94EF6E113ADF80430022201A914
:104D2000982000F04FFC03B05DF804FB0C4B984258
:104D300002D94DF6D703EFE70A4B984202D94CF25D
:104D4000C153E9E7084B984202D948F27513E3E7EB
:104D5000064B9842E2D946F66B73DDE700E9A435CD
:104D600080F8A9328044E52D000B6B1B40FC5419E0
:104D700007B58DF8062004228DF804008DF8051083
:104D800095200DEB02018DF8073000F01BFC03B0FD
:104D90005DF804FB07B552BAADF8042040BA08220A
:104DA00049BAADF80000ADF802105BBA694610468A
:104DB000ADF8063000F006FC03B05DF804FB07B563
:104DC000022201A9122000F01FFC9DF804009DF8AA
:104DD000053043EA002003B05DF804FB07B501226B
:104DE0008DF807000DF107019D2000F0EBFB03B0EB
:104DF0005DF804FB08B500F071FB00F09FFB00F0CC
:104E0000C9FB0020FFF7C8FE0120FFF7E7FF024BB8
:104E100001221A7008BD00BFC40D00200000000070
:104E200037B5114DAB7804461BB9FFF76FFF01236F
:104E3000AB702046FBF7BCFB09A3D3E90023FBF7CB
:104E40005BFDFBF7F1FE042200BA01900DEB0201BD
:104E5000862000F0B7FB03B030BD00BFAFF3008089
:104E6000000000008084EE3FC40D002007B5064B13
:104E70008DF80700587001220DF107018A2000F01B
:104E8000A1FB03B05DF804FBC40D0020014B587872
:104E9000704700BFC40D002037B5044600200D4602
:104EA00000F089FC0128034620D10F2C02464FF068
:104EB00000010CBF06200420FFF75AFF6FF002002C
:104EC0008442B8BF04460E2CA8BF0E24182140F619
:104ED000E70000F0E1FB022201A98E208DF80440DA
:104EE0008DF8055000F06EFB03B030BD40F6D800E1
:104EF00000F006FC40F01E00C1B240F6D80000F001
:104F0000CBFB134B1878022818D0032806D00128B1
:104F100018D1034600220521032003E002210123CA
:104F200000220846FFF724FF6FF002008442B8BF5A
:104F30000446162CA8BF16243821C8E701230022F6
:104F40000321EFE70123002207210420EAE700BF45
:104F5000D50D00200000000013B5294A0446516811
:104F600010686B4603C3274B20785B78834201D0DF
:104F7000FFF77CFF23781BB1012B35D002B010BDA9
:104F80006068FBF715FB02460B4619A1D1E9000149
:104F9000FBF7B2FC00221C4BFBF784FBFBF744FE43
:104FA000030C8DF80030030A8DF80130237B8DF857
:104FB00002008DF80330A068637B8DF80430FBF7A6
:104FC000F7FA0DA3D3E90023FBF796FCFBF72CFEC1
:104FD000030C40BA8DF80530ADF80600082269468A
:104FE0008B2000F0EFFAC9E7236900930422F6E76B
:104FF0000000000080847E41000000008084EE3FBD
:10500000D8E10008C40D0020000040401FB5284A28
:10501000044651681068127A01AB03C31A70254B1D
:1050200020785B78834201D0FFF720FF23781BB103
:10503000012B31D004B010BD637AF12B20D14FF693
:10504000FF70FFF757FD48F20500FFF765FD0223EB
:105050006288A188ADF8061052BAE188ADF8042044
:105060008DF80B30227AA37A8DF80A20ADF808105B
:105070008DF80C30092201A98C2000F0A3FAD9E7A1
:10508000F22BE5D141F60F50FFF734FD41F221003C
:10509000FFF742FD0623DBE7A3895BBAADF80430D6
:1050A000E389ADF80630238AADF808300622E2E73E
:1050B000E0E10008C40D002013B5049C8DF8033016
:1050C000230C8DF800008DF801108DF802208DF86A
:1050D00004300522230A694688208DF805308DF8B2
:1050E000064000F06FFA024B07221A7002B010BDA2
:1050F000C40D002007B502228DF804008DF80510BC
:105100008F2001A900F05EFA03B05DF804FB07B53B
:10511000012201A9152000F077FA9DF80400404211
:10512000401003B05DF804FB37B504460D4602227B
:1051300001A9132000F068FA0C4B5B78012B11D108
:1051400040F2047000F0DCFAC0F3C710012809D166
:1051500040F2027000F0D4FA20709DF805302B70F8
:1051600003B030BD9DF804302370F6E7C40D002075
:10517000F7B50D46064600240DF1070128461746EF
:105180008DF80740FFF7D0FF2A78BA4207D89DF87C
:105190000700314600F0E4FA204603B0F0BD0120DC
:1051A000FBE7000013B50322044601A9142000F018
:1051B0002BFA1B4A5178217049B1012917D01422CA
:1051C0000021204608F0FCF80F2323700DE09DF825
:1051D000043023719DF80530A1605B425B10A37120
:1051E0009DF806305B425B10637102B010BD9DF804
:1051F00004309DF905105B425B1023739DF8053068
:105200000029B6BFA3F580739B089B1063739DF8BC
:1052100006305B425B10A37353682361E5E700BF70
:10522000C40D002007B5022240BAADF8040001A960
:10523000104600F0C7F903B05DF804FB10B5094C47
:1052400023786BB9FEF76DFA01210320FDF76CFF9F
:105250000120FEF77FFA044B02221A60012323701B
:1052600010BD00BFCC0D002000E100E070B50528A6
:1052700086B038BF052003AC05462046FEF79CFAF1
:1052800094E807001A4C6B4683E8070084E807009F
:105290000020FEF76FFAFDF741FF0228284614BFF1
:1052A0004FF400464FF4FA46FBF782F904463046C5
:1052B0000D46FBF77DF902460B4620462946FBF7D3
:1052C000F1F90C4B0022FBF717FB08F039FEFBF756
:1052D000E3FCFEF72FFB0120FEF75CFA0120FEF74E
:1052E00049FA01211020FEF709FB06B070BD00BF8E
:1052F000681C002000408F4008B50020FEF73AFAF5
:10530000BDE8084000211020FEF7F8BA014BD3E9B0
:1053100000017047781C00202DE9F04F89B005A8E6
:10532000FEF74AFA9DF81830BDF814109DF81700E2
:105330009DF819C09DF81AE03B4F00261A4600253B
:105340009DF81B3003930024CDE90056079B374E90
:105350000293A1F5FA68A246A34625B245451FFA75
:1053600084F917DB11F0030100F1FF3059D0304D03
:10537000304E0024E1B2814204F101042BDA2944C9
:10538000DDE90078097B71437F1848F10008CDE919
:105390000078EFE7009B15B119F0030F07D19B19B7
:1053A0000093019B43EB0A0301930134D5E7DB191A
:1053B0000093019B43EB0B03F6E7DDE900782C5DDE
:1053C00074433F1948F10008CDE90078CCB284421B
:1053D00001F10101F1DB3C24AEFB04454FF46161B6
:1053E000E1FB0C45039B1349501EE41801FB00F13F
:1053F000009B45F100056418019945F100054FF443
:105400007A70E21845EB0101A2FB002300FB013397
:105410000299B1FBF0F0101843F1000109B0BDE8AA
:10542000F08F034D034ED1E78033E1010085E201A7
:10543000E9E100088051010038B5FFF76DFF034B2B
:1054400004460D46C3E9004538BD00BF781C002066
:1054500008B5FFF761FF034AD2E90032C01A61EBD9
:10546000020108BD781C002008B5064B5B68984710
:1054700030B9FEF765F9BDE808400320FDF7D2BD5D
:1054800008BD00BF6CE1000808B51020FEF71AFA4D
:1054900090B10020FEF76EF900211020FEF72EFAE1
:1054A00000211020FEF7F6F9FEF7B0FBBDE808403A
:1054B00001211020FEF722BA08BD72B6704762B60D
:1054C00070470000044B9860DA6802F01102012A6C
:1054D000FAD19868C0B270470090004010B5134CE4
:1054E0004FF40073C4F800310723236002232361C3
:1054F000D4F80431802B0BD01420FCF7B9FF002323
:10550000C4F80C311420FCF7B3FF0123C4F80C31AC
:10551000064B074802225A60064B4FF400121A60ED
:10552000BDE8104003220B21FDF75ABC009000405B
:1055300000FC014000E100E0052070470E4BD3F86D
:10554000042142F02002C3F80421D3F8042122F000
:105550008002C3F80421D3F8002142F02002C3F8EE
:105560000021D3F8042142F00102C3F80421D3F84A
:105570000821D205FBD470470090004008B50A20EE
:10558000FCF776FF024AD2F80831DB05FBD408BDF0
:105590000090004038B572B6094C0025C4F80C5193
:1055A0000A20FCF765FFC020FFF78CFF2846FFF7B5
:1055B00089FF0123C4F80C31FFF7E0FF62B638BD64
:1055C00000900040F8B50F4F0C4615460646FFF711
:1055D00071FA0023C7F80C313046FFF773FF2544FA
:1055E000AC4208D10123842EC7F80C3108D0BDE8A5
:1055F000F840FFF7C3BF14F8010BFFF763FFEFE7B5
:10560000F8BD00BF0090004073B5104E01901546E4
:105610000C46FFF74FFA0021C6F80C110198FFF76E
:1056200051FF0846FFF74EFF2544AC4207D1012346
:10563000C6F80C3102B0BDE87040FFF79FBF0020F4
:10564000FFF740FF04F8010BEFE700BF00900040B8
:10565000F8B5104E0C4615460746FFF72BFA002307
:10566000C6F80C310D20FFF72DFF380AFFF72AFF8F
:10567000F8B2FFF727FF2544AC4206D10123C6F854
:105680000C31BDE8F840FFF779BF14F8010BFFF7C4
:1056900019FFF1E70090004007B501228DF80710CF
:1056A0000DF10701FFF7D4FF03B05DF804FB000024
:1056B000F8B5124E154607460C46FFF7FBF90021D8
:1056C000C6F80C111D20FFF7FDFE380AFFF7FAFEA1
:1056D000F8B2FFF7F7FE0846FFF7F4FE2544AC42A8
:1056E00006D10123C6F80C31BDE8F840FFF746BFEC
:1056F0000020FFF7E7FE04F8010BF0E70090004000
:1057000007B501220DF10701FFF7D2FF9DF8070051
:1057100003B05DF804FB0000F8B5154607460E46D9
:10572000FFF7C8F90D4B0024C3F80C410E20FFF71A
:10573000C9FE3846FFF7C6FEADB2A3B29D4207D8F8
:10574000064B0122C3F80C21BDE8F840FFF716BF55
:10575000305DFFF7B7FE0134EFE700BF0090004077
:10576000F8B515460E460746FFF7A4F90F4B00247F
:10577000C3F80C411E20FFF7A5FE3846FFF7A2FE36
:105780002046FFF79FFEADB2A3B29D4207D8074B5C
:105790000122C3F80C21BDE8F840FFF7EFBE00205E
:1057A000FFF790FE30550134EEE700BF0090004057
:1057B0000221FFF771BB022070470000024803225C
:1057C0000A21FDF77BBA00BF00F001400248042225
:1057D0000A21FDF773BA00BF00F00140074B0849EA
:1057E000186843F2390201FB002018606FF0004393
:1057F000B0FBF3F3C3EBC373C01A7047040000207F
:105800006D4EC641014B1860704700BF0400002078
:1058100038B505460C46FFF7E1FF611B013190FBEF
:10582000F1F303FB1100284438BD01380A449142CA
:1058300000D1704711F8013B00F8013FF7E7104431
:105840000A44914200D1704711F8013B00F8013D34
:10585000F7E70244904200D1704700F8011BF9E7D6
:10586000044B04221A70044A137843F01003137097
:10587000704700BFD80D0020801C002070B51D4B64
:105880001D4C1E481E4D012101704170817099858B
:105890002188298094F8211085F82110D4E9090184
:1058A00005F1240686E80300A18DA9850022216B5D
:1058B0002963C3E90722616B6963596B1A765A62DF
:1058C00083F8282083F8292083F82A2083F82E20C3
:1058D00083F82F2083F8302083F8312083F832209A
:1058E00021B983F8381083F8391070BD4A62896B8A
:1058F000F6E700BFD80D0020841C0020080000201F
:10590000C01C002038B5814C94F82F300238C3F108
:1059100080031546DBB2112800F2F480DFE800F0C6
:10592000091F323D50727A8892F2F299F2F2AFC8B2
:10593000DBE994F82E209A4280F0E680531C84F82C
:105940002E302244022382F83A3094F831000123A9
:1059500084F8323010B1FFF783FF002038BD94F88F
:105960002E20013B9A4280F2CF80A318032083F8B7
:105970003A00931C013254FA82F284F82E3082F8F5
:105980003A10E2E794F82E209A4280F0BD80531C32
:1059900084F82E3022440423D5E794F82E20013BCE
:1059A0009A4280F2B180A318052083F83A00931C34
:1059B000013254FA82F284F82E3082F83A1034E040
:1059C00094F82E00023B984280F29E802318062213
:1059D00083F83A20431C54FA83F383F83A10C31C2B
:1059E000023054FA80F084F82E3080F83A50FFF7F5
:1059F00037FF474B1B781807A7D52A464548FCF7C1
:105A00003BFCA2E794F82E20013B9A427CDAA318D3
:105A10000720ACE794F82E209A4275D2531C2244FA
:105A200084F82E30082382F83A30FFF719FF8CE70C
:105A300094F82E209A4267D2531C84F82E302244C8
:105A4000092380E794F82E209A425DD2A3180A20F9
:105A5000ABE794F92E2094F82E30002A54DB5A1C20
:105A6000234484F82E200D2283F83A20284B1B78FB
:105A70001A077FF56AAF2848FCF7FEFB65E794F844
:105A80002E307E2B40D8E218102082F83A009A1C63
:105A9000013354FA83F384F82E2083F83A101C4B18
:105AA0001B781B077FF551AF1C48FCF7E5FB4CE763
:105AB00094F92E2094F82E30002A25DBE2181120CC
:105AC00082F83A009A1C013354FA83F384F82E20AA
:105AD00083F83A10A9E794F92E2094F82E30002A82
:105AE00012DB5A1C234484F82E20122283F83A2019
:105AF0002BE794F92E2094F82E30002A04DBE218CC
